:020000040800F2
:1000000000000220D93900082D3900082F390008D6
:100010003139000833390008353900080000000084
:100020000000000000000000000000003739000858
:1000300039390008000000003B3900083D3900084C
:10004000293A0008293A0008293A0008293A000804
:10005000293A0008293A0008293A0008293A0008F4
:10006000293A0008293A0008293A000841390008CD
:10007000293A00084D390008593900086539000847
:10008000713900087D390008293A0008293A00082A
:10009000293A0008293A0008293A0008293A0008B4
:1000A000293A0008293A0008293A0008293A0008A4
:1000B000293A0008293A0008293A0008293A000894
:1000C000293A0008293A0008293A0008293A000884
:1000D000293A0008293A0008293A0008293A000874
:1000E000293A0008293A0008293A0008293A000864
:1000F00089390008293A0008293A0008A53900087A
:10010000293A0008293A0008293A0008293A000843
:10011000B1390008293A0008293A0008293A0008AC
:10012000293A0008293A0008293A0008293A000823
:10013000293A00080000000000000000293A0008E9
:10014000293A0008293A0008293A0008293A000803
:10015000293A0008293A0008293A0008293A0008F3
:10016000293A0008293A0008293A0008293A0008E3
:10017000293A0008293A0008293A0008000000003E
:1001800000000000293A0008000000000000000004
:10019000293A00080000000000000000293A000889
:1001A000000000000000000000000000293A0008E4
:1001B000293A0008293A0008293A0008293A000893
:0401C000293A0008D0
:1001C40010B5054C237833B9044B13B10448AFF38D
:1001D40000800123237010BD0C00002000000000EB
:1001E400843A000808B5034B1BB103490348AFF335
:1001F400008008BD0000000010000020843A0008C0
:1002040053B94AB9002908BF00281CBF4FF0FF3179
:100214004FF0FF3000F07AB9ADF1080C6DE904CE6F
:1002240000F006F8DDF804E0DDE9022304B07047CD
:100234002DE9F0478C460D460446089E002B51D10B
:100244008A4217466DD9B2FA82FEBEF1000F0BD076
:10025400CEF1200C01FA0EF520FA0CFC02FA0EF78E
:100264004CEA050C00FA0EF44FEA174A250CBCFBC5
:10027400FAF81FFA87F90AFB18CC45EA0C4508FB83
:1002840009F3AB420AD9ED1908F1FF3280F023815A
:10029400AB4240F22081A8F102083D44ED1AA4B219
:1002A400B5FBFAF00AFB105544EA054400FB09F9D2
:1002B400A14509D9E41900F1FF3380F00A81A14571
:1002C40040F2078102383C44A4EB090440EA0840A8
:1002D4000021002E61D024FA0EF4002334607360F0
:1002E400BDE8F0878B4207D9002E54D0002186E860
:1002F40021000846BDE8F087B3FA83F1002940F0F5
:100304008E80AB4202D3824200F2FA80841A65EBFB
:1003140003050120AC46002E3FD086E81010BDE84E
:10032400F08712B90127B7FBF2F7B7FA87FEBEF1DF
:10033400000F34D1EB1B3A0C1FFA87FC0121B3FBED
:10034400F2F8250C02FB183345EA03450CFB08F3CD
:10035400AB4207D9ED1908F1FF3002D2AB4200F2EB
:10036400D1808046ED1AA3B2B5FBF2F002FB105522
:1003740043EA05440CFB00FCA44507D9E41900F149
:10038400FF3302D2A44500F2B8801846A4EB0C0453
:1003940040EA08409DE731463046BDE8F087CEF19B
:1003A400200405FA0EF307FA0EF720FA04F83A0CC3
:1003B40025FA04F448EA0308B4FBF2F14FEA1845BD
:1003C40002FB11441FFA87FC45EA044501FB0CF3C8
:1003D400AB4200FA0EF409D9ED1901F1FF3080F0B7
:1003E4008A80AB4240F2878002393D44EB1A1FFAFF
:1003F40088F5B3FBF2F002FB103345EA034500FB3A
:100404000CF3AB4207D9ED1900F1FF386FD2AB42C0
:100414006DD902383D44EB1A40EA01418FE7C1F13E
:10042400200722FA07F88B4005FA01F448EA03038F
:1004340020FA07FE4FEA134CFD404EEA040EB5FBCA
:10044400FCF94FEA1E440CFB19551FFA83F844EAE1
:10045400054509FB08F4AC4202FA01F200FA01FA7C
:1004640008D9ED1809F1FF3043D2AC4241D9A9F1C2
:1004740002091D442D1B1FFA8EFEB5FBFCF00CFB7C
:1004840010554EEA054400FB08F8A04507D9E418C6
:1004940000F1FF3529D2A04527D902381C4440EA8F
:1004A4000940A4EB0804A0FB02894C45C6464D460E
:1004B40015D312D056B1BAEB0E0364EB050404FA5B
:1004C40007F7CB401F43CC40376074600021BDE880
:1004D400F0871846F8E69046E0E6C245EAD2B8EB63
:1004E400020E69EB03050138E4E72846D7E74046E6
:1004F40091E78146BEE7014678E702383C4445E788
:10050400084608E7A8F102083D442BE7704700BFFE
:1005140038B50E4A0E4B054618784FF47A73B3FB80
:10052400F0F31068B0FBF3F000F0F2F9044658B9A8
:100534000F2D09D8024629464FF0FF3000F0A6F9E6
:10054400044B20461D6038BD012038BD0800002042
:10055400000000200400002008B50B4B1A6842F488
:1005640000721A601A6842F480621A601A6842F4CF
:1005740080721A60032000F077F90020FFF7C8FFAB
:1005840002F0A4FD002008BD003C0240034A044BD5
:1005940011681B780B441360704700BF3C000020B7
:1005A40000000020014B1868704700BF3C00002089
:1005B40038B50446FFF7F6FF631C1CBF054B1B78D8
:1005C400054618BFE418FFF7EDFF401B8442FAD834
:1005D40038BD00BF0000002038B50446002800F0F4
:1005E4009B80056C25B902F08DFD656484F83C5050
:1005F400236CDB0600F18E80236C23F4885323F0F4
:10060400020343F002032364444B5A6822F4403249
:100614005A605A6861680A435A60236821695A68B3
:1006240022F480725A605A6842EA01225A605A6877
:10063400A16822F040725A605A680A435A609A6864
:10064400E16822F400629A609A680A439A60344925
:10065400A26A8A4252D0996821F0706199609968BF
:100664000A439A609A68E16A22F040529A609A6852
:100674000A439A609A68217E22F002029A609A687C
:1006840042EA41029A6094F82020002A3ED05A6837
:10069400616A42F400625A605A6822F460425A6005
:1006A4005A68013942EA41325A60DA6AE16922F44D
:1006B4007002DA62DA6A013942EA0152DA629A684D
:1006C40094F8301022F400729A609A6842EA412247
:1006D4009A609A68616922F480629A609A6800203C
:1006E40042EA81229A606064236C23F0030343F09E
:1006F40001032364002384F83C3038BD9A6822F057
:1007040070629A609A6822F04052B2E75A6822F402
:100714000062C9E70120EDE7012038BD0023014054
:100724000100000FF7B50023019390F83C30012B32
:100734006ED00D6804688A680123092D80F83C3066
:10074400AEB22AD906EB4603E7681E3B4FF0070E0C
:100754000EFA03FE27EA0E07E760E76802FA03F3DE
:100764003B43E3604A68062A4FEA820325D81344D0
:10077400676B591F1F238B4027EA03036363626B74
:1007840006FA01F111436163324B9C4234D00023D9
:1007940080F83C30184603B0F0BD276905EB4503EB
:1007A4004FF0070E0EFA03FE27EA0E0727612769AA
:1007B40002FA03F33B432361D4E70C2A0ED8134413
:1007C400216BA3F123021F23934021EA0303236334
:1007D400236B06FA02F21A432263D5E71344E16A53
:1007E400413B1F229A4021EA0202E262E26A06FACF
:1007F40003F11143E162C7E7122D0BD1164B5A687E
:1008040022F400025A605A6842F480025A60BEE739
:100814000220C0E7114B9D4201D0112DB7D10E4BE0
:100824005A6822F480025A605A6842F400025A60FC
:100834000A4B9D42ABD10A4B0A4A1B68B3FBF2F246
:100844000A2353430193019B002BA0D0019B013B3E
:10085400F8E700BF0020014000230140120000100F
:100864000800002040420F00074AD36823F4E063E5
:100874001B041B0C43F0BF63000243F4003300F479
:10088400E0600343D360704700ED00E0174B30B5E0
:10089400DC68C4F30224C4F10703251D042B28BF1C
:1008A4000423062D4FF0010505FA03F303F1FF338A
:1008B4008CBF033C00241940A14005FA04F4013C18
:1008C4002240002842EA01024FEA0212ADBF00F1C1
:1008D400604000F00F00064B00F56140B5BFD2B296
:1008E400D2B21A5480F8002330BD00BF00ED00E0FE
:1008F40014ED00E0002808DB4209012300F01F008A
:1009040003FA00F0014B43F82200704700E100E0D5
:100914000138B0F1807F0AD2064B074A5860F021B3
:1009240082F823100020072298601A607047012083
:10093400704700BF10E000E000ED00E00368DAB2A9
:1009440023F47F7323F003031821103AB2FBF1F26E
:100954000449032A88BF0433895C8365C165806DBB
:10096400704700BF9C3A000870B50446FFF71AFEB2
:100974000546002C71D0002384F834302268022309
:1009840084F83530136823F00103136021680B6881
:10099400D8073CD40B68324D6268A0691D40A36837
:1009A4001343E26813432269134362691343E26900
:1009B40003431343226A1343626A042A43EA050386
:1009C40001BF266BE56A35432B430B604B69042A50
:1009D40023F0070343EA02030BD1A26AE56A134337
:1009E4003DB1F8B9012A2DD001D3022A01D1EA017F
:1009F4002BD44B612046FFF7A1FFE26D3F239340C8
:100A0400836000200123606584F8353070BDFFF7F2
:100A1400C9FD401B0528B9D920236365032084F848
:100A2400350070BDB0F5005F13D1032AE1D801A0F1
:100A340050F822F04F0A0008F30900084F0A000892
:100A4400490A0008B5F1C07FD3D140236365012072
:100A5400E5E7022AF9D9032AC8E7012070BD00BFDF
:100A64003F8010F070B590F83440012C32D001244E
:100A740080F8344090F83540866D012C4FF0000525
:100A84004FF0020424D180F8354004684565256898
:100A940025F48025256063608368402B0EBFA26027
:100AA400A160E260C26D08BFE1603F239340B36080
:100AB400236843F016032360036C1BB1236843F0DF
:100AC40008032360236843F001032360002070BD02
:100AD40080F83450022070BD90F83530022B03D0DA
:100AE40080234365012070470268052380F8353070
:100AF400136823F00103136000207047F7B5002347
:100B040001935A4B856D1F68C36D2E6808229A4065
:100B1400164204460CD001680868400708D50868E6
:100B240020F004000860AA60626D42F00102626570
:100B340001229A40164208D021684969090641BF3A
:100B4400AA60626D42F00202626504229A40164273
:100B540008D021680968880741BFAA60626D42F025
:100B64000402626510229A40164210D02368196864
:100B740009070CD5AA601A68500335D51B681903F8
:100B840001D4236C00E0A36C0BB120469847E16DBF
:100B940020228A40164238D023681868C60634D505
:100BA400AA6094F83520052A1A6825D122F0160285
:100BB4001A605A6922F080025A61226C0AB9A26C46
:100BC4001AB11A6822F008021A603F238B40AB6006
:100BD400002384F83430012384F83530236D0BB1BD
:100BE4002046984703B0F0BD1A68D2055EBF1A6864
:100BF40022F008021A60C4E7500328D51B681903C1
:100C040032D4636C0BB120469847636D002BE9D056
:100C1400636DDA0719D50523226884F83530136823
:100C240023F0010313604FF41653B7FBF3F7019B52
:100C340001339F42019302D31368DB07F7D40023E7
:100C440084F83430012384F83530E36CC7E71A683C
:100C540012F4807208D1196821F01001196001237F
:100C640084F8342084F83530E36BCBE708000020A7
:100C74002DE9F04F85B00B68DFF8A081654ADFF8F5
:100C8400A091019300230124019D9C402540AC4286
:100C940040F0AC804C6824F0100C0CF1FF36012EAF
:100CA4004FEA430E12D88768032606FA0EF627EA9F
:100CB4000607CE6806FA0EF63E4386604768C4F31C
:100CC400001627EA05079E403E4346600326C76890
:100CD40006FA0EF6F64307EA060A8F6807FA0EF7D5
:100CE40047EA0A07BCF1020FC76016D14FEAD30ADC
:100CF40000EB8A0A03F0070BDAF820704FEA8B0B3B
:100D04004FF00F0C0CFA0BFC27EA0C0C0F6907FAD6
:100D14000BF747EA0C07CAF8207007683E4004F056
:100D2400030707FA0EFE4EEA06060660E6005DD5E6
:100D34004FF0000BCDF80CB0D8F84470364E47F4A1
:100D44008047C8F84470D8F8447007F48047039784
:100D5400039F23F0030707F1804707F59C3703F04F
:100D6400030CD7F808A04FEA8C0C4FF00F0E0EFAC4
:100D74000CFEB0422AEA0E0E3FD006F58066B04261
:100D84003DD006F58066B0423BD006F58066B042A1
:100D940039D006F58066B04237D0484537D006F5DD
:100DA4000066B04214BF0726062606FA0CF646EA89
:100DB4000E06BE601668EF4314F4803F0CBF3E403D
:100DC4002E431660566814F4003F0CBF3E402E4379
:100DD4005660966814F4801F0CBF3E402E43966004
:100DE400D668A40254BF3E402E43D6600133102B74
:100DF4007FF449AF05B0BDE8F08F5E46D5E7012624
:100E0400D3E70226D1E70326CFE70426CDE705265C
:100E1400CBE700BF003C0140000002400038024024
:100E2400001402400AB1816170470904FBE7436979
:100E340031EA030308BF09048161704770B50446B1
:100E440008B9012070BD90F83D3003F0FF021BB9D2
:100E540080F83C2002F088F9242384F83D3023688C
:100E64001A6822F001021A601A6842F400421A60F9
:100E74001A6822F400421A6000F064F96568414B74
:100E84009D424DD8404B9842DBD922683F49536874
:100E9400B0FBF1F123F03F030B435360136A23F0DB
:100EA4003F03013119431162D169364B21F44F419B
:100EB4009D4221F0FF0100F1FF3048D86D00B0FBE6
:100EC400F5F00130C0F30B03042B38BF04230B43AC
:100ED400D3611168206AE36921F0C00103430B4325
:100EE40013609168E068236921F40341034321F00E
:100EF400FF010B439360D168A069636921F0FF018E
:100F040003430B43D360136843F0010313600020D1
:100F14002023206484F83D30206384F83E0070BDB3
:100F24001B4B98428DD92268184E5368B0FBF6F6D5
:100F340023F03F0333435360136A4FF496717143B4
:100F440023F03F034FF47A76B1FBF6F1A9E7A368E7
:100F540053B905EB4503B0FBF3F0431CC3F30B0398
:100F64006BB143F40043B2E719236B43B0FBF3F0D6
:100F7400431CC3F30B0313B143F44043A7E701231A
:100F8400A5E700BFA08601007F841E0040420F0039
:100F9400FF083D0037B500230193184B184C1A6C19
:100FA40042F080521A641B6C03F080530193019B3E
:100FB400144B01221A60FFF7F5FA05466368DA0359
:100FC4000BD5114B0E4C01221A60FFF7EBFA0546C4
:100FD40063689B030AD5002006E0FFF7E3FA401B91
:100FE400B0F57A7FEAD9032003B030BDFFF7DAFA0F
:100FF400401BB0F57A7FEBD9F5E700BF003802401B
:101004000070004040000E4244000E422DE9F041C1
:101014000D46044610B90120BDE8F081444B1A681E
:1010240002F00F028A4229D321688F072ED4C80701
:1010340041D43F4B1A6802F00F02954267D32268ED
:1010440051076DD4130707D53A4A2169936823F4ED
:10105400604343EAC103936000F09CFA354B364A7F
:101064009B68C3F30313D35CD840344B1860344BF0
:101074001868FFF74DFA0020BDE8F081CAB21A7073
:101084001B6803F00F039942C5D1CDE7294B11F03A
:10109400040F1EBF9A6842F4E0529A600E0742BFE2
:1010A4009A6842F460429A609A68A06822F0F0025A
:1010B40002439A60BBE762681E4B012A1DD11B687C
:1010C40013F4003FA7D01B4EB36823F0030313436C
:1010D400B360FFF767FA41F288380746B36862687D
:1010E40003F00C03B3EB820FA3D0FFF75BFAC01B32
:1010F4004045F3D90320BDE8F081911E01291B6806
:1011040002D813F0007FDDE713F0020FDAE7EAB24A
:101114001A701B6803F00F039D427FF47CAF8EE7C7
:101124000449E0688B6823F4E05303438B6089E748
:10113400003C024000380240A43A000808000020A5
:1011440004000020044B054A9B68C3F38223D35C4C
:10115400034A1068D840704700380240B43A000887
:1011640008000020044B054A9B68C3F34233D35C58
:10117400034A1068D840704700380240B43A000867
:101184000800002003682DE9F74313F00106044624
:101194000BD0AA49866BD1F88C2022F0C06232436E
:1011A400B6FA86F6C1F88C2076099D070BD5A348BC
:1011B400E16BD0F88C2022F0C0520A430029C0F819
:1011C4008C2008BF012613F0040512D09B49256B1F
:1011D400D1F88C20B5F5801F22F4401242EA0502B2
:1011E40018BFB5FA85F5C1F88C2012BF6D0900252A
:1011F400012618070FD59148616BD0F88C2022F492
:1012040040020A43B1F5800FC0F88C2000F0098138
:10121400002908BF0125990633D500230193874B84
:10122400874F1A6C42F080521A641B6C03F080538F
:101234000193019B3B6843F480733B60FFF7B2F971
:1012440080463B68DA0540F1EE807C4F3B6F13F437
:10125400407340F0FB80236C03F44072B2F5407F8E
:10126400764A40F01681916823F0704021F4F81119
:1012740020F4407001439160116FC3F30B030B43DF
:1012840013672368D90642BF6E4B94F858201A603E
:1012940023681A0608D56949E06CD1F8942022F431
:1012A40040020243C1F894205F0608D56349A06C4C
:1012B400D1F8942022F080620243C1F89420D8052A
:1012C4000CD55E48616DD0F8942022F000620A4388
:1012D400B1F1006FC0F8942008BF0125990508D525
:1012E4005649606CD1F8942022F080520243C1F830
:1012F40094205A0500F1D180012E40F0DC80524E3A
:101304004E4F00233360FFF74DF980463B681B01C5
:1013140000F125812268D00701D5A36B1BB1910789
:1013240015D5E36B9BB94549D1F88430D1F88400D5
:1013340003F4403300F07060034360680343A06823
:1013440043EA8013606943EA0073C1F884305307A9
:1013540003D5236BB3F5801F05D0170720D5636B26
:10136400B3F5800F1CD13549D1F88430D1F884000D
:1013740003F4403300F0E040034360680343A06893
:1013840043EA8013206943EA0063C1F88430D1F84A
:101394008C00A36A20F01F00013B0343C1F88C308A
:1013A40050051BD5236DB3F1005F17D1234867683F
:1013B400D0F88410D0F8843003F0E0433B43A768AE
:1013C400C1F30141013143EA871343EA4163E16810
:1013D4004908013943EA0143C0F88430110511D5A5
:1013E4002369A2681B0643EA821362681343626995
:1013F40043EA0273E2685208013A43EA02430F4A9D
:10140400C2F8843001233360FFF7CCF80B4E074653
:1014140033681A0153D4FFF7C5F8C01B0228F7D963
:1014240008E00126F7E6FFF7BDF8A0EB0800022864
:101434007FF607AF032003B0BDE8F0830038024015
:1014440000700040E011474268004742226C02F4F9
:10145400407293423FF4FFAE3B6F4B4A012111604F
:1014640023F44073002111603B673B6FDB077FF57A
:10147400F2AEFFF797F841F2883980463B6F980740
:101484003FF5E9AEFFF78EF8A0EB08004845F5D923
:10149400D0E7916821F4F811EDE63C48216DD0F8CD
:1014A400942022F000520A43B1F1005FC0F8942066
:1014B4007FF422AF23E7B3F5006F3FF420AF012D93
:1014C4004BD1334D314E00232B60FFF76BF80746A9
:1014D40033689B004BD421684E0701D5236B1BB1A5
:1014E40008071AD5636BC3B9284AA069D2F88830B3
:1014F40003F440330343E06943EA8013606A43EA38
:101504000063C2F88830D2F88C30E06A23F4F853D0
:10151400013843EA0023C2F88C30CA0514D5636D40
:10152400B3F1006F10D11949A269D1F8883003F0E2
:1015340070631343E26943EA8213226A5208013A50
:1015440043EA0243C1F8883001232B60FFF72AF8ED
:101554000E4C054623689B000FD500206BE7FFF770
:1015640021F8A0EB080002287FF6D0AE62E7FFF76F
:1015740019F8C01B0228ABD95CE7FFF713F8401B2E
:101584000228E7D956E700BF400E47420038024020
:1015940070004742204908B58B6803F00C03082B00
:1015A40007D00C2B20D01D4A1D48042B18BF104611
:1015B40008BD4A684B68496813F4800314BF18488F
:1015C4001648C1F3881118BF002302F03F02A1FBA3
:1015D4000001FEF715FE104B5B68C3F301430133B2
:1015E4005B00B0FBF3F008BD4A684B68496813F42C
:1015F400800314BF0A480948C1F3881118BF0023A7
:1016040002F03F02A1FB0001FEF7FAFD024B5B680A
:10161400C3F30273E5E700BF003802400024F4007E
:1016240040787D0103682DE9F341DF07044610D4B7
:1016340023689E0767D423681A0700F1B2802368E1
:101644005B0700F1D080A269002A40F039810020B4
:101654001EE0974B9A6802F00C02042A10D09A6894
:1016640002F00C02082A02D15B685D0208D4904B98
:101674009A6802F00C020C2A0DD15A6850020AD55D
:101684008B4B1B689903D3D56368002BD0D1012001
:1016940002B0BDE8F0816268B2F5803F11D11A68EA
:1016A40042F480321A60FEF77DFF814D06462B68B6
:1016B4009A03BDD4FEF776FF801B6428F7D9032074
:1016C400E6E77B4DB2F5A02F2B6807D143F48023C6
:1016D4002B602B6843F480332B60E4E723F48033DE
:1016E4002B602B6823F480232B60002ADBD1FEF7C8
:1016F40059FF06462B689B039AD5FEF753FF801BC0
:101704006428F7D9DBE76A4B9A6812F00C0F10D003
:101714009A6802F00C02082A02D15B685F0208D5BD
:10172400634A936803F00C030C2B11D153685E02D7
:101734000ED45F4B1A68950702D5E268012AA6D138
:101744001A68216922F0F80242EAC1021A6072E7BB
:10175400E268584BB2B101221A60FEF723FF544DE0
:1017640006462B68980707D52B68226923F0F803EF
:1017740043EAC2032B605EE7FEF714FF801B0228D6
:10178400EFD99CE71A60FEF70DFF494D06462B681A
:1017940099077FF550AFFEF705FF801B0228F6D9A5
:1017A4008DE76269444B7AB101221A60FEF7FAFEB2
:1017B4003F4D06466B6F9F073FF541AFFEF7F2FEC4
:1017C400801B0228F6D97AE71A60FEF7EBFE384D43
:1017D40006466B6F98077FF532AFFEF7E3FE801B7A
:1017E4000228F6D96BE7324B1A6C12F0805228D1DA
:1017F40001921A6C42F080521A641B6C03F08053FD
:101804000193019B01262D4D2B68D9051BD5A36897
:10181400274D012B27D12B6F43F001032B67FEF7D4
:10182400C1FE234D074641F288382B6F9B0739D5FB
:10183400002E3FF408AF1E4A136C23F08053136448
:1018440001E70026DFE72B6843F480732B60FEF783
:10185400A9FE07462B68DA05D9D4FEF7A3FEC01B00
:101864000228F7D92BE7052B04D12B6F43F004038F
:101874002B67D0E72A6F22F001022A672A6F22F031
:1018840004022A67002BCAD1FEF78CFE41F2883885
:1018940007462B6F9807CBD5FEF784FEC01B404547
:1018A400F7D90CE7FEF77EFEC01B4045BDD906E71D
:1018B4000038024000004742800E4742007000405A
:1018C400234DAB6803F00C03082B3FF4E0AE214E2C
:1018D4000023022A33602DD1FEF764FE07462B68ED
:1018E400990121D4226AE3691343626A43EA8213A9
:1018F400E26A43EA0263226B43EA0273A26A144C6B
:101904005208013A43EA02436B6001233360FEF755
:1019140049FE054623689A013FF599AEFEF742FE5B
:10192400401B0228F6D9CAE6FEF73CFEC01B02287B
:10193400D5D9C4E6FEF736FE04462B689B017FF535
:1019440086AEFEF72FFE001B0228F6D9B7E600BFCD
:101954000038024060004742026838B5D36823F07B
:10196400A003D3600446FEF71DFE05462368DB682A
:101974009B0601D5002038BDFEF714FE401BB0F5D0
:101984007A7FF3D9032038BD38B50368DA68520684
:10199400044601D5002038BD4FF0FF32DA60FEF76F
:1019A40001FE05462368DB685B06F3D4FEF7FAFD07
:1019B400401BB0F57A7FF5D9032038BD38B504460D
:1019C400B8B1437F03F0FF0213B9027701F004FCBE
:1019D400022363772368CA225A6253225A6220463A
:1019E400FFF7D2FF2368054628B1FF225A62042379
:1019F400637701252EE09A68206922F4E00222F040
:101A040040029A60626899680243606902430A432B
:101A14009A60E2681A611A69A16842EA01421A618D
:101A2400DA6822F08002DA609B689B0605D42046BF
:101A3400FFF792FF08B12368D7E72368A1691A6CFE
:101A440022F480221A641A6C0A431A64FF225A622E
:101A540001236377284638BD10B50446002836D0E4
:101A64000023836290F8513003F0FF021BB980F821
:101A7400502001F0BDFB2168A068A269022384F80C
:101A840051300B6823F040030B6063680343E06844
:101A940003432069034360690343E0690343206A05
:101AA4000343A06A034302F4007003430B60120C67
:101AB400636A02F004021A434A60CB6923F40063A8
:101AC400CB6100200123606584F8513010BD0120F2
:101AD40010BD0000036A23F001030362036A70B5BA
:101AE400446882690D6822F073022A438D6823F0EA
:101AF40002032B430E4DA84202D00E4EB04210D129
:101B0400CE6823F008033343A84223F0040302D031
:101B1400084DA84205D14D698E6924F440743543BB
:101B24002C43446082614A684263036270BD00BF13
:101B34000000014000040140036A23F4807303623F
:101B4400036A70B54468C2690D6822F073022A43BF
:101B54008D6823F4007343EA0523114DA84203D092
:101B640005F58065A84214D1CD6823F4006343EAE7
:101B740005230B4DA84223F4806303D005F580654B
:101B8400A84206D14D698E6924F44054354344EA91
:101B940005144460C2614A68C263036270BD00BF39
:101BA40000000140036A23F480530362036A30B5E2
:101BB4004468C2690D6822F4E64242EA05228D684F
:101BC40023F4005343EA0533084DA84203D005F536
:101BD4008065A84204D14D6924F4804444EA851404
:101BE4004460C2614A680264036230BD000001407F
:101BF4000368DA6842F00102DA609A6802F00702C8
:101C0400062A1EBF1A6842F001021A6000207047BB
:101C14007047704770477047704703681A699107A7
:101C240010B504460ED5DA6892070BD56FF00202A0
:101C34001A619B6901229B07027777D0FFF7EAFFBD
:101C44000023237723681A69500710D5DA685107EF
:101C54000DD56FF004021A619B69022213F4407FD0
:101C64002277204668D0FFF7D5FF00232377236827
:101C74001A6912070FD5DA6810070CD56FF008023D
:101C84001A61DB6904229907227720465AD0FFF7AC
:101C9400C1FF0023237723681A69D20610D5DA68B6
:101CA400D0060DD56FF010021A61DB69082213F417
:101CB400407F227720464BD0FFF7ACFF00232377E9
:101CC40023681A69D10708D5DA68D20705D56FF0F9
:101CD40001021A612046FFF79BFF23681A69100668
:101CE40008D5DA68110605D56FF080021A6120461E
:101CF40000F06FFA23681A69520608D5DA685006AC
:101D040005D56FF040021A612046FFF785FF23686E
:101D14001A69910622D5DA6892061FD56FF020025F
:101D240020461A61BDE8104000F052BAFFF771FF77
:101D34002046FFF770FF83E7FFF76BFF2046FFF7AE
:101D44006AFF92E7FFF765FF2046FFF764FFA0E70D
:101D5400FFF75FFF2046FFF75EFFAFE710BD00000F
:101D6400304A0368904212D0B0F1804F0FD0A2F5F0
:101D74007C4290420BD002F58062904207D002F57B
:101D84008062904203D002F57842904219D14A68A9
:101D940023F070031343234A904229D0B0F1804FBB
:101DA40026D0A2F57C42904222D002F58062904275
:101DB4001ED002F5806290421AD002F57842904219
:101DC40016D0194A904213D002F5806290420FD087
:101DD40002F5806290420BD0A2F59832904207D06F
:101DE40002F58062904203D002F58062904203D1F2
:101DF400CA6823F4407313434A6923F080031343EE
:101E040003608B68C3620B688362064B984203D0FD
:101E140003F58063984201D10B6903630123436195
:101E2400704700BF000001400040014010B5044667
:101E3400A0B190F83D3003F0FF021BB980F83C20BC
:101E440001F04CFA022384F83D302068211DFFF78D
:101E540087FF012384F83D30002010BD012010BD10
:101E640010B50446A0B190F83D3003F0FF021BB951
:101E740080F83C2001F0E0FA022384F83D30206829
:101E8400211DFFF76DFF012384F83D30002010BDB4
:101E9400012010BD036A23F010030362036A70B5C6
:101EA400446882690D6822F4E64242EA05228D689C
:101EB40023F0200343EA0513104DA84203D005F58F
:101EC4008065A84214D1CD6823F0800343EA05134A
:101ED4000A4DA84223F0400303D005F58065A842CB
:101EE40006D14D698E6924F44064354344EA85047F
:101EF400446082614A688263036270BD00000140ED
:101F040038B590F83C30012B04464FF0020025D040
:101F1400012384F83C3084F83D000C2A18D8DFE80B
:101F240002F0071717171E1717172F171717400058
:101F34002068FFF7CFFD236809699A6942F0080217
:101F44009A619A6922F004029A619A690A439A6131
:101F54000123002084F83D3084F83C0038BD20681B
:101F6400FFF798FF236809699A6942F400629A614D
:101F74009A6922F480629A619A6942EA0122E6E748
:101F84002068FFF7D9FD23680969DA6942F008027D
:101F9400DA61DA6922F00402DA61DA690A43DA61A1
:101FA400D6E72068FFF7FEFD23680969DA6942F481
:101FB4000062DA61DA6922F48062DA61DA6942EA9B
:101FC4000122ECE710B584680A4324F47F4442EA12
:101FD40003232343836010BD90F83C30012B70B57C
:101FE40004464FF0020019D084F83D002068012314
:101FF40084F83C30836823F47F4323F077038360C1
:102004000B68402B65D015D8102B0CD007D853B1D2
:102014000123002084F83D3084F83C0070BD202B5F
:1020240001D0302BF4D1826843F0070322F0700210
:1020340013431AE0602B34D019D8502BE8D14A68E6
:10204400CE68016A056A25F001050562836921F0FD
:102054000A0123F0F00343EA06130A438361026290
:10206400836823F0700343F057038360D0E7702B39
:102074000CD0B3F5005FCBD1CB684A688968FFF711
:10208400A1FF2268936843F4804308E0CB684A6860
:102094008968FFF797FF2268936843F0770393609A
:1020A400B6E74D68CE68016A21F0100101628269C9
:1020B400036A22F4704223F0A00343EA051342EAC0
:1020C400063282610362836823F0700343F067037E
:1020D400CBE74A68CE68016A056A25F00105056206
:1020E400836921F00A0123F0F00343EA06130A434B
:1020F40083610262836823F0700343F04703B4E70B
:1021040090F83C30012B30B54FF0020335D080F805
:102114003D3003680D685C6824F0700401222C4390
:1021240080F83C209A685C60154CA3421AD0B3F145
:10213400804F17D0A4F57C44A34213D004F58064E7
:10214400A3420FD004F58064A3420BD004F5784475
:10215400A34207D004F57054A34203D0A4F59434E9
:10216400A34204D1496822F080020A439A60012301
:1021740080F83D30002380F83C30184630BD00BF65
:102184000000014090F83C30012B1FD0CB688A68D6
:1021940023F4407313434A6823F4806313430A68A7
:1021A40023F4006313430A6923F4805313434A69F5
:1021B40023F400531343CA6923F48043134302688E
:1021C4005364002380F83C3018467047022070475F
:1021D400704770470368DA6822F49072DA605A69CB
:1021E40022F001025A61202380F83A30704700003F
:1021F40038B50368C1681A69044622F440520A4398
:102204001A612569A268D968C0692A43656921F4FD
:1022140016412A4321F00C0102430A43DA605A6949
:10222400A16922F440720A43B0F5004F5A61254A6D
:1022340029D1934203D002F58062934220D1FEF764
:1022440091FF6268256892184FF000034FF019015E
:102254005B41A0FB0101FDF7D3FF6421B0FBF1F466
:1022640001FB1403DB003233B3FBF1F303F0070289
:102274005B0002EB041203F4F8731344AB6038BD43
:10228400FEF760FFDDE7934202D00F4A934216D176
:10229400FEF768FF6368256819219A00A0FB010115
:1022A4009B0FFDF7ADFF6422B0FBF2F102FB1103BB
:1022B4001B013233B3FBF2F303EB0113DEE7FEF74A
:1022C40041FFE7E7001001400014014010B5044647
:1022D40040B390F8393003F0FF021BB980F838207E
:1022E40001F0D8F92268242384F83930D36823F420
:1022F4000053D3602046FFF77BFF23681A6922F45A
:1023040090421A615A6922F02A025A61DA6842F448
:102314000052DA6000202023E06384F8393084F826
:102324003A3010BD012010BD38B50446134694F868
:102334003920202A2AD139B333B394F83820012A1A
:1023440024D0012284F83820206BE3840025212244
:10235400E56384F839200E4AA3842162C2630D4ADE
:1023640002640D4AC264226805650432FEF77AFBF2
:1023740023686FF040021A605A6984F8385042F0BA
:1023840080025A61284638BD012038BD022038BD7C
:10239400312400085F2400082B250008134690F818
:1023A4003A20202A73B5054638D1002934D0002BB1
:1023B40032D090F83820012A30D00122002480F84D
:1023C40038202222C4638162838580F83A20406BDE
:1023D400134AC2632E68134A0264134AC264046532
:1023E4000A46311DFEF73EFB2B6801941A680192E0
:1023F4005A680192019ADA6885F8384042F480728A
:10240400DA605A6942F001025A615A6942F04002A4
:102414005A61204602B070BD0120FBE70220F9E7B3
:102424006B240008212500082B25000808B5036843
:10243400826B1B6813F480730AD1D38413685A69BE
:1024440022F080025A61DA6842F04002DA6008BD84
:10245400104600F0F5FD08BD704708B5806BFFF726
:10246400FBFF08BD704708B50368826B1B6813F453
:10247400807310D1D3851368D96821F48071D96031
:10248400596921F001015961596921F040015961EB
:10249400202382F83A301046FFF7E4FF08BD90F895
:1024A4003A30222B10B536D1836801690268B3F53E
:1024B400805F836A23D15268E9B9C2F3080223F822
:1024C400022B8362C48D013CA4B2C4858CB9036819
:1024D400DA6822F02002DA60DA6822F48072DA60C4
:1024E4005A6922F001025A61202380F83A30FFF73A
:1024F400B9FF002010BDD2B223F8012BE1E721B9C6
:10250400591C526881621A70DCE75268591C816256
:1025140002F07F02F7E7022010BD704708B5806B18
:10252400FFF7FBFF08BD816B08B50B685A6991F88A
:10253400390021280AD1120608D50022CA84DA6893
:1025440022F0C002DA60202281F839205B6991F818
:102554003A20222A06D15B0604D50023CB850846FF
:10256400FFF738FECB6B43F01003CB63084600F053
:1025740015FD08BD03681A68D96870B516070446C6
:102584005D6907D196065CD58D065AD5BDE87040C5
:10259400FFF785BF15F0010502D111F4907F50D0EB
:1025A400D00705D5CB0542BFE36B43F00103E363DA
:1025B400560704D51DB1E36B43F00203E3639007B0
:1025C40004D51DB1E36B43F00403E363130706D59D
:1025D4008E0600D41DB1E36B43F00803E363E36BA1
:1025E400002B66D0950604D5880602D52046FFF751
:1025F40056FF23685D69E26B1107204602D415F08B
:1026040040051AD0FFF7E6FD23685A69520610D533
:102614005A69606B22F040025A6150B1254B036540
:10262400FEF75AFA002844D0606BBDE87040036D91
:102634001847204600F0B2FC70BD00F0AFFCE56323
:1026440070BD160627D50D0625D594F83920212A04
:102654002FD1A268B2F5805F226A17D11188C1F325
:1026640008015960216979B902322262E28C013A87
:1026740092B2E284EAB9DA6822F08002DA60DA68B7
:1026840042F04002DA6070BD0132EEE7511C216273
:1026940012785A60EAE750060BD54A0609D5DA687B
:1026A40022F04002DA60202384F83930204600F01A
:1026B400C7FC70BDBD26000808B5806B0023C38528
:1026C400C38400F06BFC08BD30B5ADB034220021EA
:1026D40008A801F0CDF91422002103A801F0C8F9DB
:1026E40000215C2215A801F0C3F90024214B0194B8
:1026F4001A6C42F080521A641B6C03F080530193ED
:10270400019B1D4B02941A6842F440421A601B68F4
:102714000A9403F440430293029B0F940A23089300
:1027240001230B930D93082310220225109308A86C
:10273400B4230C9211930E95129513951495FEF7EC
:1027440071FFFEF727FC0F23039305214FF4A053D9
:1027540003A80693079304950594FEF757FC2023DA
:10276400159315A84FF400732593FEF70BFD2DB0B8
:1027740030BD00BF00380240007000402DE98048A1
:10278400ADF5235D8BB00024B54DDFF81C83B54F48
:10279400FDF7E2FEFFF798FF1422002115A801F0CF
:1027A40067F903942B6BB04843F004032B632B6B42
:1027B40003F004030393039B04942B6B43F0800303
:1027C4002B632B6B03F080030493049B05942B6B06
:1027D40043F001032B632B6B03F001030593059B6B
:1027E40006942B6B43F002032B632B6B03F0020361
:1027F4000693069B07942B6B43F008032B632B6B08
:1028040003F00803224607930121079BFEF70AFB06
:10281400224609219548FEF705FB224641F21001A4
:102824009348FEF7FFFA4FF4005B15A98F48CDF8E3
:1028340054B0012616941794FEF71AFA15A98A487B
:102844001596169617941894FEF712FA022315A9F2
:102854008548159316941794FEF70AFA092315A9C7
:10286400824815934FF01009169617941894FEF7A2
:10287400FFF9032315A97F48CDF8549016931794B4
:10288400FEF7F6F941F2100315A979481593169647
:1028940017941894FEF7ECF902942B6B43F400138D
:1028A4002B632B6B744D03F40013224621460293D1
:1028B4000B20029BFDF7EAFF0B20FEF71BF82246D4
:1028C40021460D20FDF7E2FF0D20FEF713F8224606
:1028D40021460E20FDF7DAFF0E20FEF70BF8224604
:1028E40021460F20FDF7D2FF0F20FEF703F8224602
:1028F40021464846FDF7CAFF4846FDF7FBFF22463E
:1029040021461120FDF7C2FF1120FDF7F3FF2246F7
:1029140021462F20FDF7BAFF2F20FDF7EBFF4A4693
:10292400214615A801F0A4F8544BAC6085E81800C2
:102934002846534BAB624FF0040A2C612C7685F881
:102944002040EC62EC60EE6185F830406E61FDF78A
:1029540043FE15A92846CDF854A016961794FDF702
:10296400E1FE4848484A494B846080E80C004FF433
:102974008043C460036144618461C4610462FEF7FE
:102984005DFA4348434B046180E818007F23836069
:10299400FF23C36044618461FFF710F83E483F4958
:1029A40084604FF4827380E80A004FF400738361FB
:1029B4000A23C362C46004614461C4610462446262
:1029C4008462FFF749F84A4621460AA801F050F804
:1029D40021461C220EA80894099401F049F82022EB
:1029E400214615A82E4E01F043F82E48B460592311
:1029F40086E8090044F620633046F360346174616C
:102A0400B461FFF713FA4FF480530AA930460A93CE
:102A1400FFF7E2FA3046FFF723FA08A93046089494
:102A24000994FFF76DFB602322460E930EA940F232
:102A3400DC5330460F93109411941294139414940D
:102A4400FFF75EFA52460EA93046FFF759FA0822FC
:102A54000EA93046FFF754FA0C220EA9304625E0A1
:102A640000380240CC020020001C02400008024052
:102A740000040240000002404C03002000200140FA
:102A84000100000F9801002000540040A0860100BE
:102A94007404002000280040000100200038004099
:102AA400940400200000014014050020FFF728FAD8
:102AB40015A9304615941694179418941994CDF8C2
:102AC40068B01C94FFF75EFB304600F0CDFC4A462C
:102AD40021460EA800F0CCFF1C22214615A80A941A
:102AE4000B94592500F0C4FF4FF0804388E8280078
:102AF400404644F62063C8F80840C8F80C30C8F8CB
:102B04001040C8F81840FFF791F94FF480530EA90C
:102B140040460E93FFF760FA4046FFF7A1F90AA971
:102B240040460A940B94FFF7EBFA60232246159370
:102B340015A940F2DC534046169317941994FFF7F5
:102B4400DFF9524615A94046FFF7DAF9082215A91C
:102B54004046FFF7D5F90C2215A94046FFF7D0F9F6
:102B6400404600F081FC4A4621460EA800F080FF52
:102B74001C22214615A80A940B9400F079FFC44B3B
:102B8400BC604FF0590E87E80840384644F620638D
:102B9400FB603C61BC61FFF749F94FF480530EA917
:102BA40038460E93FFF718FA3846FFF759F90AA981
:102BB40038460A940B94FFF7A3FA60232246159330
:102BC40015A940F2DC533846169317941994FFF76D
:102BD40097F9524615A93846FFF792F9082215A924
:102BE4003846FFF78DF90C2215A93846FFF788F906
:102BF400384600F039FC21461C2215A80E940F9487
:102C040000F036FFA34AA44B1360134659225A60BE
:102C1400184644F620629C60DA601C619C61FFF7F0
:102C24001FF90EA99B480E940F94FFF769FA6023CD
:102C34002246159315A940F2DC539648169317942F
:102C44001994FFF75DF9524615A99248934DFFF781
:102C540057F9904800F008FC4A4621460AA800F0BB
:102C640007FF21461C220EA80894099400F000FFD7
:102C74002022214615A800F0FBFE894BAC604FF0E2
:102C8400590C85E80810284644F62063EB602C6153
:102C94006C61AC61FFF7CAF84FF480530AA9284667
:102CA4000A93FFF799F92846FFF7DAF808A92846A6
:102CB40008940994FFF724FA602322460E930EA980
:102CC40040F2DC5328460F931094119412941394F9
:102CD4001494FFF715F952460EA92846FFF710F988
:102CE40008220EA92846FFF70BF90C220EA9284644
:102CF400FFF706F915A92846159416941794189405
:102D04001994CDF868B01C94FFF73CFA284600F0FB
:102D1400ABFB21461C2215A800F0AAFEDFF89CB1EB
:102D2400604BCBF808404FF0590A8BE8080458462A
:102D340044F62063CBF80C30CBF81040CBF81840A5
:102D4400FFF774F85846FFF78BF86023224615A95D
:102D54001593584640F2DC53169317941994FFF7D1
:102D6400CFF8584600F080FB21461C2215A800F03D
:102D74007FFEDFF84CA14C4ACAF8084059238AE880
:102D84000C00504644F62063CAF80C30CAF81040D0
:102D9400CAF81840FFF74AF85046FFF761F8602375
:102DA400224615A91593504640F2DC531693179406
:102DB4001994FFF7A5F8504600F056FB4A46214601
:102DC4000EA800F055FEDFF8FC901C22214615A841
:102DD40000F04EFE354BC9F80840484689E8180013
:102DE400C9F80C40C9F81040C9F81840FFF71EF89C
:102DF4004FF480530EA948460E93FFF7EDF848466A
:102E0400FFF72EF86023224615A948461593169419
:102E140017941994FFF774F8484600F025FB1C2218
:102E2400214615A800F024FEDFF89C902049C9F83B
:102E34000840592389E80A00484644F62063C9F843
:102E44000C30C9F81040C9F81840FEF7EFFF4846A7
:102E5400FFF706F86023224615A91593484640F269
:102E6400DC53169317941994FFF74AF8484600F078
:102E7400FBFA104B104A1A604FF416510C221846F4
:102E840059609C60DC601C615A619C611EE000BF5B
:102E9400000400408C020020000C00405801002077
:102EA4000004014000440140004801400018004073
:102EB40000200040D4040020004C0040EC0100201D
:102EC4003404002034060020F4050020DC61009165
:102ED4000193FFF7FBF92948294A009902600C2362
:102EE40041608460C460046143618461C461FFF72C
:102EF400EDF924480099244A41600C23026084605F
:102F0400C460046143618461C461FFF7DFF91F4A4F
:102F14001F48592380E80C0044F62063C360846092
:102F240004618461FEF782FF3046FEF761FE40468D
:102F3400FEF75EFE3846FEF75BFE1648FEF758FEC7
:102F44002846FEF755FE5846FEF752FE5046FEF759
:102F54004FFE4846FEF74CFE019B15A9184600F0AB
:102F64004BF804F1804404F5013420461021FDF7A8
:102F74005EFFC820FDF71CFBF7E700BF0C03002031
:102F8400005000405405002000440040001C004054
:102F9400F40300208C020020704700001349144AF7
:102FA400F0B50023DFF84CE00D68136007461946BE
:102FB4009D421E4602D101B11560F0BD5EF823406A
:102FC4002068B84203F101030DD101B1166004F584
:102FD400025142F690031031E1504FF40062BDE813
:102FE400F040FFF7DBB90121E2E700BF3800002021
:102FF40030000020280000200B460F490A6810B456
:10300400541C0C600D495DF8044B41F8223042F227
:103014008401002218605A5042F288015A5042F248
:103024008C015A5042F6900203F502511031995026
:103034004FF40062FFF7B2B93800002028000020E6
:10304400F8B51F4A1F4D204F1168002306462B6018
:103054001A4642F28C0E994202D102B12960F8BD9F
:1030640057F823402068B04226D154F80EC0BCF172
:10307400010F21D102B12B6042F2880642F2840290
:10308400A359A2589A4212D04FF48271594363183B
:103094000431B3F804212144FFF746F92B6857F8AB
:1030A40023209359013303F01F039351F8BD42F2D7
:1030B4008C030022E250F8BD01330122CBE700BFAC
:1030C40038000020340000202800002082B00C4B7F
:1030D400002100915A6C42F480425A645A6C02F402
:1030E40080420092009A01911A6C42F080521A6454
:1030F4001B6C03F080530193019B02B0704700BF27
:103104000038024010B5044688B01422002103A8F8
:1031140000F0AEFC2268124B9A421ED103F58C33A8
:10312400002101915A6C0F4842F480725A645A6C1F
:1031340002F480720192019A02911A6B42F0010228
:103144001A631B6B03F001030293029B1023039386
:1031540003A903230493FDF78BFD08B010BD00BF42
:10316400002001400000024030B5044689B014221A
:10317400002103A800F07CFC2268144B9A4223D15E
:10318400134C144800250195236B43F00203236379
:10319400236B03F002030193019BC02303931223C7
:1031A4000493012305930323069303A9042307939C
:1031B400FDF75EFD0295236C43F400132364236C36
:1031C40003F400130293029B09B030BD0054004085
:1031D40000380240000402400268034B9A4202BFD6
:1031E400024B01221A607047002800403C0E4742FF
:1031F4002DE9F041064688B01422002103A800F00E
:1032040037FC3268304B9A425AD1002503F500331B
:1032140000951A6C2D4842F480421A641A6C02F428
:1032240080420092009A01951A6B42F004021A63DC
:103234001A6B02F004020192019A02951A6B42F091
:1032440002021A631B6B03F0020302930224032796
:10325400029B0394072303A9049407934FF00508E2
:103264000697FDF705FD042303A918480393049466
:1032740005950697CDF81C80FDF7FAFC4FF4005332
:103284001348039303A904940595124C0697CDF8AB
:103294001C80FDF7EDFC104BA56084E82800204657
:1032A4004FF48063E56023616561A561E561256292
:1032B4006562FDF759FB08B1FFF76EFEF464A6637F
:1032C40008B0BDE8F08100BF0038004000080240AB
:1032D400000402402C0200205860024000B503683C
:1032E4004C4A93428BB00ED1002301934A4B5A6C43
:1032F40042F001025A645B6C03F001030193019BE9
:103304000BB05DF804FBB3F1804F0CD100230293A2
:10331400414B1A6C42F001021A641B6C03F0010366
:103324000293029BECE73D4A93420CD100230393A2
:10333400394B1A6C42F002021A641B6C03F002034C
:103344000393039BDCE7364A934213D1324B0022AA
:103354000492596C41F0020159645B6C03F002035E
:103364000493049B11462C20FDF790FA2C20FDF7C2
:10337400C1FAC5E72B4A93420CD100230593264B8F
:103384005A6C42F400325A645B6C03F400330593C4
:10339400059BB5E7244A93420CD1002306931E4BA8
:1033A4005A6C42F480225A645B6C03F480230693C3
:1033B400069BA5E71D4A93420CD100230793164BA5
:1033C4001A6C42F040021A641B6C03F0400307932A
:1033D400079B95E7164A93420CD10F4B00220892A3
:1033E400196C41F0800119641B6C03F0800308938D
:1033F400089BB7E70F4A934282D100230993064BF7
:103404001A6C42F480721A641B6C03F4807309937F
:10341400099B75E7000001400038024000040040A9
:1034240000040140004401400048014000180040ED
:10343400001C0040002000400268094B9A4282B000
:103444000BD100230193074B1A6C42F008021A6453
:103454001B6C03F008030193019B02B0704700BF8B
:10346400000C00400038024070B5044690B01422AD
:1034740000210BA800F0FCFA23687A4A934213D186
:1034840000230093784B1A6B42F001021A631B6B02
:1034940003F001030093009B4FF470630B9302232A
:1034A4000C9301230F932BE0B3F1804F2BD103F541
:1034B4000E33002401941A6B6C4842F002021A6322
:1034C4001A6B02F002020192019A02941A6B42F002
:1034D40001021A631B6B03F001030293029B022691
:1034E40040F20C4301250BA90B930C960F95FDF7A5
:1034F400BFFB4FF400430B930C960D940E940F9561
:103504000BA95B4856E05B4A934227D1564B584877
:10351400002503951A6B42F001021A631A6B02F03C
:1035240001020392039A04951A6B42F002021A6391
:103534001B6B03F0020304930224049B0C944023AA
:103544000BA90B930F94FDF793FB23230B930C947C
:103554000D950E950F940BA944482BE0464A9342CF
:1035640010D100230593404B1A6B42F001021A63F9
:103574001B6B03F001030593059B03230B930223A9
:103584000C938FE73D4A934218D100230693364BA0
:103594003B481A6B42F004021A631B6B03F00403EA
:1035A4000693069B4FF470730B9302230C9303232F
:1035B4000F930BA9FDF75CFB10B070BD314A934229
:1035C40013D100230793284B1A6B42F002021A63AB
:1035D4001B6B03F002030793079B4FF480730B9359
:1035E40002230C9303230F93B5E7274A93420ED18A
:1035F400002308931C4B1A6B42F002021A631B6BE4
:1036040003F002030893089B4FF40073E7E71F4A93
:10361400934212D100230993134B1A6B42F0020216
:103624001A631B6B03F002030993099B4FF4804355
:103634000B9302230C930923D5E7154A9342BBD17C
:1036440000230A93084B1A6B42F001021A631B6BA6
:1036540003F001030A930A9B80230B9302230C9328
:1036640009231FE700000140003802400004024023
:103674000000024000040040000C0040000401402F
:103684000008024000440140004801400018004086
:10369400002000402DE9F04305468DB0142200219E
:1036A40007A800F0E5F92B688C4A934261D1002603
:1036B4008B4B00961A6C8B488B4C42F400221A6494
:1036C4001A6C02F400220092009A01961A6B42F0DE
:1036D40004021A631B6B03F004030193019B4FF470
:1036E40040630793022308930123099303230A9356
:1036F40007A908230B93FDF7BBFA7C4BA6604FF098
:10370400006884E8080120464FF48063E660236182
:103714006661A661E66126626662FDF725F908B175
:10372400FFF73AFC6C63724BA563724C4FF0006C6C
:103734004FF0400E84E808504FF480620023204686
:10374400E36022616361A361E36123626362FDF765
:103754000BF908B1FFF720FC00222C63342011463A
:10376400A563FDF793F83420FDF7C4F80DB0BDE868
:10377400F083614A934271D10026594B02961A6C28
:10378400584842F480121A641A6C02F480120292AD
:10379400029A03961A6B42F004021A631A6B02F03F
:1037A40004020392039A04961A6B42F008021A6305
:1037B4001B6B03F0080304930824049B0B944FF43D
:1037C40080534FF002094FF00108032707A907931C
:1037D400CDF82090CDF824800A97FDF749FA042308
:1037E40007A9464807930B94CDF82090444CCDF894
:1037F40024800A97FDF73CFA4249A6604FF0006323
:1038040084E80A0020464FF48063E6602361666121
:10381400A661E66126626662FDF7A6F808B1FFF7C5
:10382400BBFB6C63384BA563384C23604FF00063DB
:1038340063604023A3604FF480620023E36022614D
:103844006361A361E361236263622046FDF78CF840
:1038540008B1FFF7A1FB2C63A56387E72C4A9342C9
:1038640084D100261E4B05961A6C2A482A4C42F431
:1038740000321A641A6C02F400320592059A069614
:103884001A6B42F001021A631B6B03F001030693E7
:10389400069B0C2307930223089303230A9307A987
:1038A40007230B93FDF7E4F91C4AA6604FF000636D
:1038B40084E80C0020464FF48063E660236166616F
:1038C400A661E66126626662FDF74EF808B1FFF76D
:1038D40063FB6C63124BA563124CA6E7004C0040DB
:1038E40000380240000802404000002040600240CE
:1038F400706002407406002000500040000C02403A
:103904009405002010600240B8600240D4060020F4
:103914000044004000000240A000002088600240F3
:10392400A0600240940300207047FEE7FEE7FEE734
:10393400FEE7704770477047FCF728BE0148FDF763
:10394400DDB800BF940500200148FDF7D7B800BFDB
:10395400400000200148FDF7D1B800BF2C02002030
:103964000148FDF7CBB800BF740600200148FDF7FD
:10397400C5B800BFA00000200148FDF7BFB800BFD4
:103984009403002008B50448FEF747F90348BDE84E
:103994000840FEF742B900BF58010020F40300209C
:1039A4000148FDF7ABB800BFD40600200148FEF77C
:1039B400E1BD00BFD4040020054BD3F8882042F4B5
:1039C4007002C3F888204FF000629A60704700BF0D
:1039D40000ED00E0DFF834D0002103E00C4B5B582D
:1039E400435004310B480C4B42189A42F6D30B4A0D
:1039F40002E0002342F8043B094B9A42F9D3FFF753
:103A0400DBFF00F011F8FEF7B9FE7047000002205A
:103A1400CC3A0008000000200C0000200C0000201C
:103A240034070020FEE7000070B50D4E0D4CA41BBA
:103A3400A4100025A54209D10B4E0C4C00F020F82F
:103A4400A41BA4100025A54205D170BD56F825304D
:103A540098470135EEE756F8253098470135F2E7E7
:103A6400C43A0008C43A0008C43A0008C83A000836
:103A740002440346934200D1704703F8011BF9E75F
:103A8400F8B500BFF8BC08BC9E467047F8B500BF47
:083A9400F8BC08BC9E46704717
:103A9C0000061016000610160000000000000000C2
:103AAC0001020304060708090000000001020304D8
:083ABC0078C7FF7F0100000044
:043AC400E90100080C
:043AC800C50100082C
:0C3ACC0001000000100000000024F400C5
:04000005080039D9DD
:00000001FF
