:020000040800F2
:1000000000000220BD390008CD380008CF380008B4
:10001000D1380008D3380008D538000800000000A7
:10002000000000000000000000000000D7380008B9
:10003000D938000800000000DB380008DD3800086F
:100040000D3A00080D3A00080D3A00080D3A000874
:100050000D3A00080D3A00080D3A00080D3A000864
:100060000D3A00080D3A00080D3A0008E138000882
:100070000D3A0008ED380008F93800080539000885
:10008000113900081D3900080D3A00080D3A000822
:100090000D3A00080D3A00080D3A00080D3A000824
:1000A0000D3A00080D3A00080D3A00080D3A000814
:1000B0000D3A00080D3A00080D3A00080D3A000804
:1000C0000D3A00080D3A00080D3A00080D3A0008F4
:1000D0000D3A00080D3A00080D3A00080D3A0008E4
:1000E0000D3A00080D3A00080D3A00080D3A0008D4
:1000F0000D3A00080D3A00080D3A000829390008A9
:100100000D3A00080D3A00080D3A00080D3A0008B3
:10011000353900080D3A00080D3A00080D3A00087C
:100120000D3A00080D3A00080D3A00080D3A000893
:100130000D3A000800000000000000000D3A000821
:100140000D3A00080D3A00080D3A00080D3A000873
:100150000D3A00080D3A00080D3A00080D3A000863
:100160000D3A00080D3A00080D3A00080D3A000853
:100170000D3A00080D3A00080D3A00080000000092
:10018000000000000D3A0008000000000000000020
:100190000D3A000800000000000000000D3A0008C1
:1001A0000000000000000000000000000D3A000800
:1001B0000D3A00080D3A00080D3A00080D3A000803
:0401C0000D3A0008EC
:1001D00010B5054C237833B9044B13B10448AFF381
:1001E00000800123237010BD70000020000000007B
:1001F000B042000808B5034B1BB103490348AFF3F5
:10020000008008BD0000000074000020B04200081B
:1002100001F0FF01102A2BDB10F0070F08D010F8B7
:10022000013B013A8B422DD010F0070F42B3F6D1BB
:10023000F0B441EA012141EA014122F007047FF0D4
:1002400000070023F0E80256083C85EA010586EA2B
:10025000010685FA47F5A3FA87F586FA47F6A5FA67
:1002600087F68EB9EED1F0BC01F0FF0102F0070273
:1002700032B110F8013B013A83EA010313B1F8D11E
:100280000020704701387047002D06BF35460338FF
:10029000073815F0010F07D1013015F4807F02BF38
:1002A000013015F4C03F0130F0BC0138704700BF89
:1002B00053B94AB9002908BF00281CBF4FF0FF31CD
:1002C0004FF0FF3000F07AB9ADF1080C6DE904CEC3
:1002D00000F006F8DDF804E0DDE9022304B0704721
:1002E0002DE9F0478C460D460446089E002B51D15F
:1002F0008A4217466DD9B2FA82FEBEF1000F0BD0CA
:10030000CEF1200C01FA0EF520FA0CFC02FA0EF7E1
:100310004CEA050C00FA0EF44FEA174A250CBCFB18
:10032000FAF81FFA87F90AFB18CC45EA0C4508FBD6
:1003300009F3AB420AD9ED1908F1FF3280F02381AD
:10034000AB4240F22081A8F102083D44ED1AA4B26C
:10035000B5FBFAF00AFB105544EA054400FB09F925
:10036000A14509D9E41900F1FF3380F00A81A145C4
:1003700040F2078102383C44A4EB090440EA0840FB
:100380000021002E61D024FA0EF400233460736043
:10039000BDE8F0878B4207D9002E54D0002186E8B3
:1003A00021000846BDE8F087B3FA83F1002940F048
:1003B0008E80AB4202D3824200F2FA80841A65EB4F
:1003C00003050120AC46002E3FD086E81010BDE8A2
:1003D000F08712B90127B7FBF2F7B7FA87FEBEF133
:1003E000000F34D1EB1B3A0C1FFA87FC0121B3FB41
:1003F000F2F8250C02FB183345EA03450CFB08F321
:10040000AB4207D9ED1908F1FF3002D2AB4200F23E
:10041000D1808046ED1AA3B2B5FBF2F002FB105575
:1004200043EA05440CFB00FCA44507D9E41900F19C
:10043000FF3302D2A44500F2B8801846A4EB0C04A6
:1004400040EA08409DE731463046BDE8F087CEF1EE
:10045000200405FA0EF307FA0EF720FA04F83A0C16
:1004600025FA04F448EA0308B4FBF2F14FEA184510
:1004700002FB11441FFA87FC45EA044501FB0CF31B
:10048000AB4200FA0EF409D9ED1901F1FF3080F00A
:100490008A80AB4240F2878002393D44EB1A1FFA52
:1004A00088F5B3FBF2F002FB103345EA034500FB8D
:1004B0000CF3AB4207D9ED1900F1FF386FD2AB4214
:1004C0006DD902383D44EB1A40EA01418FE7C1F192
:1004D000200722FA07F88B4005FA01F448EA0303E3
:1004E00020FA07FE4FEA134CFD404EEA040EB5FB1E
:1004F000FCF94FEA1E440CFB19551FFA83F844EA35
:10050000054509FB08F4AC4202FA01F200FA01FACF
:1005100008D9ED1809F1FF3043D2AC4241D9A9F115
:1005200002091D442D1B1FFA8EFEB5FBFCF00CFBCF
:1005300010554EEA054400FB08F8A04507D9E41819
:1005400000F1FF3529D2A04527D902381C4440EAE2
:100550000940A4EB0804A0FB02894C45C6464D4661
:1005600015D312D056B1BAEB0E0364EB050404FAAE
:1005700007F7CB401F43CC40376074600021BDE8D3
:10058000F0871846F8E69046E0E6C245EAD2B8EBB6
:10059000020E69EB03050138E4E72846D7E7404639
:1005A00091E78146BEE7014678E702383C4445E7DB
:1005B000084608E7A8F102083D442BE7704700BF52
:1005C00038B50E4A0E4B054618784FF47A73B3FBD4
:1005D000F0F31068B0FBF3F000F0F2F9044658B9FC
:1005E0000F2D09D8024629464FF0FF3000F0A6F93A
:1005F000044B20461D6038BD012038BD0800002096
:10060000000000200400002008B50B4B1A6842F4DB
:1006100000721A601A6842F480621A601A6842F422
:1006200080721A60032000F077F90020FFF7C8FFFE
:1006300002F038FD002008BD003C0240034A044B94
:1006400011681B780B441360704700BFAC0000209A
:1006500000000020014B1868704700BFAC0000206C
:1006600038B50446FFF7F6FF631C1CBF054B1B782B
:10067000054618BFE418FFF7EDFF401B8442FAD887
:1006800038BD00BF0000002038B50446002800F047
:100690009B80056C25B902F021FD656484F83C500F
:1006A000236CDB0600F18E80236C23F4885323F047
:1006B000020343F002032364444B5A6822F440329D
:1006C0005A605A6861680A435A60236821695A6807
:1006D00022F480725A605A6842EA01225A605A68CB
:1006E000A16822F040725A605A680A435A609A68B8
:1006F000E16822F400629A609A680A439A60344979
:10070000A26A8A4252D0996821F070619960996812
:100710000A439A609A68E16A22F040529A609A68A5
:100720000A439A609A68217E22F002029A609A68CF
:1007300042EA41029A6094F82020002A3ED05A688A
:10074000616A42F400625A605A6822F460425A6058
:100750005A68013942EA41325A60DA6AE16922F4A0
:100760007002DA62DA6A013942EA0152DA629A68A0
:1007700094F8301022F400729A609A6842EA41229A
:100780009A609A68616922F480629A609A6800208F
:1007900042EA81229A606064236C23F0030343F0F1
:1007A00001032364002384F83C3038BD9A6822F0AA
:1007B00070629A609A6822F04052B2E75A6822F456
:1007C0000062C9E70120EDE7012038BD00230140A8
:1007D0000100000FF7B50023019390F83C30012B86
:1007E0006ED00D6804688A680123092D80F83C30BA
:1007F000AEB22AD906EB4603E7681E3B4FF0070E60
:100800000EFA03FE27EA0E07E760E76802FA03F331
:100810003B43E3604A68062A4FEA820325D8134423
:10082000676B591F1F238B4027EA03036363626BC7
:1008300006FA01F111436163324B9C4234D000232C
:1008400080F83C30184603B0F0BD276905EB45033E
:100850004FF0070E0EFA03FE27EA0E0727612769FD
:1008600002FA03F33B432361D4E70C2A0ED8134466
:10087000216BA3F123021F23934021EA0303236387
:10088000236B06FA02F21A432263D5E71344E16AA6
:10089000413B1F229A4021EA0202E262E26A06FA22
:1008A00003F11143E162C7E7122D0BD1164B5A68D1
:1008B00022F400025A605A6842F480025A60BEE78D
:1008C0000220C0E7114B9D4201D0112DB7D10E4B34
:1008D0005A6822F480025A605A6842F400025A6050
:1008E0000A4B9D42ABD10A4B0A4A1B68B3FBF2F29A
:1008F0000A2353430193019B002BA0D0019B013B92
:10090000F8E700BF00200140002301401200001062
:100910000800002040420F00074AD36823F4E06338
:100920001B041B0C43F0BF63000243F4003300F4CC
:10093000E0600343D360704700ED00E0174B30B533
:10094000DC68C4F30224C4F10703251D042B28BF6F
:100950000423062D4FF0010505FA03F303F1FF33DD
:100960008CBF033C00241940A14005FA04F4013C6B
:100970002240002842EA01024FEA0212ADBF00F114
:10098000604000F00F00064B00F56140B5BFD2B2E9
:10099000D2B21A5480F8002330BD00BF00ED00E051
:1009A00014ED00E0002808DB4209012300F01F00DD
:1009B00003FA00F0014B43F82200704700E100E029
:1009C0000138B0F1807F0AD2064B074A5860F02107
:1009D00082F823100020072298601A6070470120D7
:1009E000704700BF10E000E000ED00E00368DAB2FD
:1009F00023F47F7323F003031821103AB2FBF1F2C2
:100A00000449032A88BF0433895C8365C165806D0E
:100A1000704700BFC842000870B50446FFF71AFED1
:100A20000546002C71D0002384F83430226802235C
:100A300084F83530136823F00103136021680B68D4
:100A4000D8073CD40B68324D6268A0691D40A3688A
:100A50001343E26813432269134362691343E26953
:100A600003431343226A1343626A042A43EA0503D9
:100A700001BF266BE56A35432B430B604B69042AA3
:100A800023F0070343EA02030BD1A26AE56A13438A
:100A90003DB1F8B9012A2DD001D3022A01D1EA01D2
:100AA0002BD44B612046FFF7A1FFE26D3F2393401B
:100AB000836000200123606584F8353070BDFFF746
:100AC000C9FD401B0528B9D920236365032084F89C
:100AD000350070BDB0F5005F13D1032AE1D801A045
:100AE00050F822F0FB0A00089F0A0008FB0A0008E1
:100AF000F50A0008B5F1C07FD3D14023636501201A
:100B0000E5E7022AF9D9032AC8E7012070BD00BF32
:100B10003F8010F070B590F83440012C32D00124A1
:100B200080F8344090F83540866D012C4FF0000578
:100B30004FF0020424D180F83540046845652568EB
:100B400025F48025256063608368402B0EBFA2607A
:100B5000A160E260C26D08BFE1603F239340B360D3
:100B6000236843F016032360036C1BB1236843F032
:100B700008032360236843F001032360002070BD55
:100B800080F83450022070BD90F83530022B03D02D
:100B900080234365012070470268052380F83530C3
:100BA000136823F00103136000207047F7B500239A
:100BB00001935A4B856D1F68C36D2E6808229A40B9
:100BC000164204460CD001680868400708D508683A
:100BD00020F004000860AA60626D42F001026265C4
:100BE00001229A40164208D021684969090641BF8E
:100BF000AA60626D42F00202626504229A401642C7
:100C000008D021680968880741BFAA60626D42F078
:100C10000402626510229A40164210D023681968B7
:100C200009070CD5AA601A68500335D51B6819034B
:100C300001D4236C00E0A36C0BB120469847E16D12
:100C400020228A40164238D023681868C60634D558
:100C5000AA6094F83520052A1A6825D122F01602D8
:100C60001A605A6922F080025A61226C0AB9A26C99
:100C70001AB11A6822F008021A603F238B40AB6059
:100C8000002384F83430012384F83530236D0BB110
:100C90002046984703B0F0BD1A68D2055EBF1A68B7
:100CA00022F008021A60C4E7500328D51B68190314
:100CB00032D4636C0BB120469847636D002BE9D0AA
:100CC000636DDA0719D50523226884F83530136877
:100CD00023F0010313604FF41653B7FBF3F7019BA6
:100CE00001339F42019302D31368DB07F7D400233B
:100CF00084F83430012384F83530E36CC7E71A6890
:100D000012F4807208D1196821F0100119600123D2
:100D100084F8342084F83530E36BCBE708000020FA
:100D20002DE9F04F85B00B68DFF8A081654ADFF848
:100D3000A091019300230124019D9C402540AC42D9
:100D400040F0AC804C6824F0100C0CF1FF36012E02
:100D50004FEA430E12D88768032606FA0EF627EAF2
:100D60000607CE6806FA0EF63E4386604768C4F36F
:100D7000001627EA05079E403E4346600326C768E3
:100D800006FA0EF6F64307EA060A8F6807FA0EF728
:100D900047EA0A07BCF1020FC76016D14FEAD30A2F
:100DA00000EB8A0A03F0070BDAF820704FEA8B0B8E
:100DB0004FF00F0C0CFA0BFC27EA0C0C0F6907FA2A
:100DC0000BF747EA0C07CAF8207007683E4004F0AA
:100DD000030707FA0EFE4EEA06060660E6005DD53A
:100DE0004FF0000BCDF80CB0D8F84470364E47F4F5
:100DF0008047C8F84470D8F8447007F480470397D8
:100E0000039F23F0030707F1804707F59C3703F0A2
:100E1000030CD7F808A04FEA8C0C4FF00F0E0EFA17
:100E20000CFEB0422AEA0E0E3FD006F58066B042B4
:100E30003DD006F58066B0423BD006F58066B042F4
:100E400039D006F58066B04237D0484537D006F530
:100E50000066B04214BF0726062606FA0CF646EADC
:100E60000E06BE601668EF4314F4803F0CBF3E4090
:100E70002E431660566814F4003F0CBF3E402E43CC
:100E80005660966814F4801F0CBF3E402E43966057
:100E9000D668A40254BF3E402E43D6600133102BC7
:100EA0007FF449AF05B0BDE8F08F5E46D5E7012677
:100EB000D3E70226D1E70326CFE70426CDE70526B0
:100EC000CBE700BF003C0140000002400038024078
:100ED000001402400AB1816170470904FBE7000079
:100EE00070B5044608B9012070BD90F83D3003F09C
:100EF000FF021BB980F83C2002F022F9242384F879
:100F00003D3023681A6822F001021A601A6842F420
:100F100000421A601A6822F400421A6000F064F974
:100F20006568414B9D424DD8404B9842DBD92268C1
:100F30003F495368B0FBF1F123F03F030B4353608B
:100F4000136A23F03F03013119431162D169364B13
:100F500021F44F419D4221F0FF0100F1FF3048D8BC
:100F60006D00B0FBF5F00130C0F30B03042B38BF6C
:100F700004230B43D3611168206AE36921F0C001A7
:100F800003430B4313609168E068236921F4034134
:100F9000034321F0FF010B439360D168A0696369AB
:100FA00021F0FF0103430B43D360136843F00103B7
:100FB000136000202023206484F83D30206384F8EF
:100FC0003E0070BD1B4B98428DD92268184E536865
:100FD000B0FBF6F623F03F0333435360136A4FF43C
:100FE0009671714323F03F034FF47A76B1FBF6F12B
:100FF000A9E7A36853B905EB4503B0FBF3F0431C25
:10100000C3F30B036BB143F40043B2E719236B4303
:10101000B0FBF3F0431CC3F30B0313B143F44043A1
:10102000A7E70123A5E700BFA08601007F841E007B
:1010300040420F00FF083D0037B500230193184BD5
:10104000184C1A6C42F080521A641B6C03F08053E7
:101050000193019B144B01221A60FFF7FBFA05462E
:101060006368DA030BD5114B0E4C01221A60FFF7AF
:10107000F1FA054663689B030AD5002006E0FFF7F6
:10108000E9FA401BB0F57A7FEAD9032003B030BDFE
:10109000FFF7E0FA401BB0F57A7FEBD9F5E700BF28
:1010A000003802400070004040000E4244000E42F2
:1010B0002DE9F0410D46044610B90120BDE8F0814C
:1010C000444B1A6802F00F028A4229D321688F0725
:1010D0002ED4C80741D43F4B1A6802F00F02954244
:1010E00067D3226851076DD4130707D53A4A21699F
:1010F000936823F4604343EAC103936000F09CFAD1
:10110000354B364A9B68C3F30313D35CD840344B4A
:101110001860344B1868FFF753FA0020BDE8F081DF
:10112000CAB21A701B6803F00F039942C5D1CDE70C
:10113000294B11F0040F1EBF9A6842F4E0529A60E6
:101140000E0742BF9A6842F460429A609A68A068AB
:1011500022F0F00202439A60BBE762681E4B012A4C
:101160001DD11B6813F4003FA7D01B4EB36823F0BA
:1011700003031343B360FFF76DFA41F28838074663
:10118000B368626803F00C03B3EB820FA3D0FFF7E0
:1011900061FAC01B4045F3D90320BDE8F081911EE0
:1011A00001291B6802D813F0007FDDE713F0020F5E
:1011B000DAE7EAB21A701B6803F00F039D427FF46E
:1011C0007CAF8EE70449E0688B6823F4E053034367
:1011D0008B6089E7003C024000380240EE42000884
:1011E0000800002004000020044B054A9B68C3F35C
:1011F0008223D35C034A1068D8407047003802400D
:10120000FE42000808000020044B054A9B68C3F317
:101210004233D35C034A1068D8407047003802401C
:10122000FE4200080800002003682DE9F74313F090
:10123000010604460BD0AA49866BD1F88C2022F017
:10124000C0623243B6FA86F6C1F88C2076099D0753
:101250000BD5A348E16BD0F88C2022F0C0520A4392
:101260000029C0F88C2008BF012613F0040512D015
:101270009B49256BD1F88C20B5F5801F22F44012D4
:1012800042EA050218BFB5FA85F5C1F88C2012BFF5
:101290006D090025012618070FD59148616BD0F81C
:1012A0008C2022F440020A43B1F5800FC0F88C2054
:1012B00000F00981002908BF0125990633D50023D4
:1012C0000193874B874F1A6C42F080521A641B6C53
:1012D00003F080530193019B3B6843F480733B60B0
:1012E000FFF7B8F980463B68DA0540F1EE807C4FA5
:1012F0003B6F13F4407340F0FB80236C03F44072A7
:10130000B2F5407F764A40F01681916823F0704034
:1013100021F4F81120F4407001439160116FC3F380
:101320000B030B4313672368D90642BF6E4B94F837
:1013300058201A6023681A0608D56949E06CD1F86C
:10134000942022F440020243C1F894205F0608D59D
:101350006349A06CD1F8942022F080620243C1F866
:101360009420D8050CD55E48616DD0F8942022F009
:1013700000620A43B1F1006FC0F8942008BF012554
:10138000990508D55649606CD1F8942022F0805216
:101390000243C1F894205A0500F1D180012E40F09B
:1013A000DC80524E4E4F00233360FFF753F98046E6
:1013B0003B681B0100F125812268D00701D5A36B92
:1013C0001BB1910715D5E36B9BB94549D1F8843022
:1013D000D1F8840003F4403300F070600343606888
:1013E0000343A06843EA8013606943EA0073C1F8CD
:1013F0008430530703D5236BB3F5801F05D017073F
:1014000020D5636BB3F5800F1CD13549D1F88430FA
:10141000D1F8840003F4403300F0E04003436068F7
:101420000343A06843EA8013206943EA0063C1F8DC
:101430008430D1F88C00A36A20F01F00013B0343E5
:10144000C1F88C3050051BD5236DB3F1005F17D167
:1014500023486768D0F88410D0F8843003F0E04364
:101460003B43A768C1F30141013143EA871343EAD3
:101470004163E1684908013943EA0143C0F8843017
:10148000110511D52369A2681B0643EA821362681D
:101490001343626943EA0273E2685208013A43EA7D
:1014A00002430F4AC2F8843001233360FFF7D2F8B9
:1014B0000B4E074633681A0153D4FFF7CBF8C01B15
:1014C0000228F7D908E00126F7E6FFF7C3F8A0EBFA
:1014D000080002287FF607AF032003B0BDE8F083C1
:1014E0000038024000700040E01147426800474267
:1014F000226C02F4407293423FF4FFAE3B6F4B4AC2
:101500000121116023F44073002111603B673B6FA0
:10151000DB077FF5F2AEFFF79DF841F28839804690
:101520003B6F98073FF5E9AEFFF794F8A0EB080092
:101530004845F5D9D0E7916821F4F811EDE63C482B
:10154000216DD0F8942022F000520A43B1F1005FDF
:10155000C0F894207FF422AF23E7B3F5006F3FF487
:1015600020AF012D4BD1334D314E00232B60FFF7BF
:1015700071F8074633689B004BD421684E0701D5AC
:10158000236B1BB108071AD5636BC3B9284AA0693E
:10159000D2F8883003F440330343E06943EA801310
:1015A000606A43EA0063C2F88830D2F88C30E06A9F
:1015B00023F4F853013843EA0023C2F88C30CA05FB
:1015C00014D5636DB3F1006F10D11949A269D1F838
:1015D000883003F070631343E26943EA8213226A9E
:1015E0005208013A43EA0243C1F8883001232B60D4
:1015F000FFF730F80E4C054623689B000FD50020FE
:101600006BE7FFF727F8A0EB080002287FF6D0AEC3
:1016100062E7FFF71FF8C01B0228ABD95CE7FFF7B2
:1016200019F8401B0228E7D956E700BF400E474291
:101630000038024070004742204908B58B6803F02B
:101640000C03082B07D00C2B20D01D4A1D48042B5F
:1016500018BF104608BD4A684B68496813F48003F8
:1016600014BF18481648C1F3881118BF002302F0B0
:101670003F02A1FB0001FEF71BFE104B5B68C3F3AA
:10168000014301335B00B0FBF3F008BD4A684B68CF
:10169000496813F4800314BF0A480948C1F388114C
:1016A00018BF002302F03F02A1FB0001FEF700FE7D
:1016B000024B5B68C3F30273E5E700BF00380240EA
:1016C0000024F40040787D0103682DE9F341DF0731
:1016D000044610D423689E0767D423681A0700F1D4
:1016E000B28023685B0700F1D080A269002A40F035
:1016F000398100201EE0974B9A6802F00C02042A00
:1017000010D09A6802F00C02082A02D15B685D02D0
:1017100008D4904B9A6802F00C020C2A0DD15A683A
:1017200050020AD58B4B1B689903D3D56368002BF5
:10173000D0D1012002B0BDE8F0816268B2F5803FEF
:1017400011D11A6842F480321A60FEF783FF814D8E
:1017500006462B689A03BDD4FEF77CFF801B6428E5
:10176000F7D90320E6E77B4DB2F5A02F2B6807D110
:1017700043F480232B602B6843F480332B60E4E731
:1017800023F480332B602B6823F480232B60002A02
:10179000DBD1FEF75FFF06462B689B039AD5FEF769
:1017A00059FF801B6428F7D9DBE76A4B9A6812F06F
:1017B0000C0F10D09A6802F00C02082A02D15B6864
:1017C0005F0208D5634A936803F00C030C2B11D118
:1017D00053685E020ED45F4B1A68950702D5E26823
:1017E000012AA6D11A68216922F0F80242EAC10250
:1017F0001A6072E7E268584BB2B101221A60FEF734
:1018000029FF544D06462B68980707D52B68226997
:1018100023F0F80343EAC2032B605EE7FEF71AFFEA
:10182000801B0228EFD99CE71A60FEF713FF494D91
:1018300006462B6899077FF550AFFEF70BFF801B1C
:101840000228F6D98DE76269444B7AB101221A6009
:10185000FEF700FF3F4D06466B6F9F073FF541AF18
:10186000FEF7F8FE801B0228F6D97AE71A60FEF729
:10187000F1FE384D06466B6F98077FF532AFFEF7E5
:10188000E9FE801B0228F6D96BE7324B1A6C12F086
:10189000805228D101921A6C42F080521A641B6C5B
:1018A00003F080530193019B01262D4D2B68D90530
:1018B0001BD5A368274D012B27D12B6F43F00103C4
:1018C0002B67FEF7C7FE234D074641F288382B6F82
:1018D0009B0739D5002E3FF408AF1E4A136C23F046
:1018E0008053136401E70026DFE72B6843F480731D
:1018F0002B60FEF7AFFE07462B68DA05D9D4FEF75A
:10190000A9FEC01B0228F7D92BE7052B04D12B6FAA
:1019100043F004032B67D0E72A6F22F001022A6705
:101920002A6F22F004022A67002BCAD1FEF792FE2A
:1019300041F2883807462B6F9807CBD5FEF78AFE11
:10194000C01B4045F7D90CE7FEF784FEC01B40459D
:10195000BDD906E70038024000004742800E4742EA
:1019600000700040234DAB6803F00C03082B3FF4DC
:10197000E0AE214E0023022A33602DD1FEF76AFE2D
:1019800007462B68990121D4226AE3691343626AEE
:1019900043EA8213E26A43EA0263226B43EA027378
:1019A000A26A144C5208013A43EA02436B600123D5
:1019B0003360FEF74FFE054623689A013FF599AE66
:1019C000FEF748FE401B0228F6D9CAE6FEF742FEA3
:1019D000C01B0228D5D9C4E6FEF73CFE04462B689E
:1019E0009B017FF586AEFEF735FE001B0228F6D977
:1019F000B7E600BF0038024060004742026838B5D1
:101A0000D36823F0A003D3600446FEF723FE054607
:101A10002368DB689B0601D5002038BDFEF71AFE5F
:101A2000401BB0F57A7FF3D9032038BD38B5036881
:101A3000DA685206044601D5002038BD4FF0FF3267
:101A4000DA60FEF707FE05462368DB685B06F3D421
:101A5000FEF700FE401BB0F57A7FF5D9032038BDB4
:101A600038B50446B8B1437F03F0FF0213B90277DB
:101A700001F09EFB022363772368CA225A62532235
:101A80005A622046FFF7D2FF2368054628B1FF229D
:101A90005A620423637701252EE09A68206922F4B4
:101AA000E00222F040029A6062689968024360692D
:101AB00002430A439A60E2681A611A69A16842EA1D
:101AC00001421A61DA6822F08002DA609B689B06A4
:101AD00005D42046FFF792FF08B12368D7E72368B3
:101AE000A1691A6C22F480221A641A6C0A431A64DF
:101AF000FF225A6201236377284638BD10B5044699
:101B0000002836D00023836290F8513003F0FF02A2
:101B10001BB980F8502001F057FB2168A068A2692A
:101B2000022384F851300B6823F040030B60636894
:101B30000343E06803432069034360690343E069AA
:101B40000343206A0343A06A034302F40070034383
:101B50000B60120C636A02F004021A434A60CB69FC
:101B600023F40063CB6100200123606584F85130C9
:101B700010BD012010BD0000036A23F001030362C1
:101B8000036A70B5446882690D6822F073022A43C3
:101B90008D6823F002032B430E4DA84202D00E4E57
:101BA000B04210D1CE6823F008033343A84223F09B
:101BB000040302D0084DA84205D14D698E6924F472
:101BC000407435432C43446082614A684263036237
:101BD00070BD00BF0000014000040140036A23F40F
:101BE00080730362036A70B54468C2690D6822F0AD
:101BF00073022A438D6823F4007343EA0523114DD1
:101C0000A84203D005F58065A84214D1CD6823F41D
:101C1000006343EA05230B4DA84223F4806303D0FD
:101C200005F58065A84206D14D698E6924F44054BB
:101C3000354344EA05144460C2614A68C2630362E2
:101C400070BD00BF00000140036A23F480530362AB
:101C5000036A30B54468C2690D6822F4E64242EA7C
:101C600005228D6823F4005343EA0533084DA8424A
:101C700003D005F58065A84204D14D6924F4804461
:101C800044EA85144460C2614A680264036230BD5C
:101C900000000140304A0368904212D0B0F1804FFA
:101CA0000FD0A2F57C4290420BD002F580629042A8
:101CB00007D002F58062904203D002F5784290424C
:101CC00019D14A6823F070031343234A904229D064
:101CD000B0F1804F26D0A2F57C42904222D002F58E
:101CE000806290421ED002F5806290421AD002F5C6
:101CF0007842904216D0194A904213D002F5806281
:101D000090420FD002F5806290420BD0A2F598323B
:101D1000904207D002F58062904203D002F58062C3
:101D2000904203D1CA6823F4407313434A6923F0F5
:101D30008003134303608B68C3620B688362064BA6
:101D4000984203D003F58063984201D10B69036385
:101D500001234361704700BF000001400040014083
:101D600010B50446A0B190F83D3003F0FF021BB956
:101D700080F83C2001F09EFA022384F83D30206870
:101D8000211DFFF787FF012384F83D30002010BD9F
:101D9000012010BD10B50446A0B190F83D3003F00D
:101DA000FF021BB980F83C2001F018FB022384F8E5
:101DB0003D302068211DFFF76DFF012384F83D3081
:101DC000002010BD012010BD036A23F01003036240
:101DD000036A70B5446882690D6822F4E64242EAFB
:101DE00005228D6823F0200343EA0513104DA84215
:101DF00003D005F58065A84214D1CD6823F0800397
:101E000043EA05130A4DA84223F0400303D005F529
:101E10008065A84206D14D698E6924F4406435433B
:101E200044EA8504446082614A688263036270BD4B
:101E30000000014038B590F83C30012B04464FF0CB
:101E4000020025D0012384F83C3084F83D000C2AA0
:101E500018D8DFE802F0071717171E1717172F17E4
:101E6000171740002068FFF787FE236809699A6901
:101E700042F008029A619A6922F004029A619A6912
:101E80000A439A610123002084F83D3084F83C0025
:101E900038BD2068FFF798FF236809699A6942F402
:101EA00000629A619A6922F480629A619A6942EAB0
:101EB0000122E6E72068FFF791FE23680969DA69E5
:101EC00042F00802DA61DA6922F00402DA61DA69C2
:101ED0000A43DA61D6E72068FFF7B6FE236809698E
:101EE000DA6942F40062DA61DA6922F48062DA6166
:101EF000DA6942EA0122ECE710B584680A4324F467
:101F00007F4442EA03232343836010BD90F83C30B2
:101F1000012B70B504464FF0020019D084F83D0043
:101F20002068012384F83C30836823F47F4323F046
:101F3000770383600B68402B65D015D8102B0CD02D
:101F400007D853B10123002084F83D3084F83C00C9
:101F500070BD202B01D0302BF4D1826843F00703F1
:101F600022F0700213431AE0602B34D019D8502BA2
:101F7000E8D14A68CE68016A056A25F00105056264
:101F8000836921F00A0123F0F00343EA06130A43B0
:101F900083610262836823F0700343F05703836018
:101FA000D0E7702B0CD0B3F5005FCBD1CB684A687B
:101FB0008968FFF7A1FF2268936843F4804308E033
:101FC000CB684A688968FFF797FF2268936843F0F7
:101FD00077039360B6E74D68CE68016A21F010017F
:101FE00001628269036A22F4704223F0A00343EA8B
:101FF000051342EA063282610362836823F07003AC
:1020000043F06703CBE74A68CE68016A056A25F0AA
:1020100001050562836921F00A0123F0F00343EA18
:1020200006130A4383610262836823F0700343F05E
:102030004703B4E790F83C30012B30B54FF0020372
:1020400035D080F83D3003680D685C6824F070047A
:1020500001222C4380F83C209A685C60154CA34216
:102060001AD0B3F1804F17D0A4F57C44A34213D00B
:1020700004F58064A3420FD004F58064A3420BD022
:1020800004F57844A34207D004F57054A34203D06A
:10209000A4F59434A34204D1496822F080020A4393
:1020A0009A60012380F83D30002380F83C301846C8
:1020B00030BD00BF0000014090F83C30012B1FD024
:1020C000CB688A6823F4407313434A6823F480631F
:1020D00013430A6823F4006313430A6923F480530B
:1020E00013434A6923F400531343CA6923F480431A
:1020F000134302685364002380F83C30184670474D
:10210000022070470368DA6822F49072DA605A6934
:1021100022F001025A61202380F83A307047000013
:1021200038B50368C1681A69044622F440520A436C
:102130001A612569A268D968C0692A43656921F4D2
:1021400016412A4321F00C0102430A43DA605A691E
:10215000A16922F440720A43B0F5004F5A61254A42
:1021600029D1934203D002F58062934220D1FFF738
:102170004BF86268256892184FF000034FF0190180
:102180005B41A0FB0101FEF793F86421B0FBF1F481
:1021900001FB1403DB003233B3FBF1F303F007025E
:1021A0005B0002EB041203F4F8731344AB6038BD18
:1021B000FFF71AF8DDE7934202D00F4A934216D197
:1021C000FFF722F86368256819219A00A0FB010136
:1021D0009B0FFEF76DF86422B0FBF2F102FB1103D6
:1021E0001B013233B3FBF2F303EB0113DEE7FEF71F
:1021F000FBFFE7E7001001400014014010B5044662
:1022000040B390F8393003F0FF021BB980F8382052
:1022100001F012FA2268242384F83930D36823F4B9
:102220000053D3602046FFF77BFF23681A6922F42E
:1022300090421A615A6922F02A025A61DA6842F41D
:102240000052DA6000202023E06384F8393084F8FB
:102250003A3010BD012010BD38B50446134694F83D
:102260003920202A2AD139B333B394F83820012AEF
:1022700024D0012284F83820206BE3840025212219
:10228000E56384F839200E4AA3842162C2630D4AB3
:1022900002640D4AC264226805650432FEF73AFC06
:1022A00023686FF040021A605A6984F8385042F08F
:1022B00080025A61284638BD012038BD022038BD51
:1022C0005D2300088B23000857240008134690F86C
:1022D0003A20202A73B5054638D1002934D0002B86
:1022E00032D090F83820012A30D00122002480F822
:1022F00038202222C4638162838580F83A20406BB3
:10230000134AC2632E68134A0264134AC264046506
:102310000A46311DFEF7FEFB2B6801941A680192F4
:102320005A680192019ADA6885F8384042F480725E
:10233000DA605A6942F001025A615A6942F0400279
:102340005A61204602B070BD0120FBE70220F9E788
:10235000972300084D2400085724000808B5036897
:10236000826B1B6813F480730AD1D38413685A6993
:1023700022F080025A61DA6842F04002DA6008BD59
:10238000104600F0F7FD08BD704708B5806BFFF7F9
:10239000FBFF08BD704708B50368826B1B6813F428
:1023A000807310D1D3851368D96821F48071D96006
:1023B000596921F001015961596921F040015961C0
:1023C000202382F83A301046FFF7E4FF08BD90F86A
:1023D0003A30222B10B536D1836801690268B3F513
:1023E000805F836A23D15268E9B9C2F3080223F8F7
:1023F000022B8362C48D013CA4B2C4858CB90368EE
:10240000DA6822F02002DA60DA6822F48072DA6098
:102410005A6922F001025A61202380F83A30FFF70E
:10242000B9FF002010BDD2B223F8012BE1E721B99A
:10243000591C526881621A70DCE75268591C81622B
:1024400002F07F02F7E7022010BD704708B5806BED
:10245000FFF7FBFF08BD816B08B50B685A6991F85F
:10246000390021280AD1120608D50022CA84DA6868
:1024700022F0C002DA60202281F839205B6991F8ED
:102480003A20222A06D15B0604D50023CB850846D4
:10249000FFF738FECB6B43F01003CB63084600F028
:1024A000C3FC08BD03681A68D96870B516070446EE
:1024B0005D6907D196065CD58D065AD5BDE870409A
:1024C000FFF785BF15F0010502D111F4907F50D0C0
:1024D000D00705D5CB0542BFE36B43F00103E363AF
:1024E000560704D51DB1E36B43F00203E363900785
:1024F00004D51DB1E36B43F00403E363130706D572
:102500008E0600D41DB1E36B43F00803E363E36B75
:10251000002B66D0950604D5880602D52046FFF725
:1025200056FF23685D69E26B1107204602D415F05F
:1025300040051AD0FFF7E6FD23685A69520610D508
:102540005A69606B22F040025A6150B1254B036515
:10255000FEF71AFB002844D0606BBDE87040036DA5
:102560001847204600F060FC70BD00F05DFCE5639C
:1025700070BD160627D50D0625D594F83920212AD9
:102580002FD1A268B2F5805F226A17D11188C1F3FA
:1025900008015960216979B902322262E28C013A5C
:1025A00092B2E284EAB9DA6822F08002DA60DA688C
:1025B00042F04002DA6070BD0132EEE7511C216248
:1025C00012785A60EAE750060BD54A0609D5DA6850
:1025D00022F04002DA60202384F83930204600F0EF
:1025E000C9FC70BDE925000808B5806B0023C385D0
:1025F000C38400F019FC08BD30B5ADB03422002111
:1026000008A801F054FA1422002103A801F04FFA9F
:1026100000215C2215A801F04AFA0024214B019404
:102620001A6C42F080521A641B6C03F080530193C1
:10263000019B1D4B02941A6842F440421A601B68C9
:102640000A9403F440430293029B0F940A230893D5
:1026500001230B930D93082310220225109308A841
:10266000B4230C9211930E95129513951495FFF7C0
:102670002BF8FEF7E1FC0F23039305214FF4A05341
:1026800003A80693079304950594FEF711FD2023F4
:10269000159315A84FF400732593FEF7C5FD2DB0D3
:1026A00030BD00BF00380240007000402DE9F04FFF
:1026B000A7B00024B54DFDF7A7FFFFF79DFF14223B
:1026C000002116A801F0F3F904942B6BB04843F0F5
:1026D00004032B632B6B03F004030493049B059406
:1026E0002B6B43F080032B632B6B03F0800305936C
:1026F000059B06942B6B43F001032B632B6B03F0BC
:1027000001030693069B07942B6B43F002032B6394
:102710002B6B03F002030793079B08942B6B43F08A
:1027200008032B632B6B03F0080322460893012157
:10273000089BFEF7CFFB224609219648FEF7CAFB0D
:10274000224641F210019448FEF7C4FB4FF4005BAF
:1027500016A99048179401261894CDF858B0FEF7A2
:10276000DFFA16A98A481894199416961796FEF758
:10277000D7FA022316A98648169301931794189442
:10278000FEF7CEFA092216A9824816924FF01008D9
:10279000189419941796FEF7C3FA032316A97F48D5
:1027A0001793CDF858801894FEF7BAFA41F2100248
:1027B00016A979481692189419941796FEF7B0FA4C
:1027C00003942A6B42F400122A632A6B744D02F4BC
:1027D000001203922146039A0B202246FEF7AEF820
:1027E0000B20FEF7DFF8224621460D20FEF7A6F863
:1027F0000D20FEF7D7F8224621460E20FEF79EF860
:102800000E20FEF7CFF8224621460F20FEF796F85D
:102810000F20FEF7C7F8224621464046FEF78EF805
:102820004046FEF7BFF8224621461120FEF786F803
:102830001120FEF7B7F8224621462F20FEF77EF83A
:102840002F20FEF7AFF82146424616A801F02FF9D7
:10285000544AAC6085E814002846534AAA624FF0F7
:1028600004092C612C7685F82040EC62EC6085F838
:102870003040EE616E61FDF707FF16A928461894F7
:10288000CDF858901796FDF7A5FF484B4848494AA0
:10289000846080E80C004FF48042C46002614461AF
:1028A0008461C4610462FEF71BFB4348434A046130
:1028B00080E814007F228260FF22C260446184614C
:1028C000FFF7CEF83E483F4984604FF4827280E8BB
:1028D00006004FF4007282610A22C4600461446100
:1028E000C461046244628462C262FFF707F942462F
:1028F00021460BA801F0DBF821461C220FA8324D1F
:1029000009940A9401F0D3F82146202216A801F078
:10291000CEF82E4AAC60284685E814004FF4805A61
:10292000EC602C616C61AC61FFF71AFA0BA92846C8
:10293000CDF82CA0FFF7EAFA2846FFF72BFA09A9F1
:102940002846602709940A94FFF774FB22460FA9D2
:1029500028460F971094119412941394149415947C
:10296000FFF768FA4A460FA92846FFF763FA0822DC
:102970000FA92846FFF75EFA0C220FA92846FFF799
:1029800059FA16A92846169422E000BF00380240E2
:10299000001C024000080240000402400000024007
:1029A000502C0020002001400100000FA0860100F3
:1029B0009C2A002000540040802D00200028004068
:1029C000042A002000380040A02D00200000014013
:1029D0001794189419941A941D94CDF86CB0FFF7BD
:1029E0006BFB284600F012FDB94D424621460FA868
:1029F00001F05DF821461C2216A80B940C9401F0FE
:102A000056F84FF08042284685E81400AC60EC6030
:102A10002C61AC61FFF7A4F90FA92846CDF83CA0C2
:102A2000FFF774FA2846FFF7B5F90BA928460B946F
:102A30000C94FFF7FFFA224616A92846169717941A
:102A400018941A94FFF7F6F94A4616A92846FFF794
:102A5000F1F9082216A92846FFF7ECF90C2216A96D
:102A60002846FFF7E7F9284600F0D0FC4246214609
:102A70000FA8984D01F01BF821461C2216A80B94B4
:102A80000C9401F014F8944AAC60284685E81400D0
:102A9000EC602C61AC61FFF763F90FA92846CDF813
:102AA0003CA0FFF733FA2846FFF774F90BA9284634
:102AB0000B940C94FFF7BEFA224616A928461697E7
:102AC000179418941A94FFF7B5F94A4616A92846A0
:102AD000FFF7B0F9082216A92846FFF7ABF90C2238
:102AE00016A92846FFF7A6F9284600F08FFC7B4D73
:102AF0000F9421461C2216A8109400F0D8FF784AA3
:102B0000AC60284685E81400EC602C61AC61FFF7EE
:102B100041F90FA928460F941094FFF78BFA22462B
:102B200016A928461697179418941A94FFF782F955
:102B30004A4616A92846FFF77DF9284600F066FCAC
:102B4000424621460BA800F0B2FF21461C220FA8E6
:102B5000644D09940A9400F0AAFF2146202216A889
:102B600000F0A5FF604AAC60284685E81400EC60E0
:102B70002C616C61AC61FFF7F3F80BA92846CDF826
:102B80002CA0FFF7C3F92846FFF704F909A9284646
:102B900009940A94FFF74EFA22460FA928460F9788
:102BA000109411941294139414941594FFF742F90D
:102BB0004A460FA92846FFF73DF908220FA92846E3
:102BC000FFF738F90C220FA92846FFF733F916A9A9
:102BD000284616941794189419941A941D94CDF8B5
:102BE0006CB0FFF769FA284600F010FC3F4D214613
:102BF0001C2216A800F05BFF3D4AAC60284685E821
:102C00001400EC602C61AC61FFF7AAF82846FFF7CE
:102C1000C1F8224616A928461697179418941A94B4
:102C2000FFF708F9284600F0F1FB324D21461C223F
:102C300016A800F03CFF304AAC60284685E8140036
:102C4000EC602C61AC61FFF78BF82846FFF7A2F827
:102C5000224616A928461697179418941A94FFF737
:102C6000E9F8284600F0D2FB424621460FA800F0C2
:102C70001EFF224D21461C2216A800F018FF204AF4
:102C8000AC60284685E81400EC602C61AC61FFF76D
:102C900067F80FA92846CDF83CA0FFF737F928467A
:102CA000FFF778F8224616A9284616971794189425
:102CB0001A94FFF7BFF8284600F0A8FB114D2146F3
:102CC0001C2216A800F0F3FE0F4AAC6028461DE057
:102CD000202E0020D02B002000040040902B00204C
:102CE000000C00405C2A002000040140F02A002073
:102CF00000440140F82C002000480140402F0020F3
:102D000000180040002F00200020004085E814003B
:102D1000EC602C61AC61FFF723F82846FFF73AF826
:102D200016A92246284616971794354F18941A94D8
:102D3000FFF780F8284600F069FB324ABC604FF488
:102D4000165A4FF00C08384687E80404FC603C61D2
:102D5000BC61FC61C7F81480FFF750FA2A482B4A7F
:102D60002B4D846080E80404C46004618461C46104
:102D7000C0F81480FFF742FA264AAC60284685E87E
:102D80000404EC602C61AC61EC61C5F81480FFF7C1
:102D900035FA2149214C384600F074F8284620497C
:102DA0001D4D00F06FF81C491C4800F02DF9019BE7
:102DB0003146184600F0ECFD3146032000F0E8FDF6
:102DC0003146484600F0E4FD0021042000F0E0FD1B
:102DD000402216A9204600F01BF9024618B116A998
:102DE000284600F094F84FF4FA70FDF739FC012101
:102DF000042000F0CDFD4FF4FA70FDF731FCE3E75D
:102E0000E02D0020004C0040102C0020005000401D
:102E1000602E002000440040802F0020382D00202C
:102E200070010020704700001349144AF0B50023D8
:102E3000DFF84CE00D681360074619469D421E46B8
:102E400002D101B11560F0BD5EF823402068B842A0
:102E500003F101030DD101B1166004F5025142F6F0
:102E600090031031E1504FF40062BDE8F040FFF7ED
:102E70002DBA0121E2E700BF9C0000209400002051
:102E80008C0000200B460F490A6810B4541C0C60DB
:102E90000D495DF8044B41F8223042F284010022D2
:102EA00018605A5042F288015A5042F28C015A502E
:102EB00042F6900203F50251103199504FF400622E
:102EC000FFF704BA9C0000208C0000200346006835
:102ED00070B560B1406B006844681C1B04F5225457
:102EE00003F52253103400201033904200D170BDFE
:102EF0001D68AC42FBD06E1C1E602D780D541D6801
:102F00009D4224BFA5F500651D600130EDE7F8B5D1
:102F100003680446164653B342F284074FF48275A1
:102F2000C059684323180430C3F80421204400F03A
:102F300099FDE359013303F01F03E35142F28C037F
:102F4000E25892B942F288070122E159E2504D431A
:102F500063190435B3F8042120686119FFF77CF97F
:102F6000E359013303F01F03E3513046F8BD1E4619
:102F7000FBE70000F8B500210646022000F008FD3E
:102F80001E4D1F4A1F4F116800232B601A4642F244
:102F90008C0E994202D102B12960F8BD57F8234046
:102FA0002068B04226D154F80EC0BCF1010F21D1E7
:102FB00002B12B6042F2880642F28402A359A25861
:102FC0009A4212D04FF48271594363180431B3F816
:102FD00004212144FFF740F92B6857F82320935927
:102FE000013303F01F039351F8BD42F28C0300221A
:102FF000E250F8BD01330122CBE700BF980000206A
:103000009C0000208C000020002301604364704776
:103010002DE9F0418846416C071D0446C1F140028C
:1030200090B039440068FFF751FF636C0344002BF4
:103030000246636404DC0025284610B0BDE8F08138
:10304000256842F6900105F5025369581033CB1AF2
:103050006846134900F034FD694602462846FFF7EA
:1030600056FF626C3B4600269642E4DA13F8011BD9
:103070000A2906F1010511D12A463946404626445F
:1030800000F0F0FC00233371626C7919521B384652
:1030900000F0F3FC636C5B1B6364CDE72E46E3E753
:1030A000D042000882B00C4B002100915A6C42F4CF
:1030B00080425A645A6C02F480420092009A019154
:1030C0001A6C42F080521A641B6C03F08053019317
:1030D000019B02B0704700BF0038024010B50446A3
:1030E00088B01422002103A800F0E1FC2268124BF2
:1030F0009A421ED103F58C33002101915A6C0F487E
:1031000042F480725A645A6C02F480720192019AFD
:1031100002911A6B42F001021A631B6B03F0010368
:103120000293029B1023039303A903230493FDF747
:10313000F7FD08B010BD00BF0020014000000240B4
:1031400030B5044689B01422002103A800F0AFFC7A
:103150002268144B9A4223D1134C14480025019540
:10316000236B43F002032363236B03F002030193F9
:10317000019BC0230393122304930123059303238C
:10318000069303A904230793FDF7CAFD0295236C58
:1031900043F400132364236C03F400130293029B93
:1031A00009B030BD00540040003802400004024025
:1031B0000268034B9A4202BF024B01221A60704719
:1031C000002800403C0E47422DE9F041064688B0F9
:1031D0001422002103A800F06AFC3268304B9A42A6
:1031E0005AD1002503F5003300951A6C2D4842F49E
:1031F00080421A641A6C02F480420092009A01958F
:103200001A6B42F004021A631A6B02F00402019274
:10321000019A02951A6B42F002021A631B6B03F0CB
:103220000203029302240327029B0394072303A9AA
:10323000049407934FF005080697FDF771FD0423EA
:1032400003A918480393049405950697CDF81C80AC
:10325000FDF766FD4FF400531348039303A904944C
:103260000595124C0697CDF81C80FDF759FD104BC3
:10327000A56084E8280020464FF48063E560236160
:103280006561A561E56125626562FDF7C5FB08B171
:10329000FFF7C8FDF464A66308B0BDE8F08100BF85
:1032A000003800400008024000040240302B00209B
:1032B000586002400368414A934288B00DD1002310
:1032C00000933F4B5A6C42F001025A645B6C03F06E
:1032D00001030093009B08B07047B3F1804F0CD1FD
:1032E00000230193364B1A6C42F001021A641B6CE6
:1032F00003F001030193019BEDE7324A93420CD1A5
:10330000002302932E4B1A6C42F002021A641B6CCB
:1033100003F002030293029BDDE72B4A93420CD198
:1033200000230393264B5A6C42F002025A645B6CF2
:1033300003F002030393039BCDE7244A93420CD18D
:10334000002304931E4B5A6C42F400325A645B6CA7
:1033500003F400330493049BBDE71D4A93420CD150
:1033600000230593164B5A6C42F480225A645B6C1E
:1033700003F480230593059BADE7164A93420CD1D5
:10338000002306930E4B1A6C42F040021A641B6C29
:1033900003F040030693069B9DE70F4A93429AD1A0
:1033A00000230793064B1A6C42F480721A641B6C5C
:1033B00003F480730793079B8DE700BF0000014073
:1033C0000038024000040040000401400044014075
:1033D0000048014000180040002000400268094BEE
:1033E0009A4282B00BD100230193074B1A6C42F032
:1033F00008021A641B6C03F008030193019B02B0DE
:10340000704700BF000C00400038024070B5044611
:1034100090B0142200210BA800F049FB23687A4ADF
:10342000934213D100230093784B1A6B42F00102B0
:103430001A631B6B03F001030093009B4FF470634E
:103440000B9302230C9301230F932BE0B3F1804FD6
:103450002BD103F50E33002401941A6B6C4842F013
:1034600002021A631A6B02F002020192019A02949C
:103470001A6B42F001021A631B6B03F00103029303
:10348000029B022640F20C4301250BA90B930C96DC
:103490000F95FDF745FC4FF400430B930C960D94EC
:1034A0000E940F950BA95B4856E05B4A934227D1D7
:1034B000564B5848002503951A6B42F001021A63D7
:1034C0001A6B02F001020392039A04951A6B42F000
:1034D00002021A631B6B03F0020304930224049B91
:1034E0000C9440230BA90B930F94FDF719FC232395
:1034F0000B930C940D950E950F940BA944482BE05B
:10350000464A934210D100230593404B1A6B42F078
:1035100001021A631B6B03F001030593059B032350
:103520000B9302230C938FE73D4A934218D100235B
:103530000693364B3B481A6B42F004021A631B6B2E
:1035400003F004030693069B4FF470730B9302235E
:103550000C9303230F930BA9FDF7E2FB10B070BD92
:10356000314A934213D100230793284B1A6B42F040
:1035700002021A631B6B03F002030793079B4FF4CD
:1035800080730B9302230C9303230F93B5E7274A11
:1035900093420ED1002308931C4B1A6B42F0020297
:1035A0001A631B6B03F002030893089B4FF400732C
:1035B000E7E71F4A934212D100230993134B1A6B7A
:1035C00042F002021A631B6B03F002030993099B8A
:1035D0004FF480430B9302230C930923D5E7154A3C
:1035E0009342BBD100230A93084B1A6B42F00102AD
:1035F0001A631B6B03F001030A930A9B80230B934E
:1036000002230C9309231FE7000001400038024009
:10361000000402400000024000040040000C004092
:1036200000040140000802400044014000480140FD
:1036300000180040002000402DE9F04305468DB001
:103640001422002107A800F032FA2B688C4A93421A
:1036500061D100268B4B00961A6C8B488B4C42F440
:1036600000221A641A6C02F400220092009A019659
:103670001A6B42F004021A631B6B03F004030193FC
:10368000019B4FF44063079302230893012309939E
:1036900003230A9307A908230B93FDF741FB7C4BF7
:1036A000A6604FF0006884E8080120464FF480636C
:1036B000E66023616661A661E66126626662FDF7E7
:1036C000ABF908B1FFF7AEFB6C63724BA563724CAC
:1036D0004FF0006C4FF0400E84E808504FF48062C9
:1036E00000232046E36022616361A361E3612362FA
:1036F0006362FDF791F908B1FFF794FB00222C6398
:1037000034201146A563FDF719F93420FDF74AF975
:103710000DB0BDE8F083614A934271D10026594B48
:1037200002961A6C584842F480121A641A6C02F419
:1037300080120292029A03961A6B42F004021A63F4
:103740001A6B02F004020392039A04961A6B42F079
:1037500008021A631B6B03F0080304930824049BFC
:103760000B944FF480534FF002094FF001080327E8
:1037700007A90793CDF82090CDF824800A97FDF78C
:10378000CFFA042307A9464807930B94CDF820905D
:10379000444CCDF824800A97FDF7C2FA4249A6604E
:1037A0004FF0006384E80A0020464FF48063E6602F
:1037B00023616661A661E66126626662FDF72CF907
:1037C00008B1FFF72FFB6C63384BA563384C2360BF
:1037D0004FF0006363604023A3604FF480620023D6
:1037E000E36022616361A361E36123626362204657
:1037F000FDF712F908B1FFF715FB2C63A56387E706
:103800002C4A934284D100261E4B05961A6C2A48F6
:103810002A4C42F400321A641A6C02F40032059207
:10382000059A06961A6B42F001021A631B6B03F0AD
:1038300001030693069B0C2307930223089303239B
:103840000A9307A907230B93FDF76AFA1C4AA6609F
:103850004FF0006384E80C0020464FF48063E6607C
:1038600023616661A661E66126626662FDF7D4F8AF
:1038700008B1FFF7D7FA6C63124BA563124CA6E7A9
:10388000004C00400038024000080240B000002018
:103890004060024070600240145800200050004018
:1038A000000C0240A02E002010600240B8600240D0
:1038B0007458002000440040000002401001002025
:1038C00088600240A0600240982C00207047FEE70C
:1038D000FEE7FEE7FEE7704770477047FCF7AEBEB5
:1038E0000148FDF763B900BFA02E00200148FDF795
:1038F0005DB900BFB00000200148FDF757B900BF17
:10390000302B00200148FDF751B900BF14580020AA
:103910000148FDF74BB900BF100100200148FDF739
:1039200045B900BF982C00200148FDF73FB900BF02
:10393000745800200148FEF7B5BD00BFE02D0020FF
:1039400008B50A4B1968024609B90949196018688F
:10395000694602448A4206D900F05AF80C230360F3
:103960004FF0FF3008BD1A6008BD00BFA000002066
:10397000D8580020054BD3F8882042F47002C3F8D1
:1039800088204FF000629A60704700BF00ED00E0B1
:1039900003280BD0074A042818BF1023064804BF89
:1039A00001231046CAB21946FDF794BA4FF480536A
:1039B0000148F7E7001C024000040240DFF834D061
:1039C000002103E00C4B5B58435004310B480C4B77
:1039D00042189A42F6D30B4A02E0002342F8043B15
:1039E000094B9A42F9D3FFF7C5FF00F017F8FEF72D
:1039F0005DFE7047000002204C43000800000020DC
:103A00007000002070000020D8580020FEE7000061
:103A1000014B1868704700BF0C00002070B50D4EB8
:103A20000D4CA41BA4100025A54209D10B4E0C4C33
:103A300000F03EFCA41BA4100025A54205D170BDDA
:103A400056F8253098470135EEE756F82530984767
:103A50000135F2E7444300084443000844430008AA
:103A60004843000810B5431E0A44914200D110BDDE
:103A700011F8014B03F8014FF7E7884210B501EB4D
:103A8000020303D8421E99420CD110BD9842F9D2CC
:103A90008118D21AD34200D110BD13F8014D01F89C
:103AA000014DF7E711F8014B02F8014FEBE7024433
:103AB0000346934200D1704703F8011BF9E7000069
:103AC0000EB400B59CB04FF402711DABADF81410EC
:103AD000029006906FF000410A48049107914FF65A
:103AE000FF7153F8042BADF816100068019302A97A
:103AF00000F066F8029B00221A701CB05DF804EB1F
:103B000003B070470C0000202DE9F0478E689E42FC
:103B100082460C469146984635D88A8912F4906FB1
:103B200031D0256809696F1A6569022305EB4505DF
:103B300095FBF3F508F101033B449D4238BF1D4658
:103B4000530531D5294600F013FB064650B90C2326
:103B5000CAF80030A38943F04003A3814FF0FF303F
:103B6000BDE8F0873A462169FFF77CFFA38923F47B
:103B7000906343F08003A381266165613E44ED1BA1
:103B80002660A5604646464528BF46463246494619
:103B90002068FFF772FFA3689B1BA36023681E4485
:103BA00026600020BDE8F0872A4600F03FFB06466D
:103BB0000028E1D12169504600F08CFAC7E70000E7
:103BC0002DE9F04F9DB0804603938B891C060D466E
:103BD00016460FD50B696BB9402100F0C9FA286071
:103BE000286128B90C23C8F800304FF0FF30C5E039
:103BF00040236B610023099320238DF82930302363
:103C00008DF82A304FF0010B37463C4614F8013B43
:103C1000002B3CD1B7EB060A0BD05346324629465F
:103C20004046FFF771FF013000F0A380099B534429
:103C300009933B78002B00F09C8000234FF0FF326B
:103C400004930793059206938DF853301A93052237
:103C500021785048FCF7DCFA671C049BD8B9D906D8
:103C600044BF20228DF853201A0744BF2B228DF821
:103C7000532022782A2A16D0079A00210A202746A4
:103C800001343B78303B092B51D9C9B111E0252BC8
:103C9000C0D02746B9E73F4A801A0BFA00F0184314
:103CA00004903C46D3E7039A111D12680391002A41
:103CB00001DB079204E0524243F0020307920493AF
:103CC0003B782E2B0ED17B782A2B07F1010132D1C4
:103CD000039B1A1D1B680392002BB8BF4FF0FF33E4
:103CE000023705932C4C397803222046FCF790FAD2
:103CF00038B14023001B03FA00F0049B03430493F4
:103D00000137397825488DF8281006227E1CFCF7EB
:103D10007FFA002835D0224BFBB9039B073323F0F1
:103D2000070308330393099B4B4409936CE700FB9B
:103D300002320121A3E70023059318460A240F4607
:103D400001313A78303A092A03D9002BCAD00590BC
:103D5000C8E704FB00200123F1E703AB00932A46E8
:103D6000104B04A94046AFF30080B0F1FF3F8146FD
:103D7000D9D1AB895B063FF538AF09981DB0BDE8D6
:103D8000F08F03AB00932A46064B04A9404600F08F
:103D900081F8EAE7064300080C43000810430008D6
:103DA00000000000093B00082DE9F04791461F463E
:103DB0008A680B69DDF820809342B8BF1346C9F8C2
:103DC000003091F8432006460C4612B10133C9F881
:103DD00000302368990642BFD9F800300233C9F891
:103DE0000030256815F0060507D104F1190AE368CB
:103DF000D9F800209B1A9D4229DB94F843302268B1
:103E0000003318BF012392062ED404F14302394631
:103E10003046C047013021D02368E568D9F800203A
:103E200003F00603042B08BFAD1AA36822690CBF78
:103E300025EAE57500259342C4BF9B1AED184FF0A3
:103E400000091A344D451BD10020BDE8F08701233D
:103E5000524639463046C047013003D14FF0FF305B
:103E6000BDE8F0870135C2E7E1185A1C302081F81F
:103E70004300224494F8451082F843100233C4E70B
:103E80000123224639463046C0470130E6D009F1C9
:103E90000109D7E72DE9F04317460A7E85B06E2A5F
:103EA000984606460C460C9B01F1430E00F0BC8080
:103EB0001AD8632A2ED00AD8002A00F0C880582ABF
:103EC00000F08A8004F1420584F842202AE0642A46
:103ED00001D0692AF6D121681A6811F0800F23D029
:103EE000111D1960136827E0732A00F0B48008D808
:103EF0006F2A2AD0702AE5D10A6842F020020A60AF
:103F000003E0752A21D0782ADCD1782284F8452074
:103F10006E4964E01A6801F14205111D19601368C9
:103F200084F842300123A3E011F0400F02F10401B4
:103F30001960D7D0B2F90030002B03DA2D225B4292
:103F400084F8432062490A2217E02068196810F0BB
:103F5000800F03D0081D18600B6806E010F0400FBA
:103F600001F104001860F7D00B8859496F2A14BF7B
:103F70000A220822002084F843006568A560002D0D
:103F8000C0F29C80206820F004002060002B3FD10C
:103F9000002D40F095807546082A0BD12368DA077A
:103FA00008D5236962689A42DEBF302305F8013CD8
:103FB00005F1FF35AEEB05032361CDF800803B46EC
:103FC00003AA21463046FFF7EFFE013055D14FF0EE
:103FD000FF3005B0BDE8F08381F845203C492268F8
:103FE000186812F0800F00F104051D6001D003680D
:103FF00002E05506FBD50388D00744BF42F02002FB
:1040000022601BB9226822F0200222601022B1E750
:104010007546B3FBF2F002FB1033CB5C05F8013DB3
:1040200003460028F5D1B7E708681A68496910F017
:10403000800F04D0101D18601368196007E010F09D
:10404000400F02F1040018601368F6D019800023B5
:1040500023617546B1E71A68111D19601568626819
:1040600000212846FCF7D4F808B1401B6060636863
:104070002361002384F843309FE723692A463946A9
:104080003046C0470130A2D023689B0707D50025E2
:1040900004F11909E368039A9B1A9D4205DBE06865
:1040A000039B9842B8BF184693E701234A46394616
:1040B0003046C04701308AD00135EBE7002BA7D14D
:1040C0000B7884F8423004F1420565E72843000884
:1040D0001743000838B50546002945D051F8043C7F
:1040E0000C1F002BB8BFE41800F0D6F81F4A136865
:1040F000104633B9636014602846BDE8384000F0CC
:10410000CCB8A3420CD921686218934204BF1A6844
:104110005B68636004BF521822600460ECE71346DA
:104120005A680AB1A242FAD919685818A0420BD1AC
:1041300020680144581882421960DDD11068526825
:104140005A6001441960D7E702D90C232B60D3E7EA
:10415000206821188A4204BF11685268626004BF57
:10416000091821605C60C7E738BD00BFA4000020CB
:1041700070B5CD1C25F0030508350C2D38BF0C2576
:10418000002D064601DBA94203D90C233360002031
:1041900070BD00F081F8234A1468214691B9224C81
:1041A00023681BB9304600F067F820602946304686
:1041B00000F062F8431C26D10C233360304600F037
:1041C0006CF8E4E70B685B1B1AD40B2B0FD90B6060
:1041D000CD50CC18304600F060F804F10B00231DE0
:1041E00020F00700C31A1BD05A42E25070BD8C4227
:1041F0000DBF63684B686360136018BF0C46E9E746
:104200000C464968CAE7C41C24F00304A04205D048
:10421000211A304600F030F80130CDD02560D9E7C2
:1042200070BD00BFA4000020A8000020F8B507461C
:1042300014460E4621B91146BDE8F840FFF798BF75
:1042400022B9FFF747FF25462846F8BD00F026F8BB
:1042500084420FD921463846FFF78AFF05460028D9
:10426000F2D031462246FFF7FDFB31463846FFF7D4
:1042700031FFE9E73546E7E738B5064C0023054648
:1042800008462360FFF75CFB431C02D1236803B19F
:104290002B6038BDD45800207047704751F8040C8B
:1042A0000028A0F10400BCBF0B58C01870470000E4
:1042B000F8B500BFF8BC08BC9E467047F8B500BF13
:0842C000F8BC08BC9E467047E3
:1042C8000006101600061016526563656976656467
:1042D8002025642062797465732E20636972636295
:1042E80075663D2564000000000000000000010222
:1042F8000304060708090000000001020304232D37
:10430800302B2000686C4C006566674546470030D6
:104318003132333435363738394142434445460023
:104328003031323334353637383961626364656623
:044338000000000081
:08433C00A4BFFF7F0100000097
:04434400F501000877
:04434800D101000897
:10434C0001000000100000000024F4001000002008
:10435C000000000000000000000000000000000051
:10436C000000000000000000000000000000000041
:10437C000000000000000000000000000000000031
:10438C000000000000000000000000000000000021
:10439C000000000000000000000000000000000011
:1043AC000000000000000000000000000000000001
:04000005080039BDF9
:00000001FF
