:020000040800F2
:1000000000000220F1B70008D5B50008E3B50008EC
:10001000E9B50008EFB50008F5B5000800000000DC
:10002000000000000000000000000000FBB5000818
:1000300009B600080000000017B6000825B6000841
:1000400041B8000841B8000841B8000841B80008AC
:1000500041B8000841B8000841B8000841B800089C
:1000600041B8000841B8000841B8000831B600089E
:1000700041B8000845B6000859B600086DB600083A
:1000800081B6000895B6000841B8000841B80008DC
:1000900041B8000841B8000841B8000841B800085C
:1000A00041B8000841B8000841B8000841B800084C
:1000B00041B8000841B8000841B8000841B800083C
:1000C00041B8000841B8000841B8000841B800082C
:1000D00041B8000841B80008A9B6000841B80008B6
:1000E00041B8000841B8000841B8000841B800080C
:1000F000BDB6000841B8000841B80008D9B60008EC
:1001000041B8000841B8000841B8000841B80008EB
:10011000EDB6000841B8000841B8000841B8000831
:1001200041B8000841B8000841B8000841B80008CB
:1001300041B80008000000000000000041B80008BD
:1001400041B8000841B8000841B8000841B80008AB
:1001500041B8000841B8000841B8000841B800089B
:1001600041B8000841B8000841B8000841B800088B
:1001700041B8000841B8000841B80008000000007C
:100180000000000041B8000800000000000000006E
:1001900041B80008000000000000000041B800085D
:1001A00000000000000000000000000041B800084E
:1001B00041B8000841B8000841B8000841B800083B
:0401C00041B800083A
:1001D00010B5054C237833B9044B13B10448AFF381
:1001E00000800123237010BD1003002000000000D8
:1001F00060ED000808B5034B1BB103490348AFF39A
:10020000008008BD000000001403002060ED00081D
:1002100010F8012B11F8013B012A28BF9A42F7D0B0
:10022000D01A7047034613F8012B002AFBD1181A85
:1002300001387047000000000000000000000000CE
:1002400001F0FF01102A2BDB10F0070F08D010F887
:10025000013B013A8B422DD010F0070F42B3F6D18B
:10026000F0B441EA012141EA014122F007047FF0A4
:1002700000070023F0E80256083C85EA010586EAFB
:10028000010685FA47F5A3FA87F586FA47F6A5FA37
:1002900087F68EB9EED1F0BC01F0FF0102F0070243
:1002A00032B110F8013B013A83EA010313B1F8D1EE
:1002B0000020704701387047002D06BF35460338CF
:1002C000073815F0010F07D1013015F4807F02BF08
:1002D000013015F4C03F0130F0BC0138704700BF59
:1002E00081F0004102E000BF83F0004330B54FEAE7
:1002F00041044FEA430594EA050F08BF90EA020F54
:100300001FBF54EA000C55EA020C7FEA645C7FEAE6
:10031000655C00F0E2804FEA5454D4EB5555B8BF09
:100320006D420CDD2C4480EA020281EA030382EA7A
:10033000000083EA010180EA020281EA0303362D0C
:1003400088BF30BD11F0004F4FEA01314FF4801CDF
:100350004CEA113102D0404261EB410113F0004FF1
:100360004FEA03334CEA133302D0524263EB4303A8
:1003700094EA050F00F0A780A4F10104D5F1200E46
:100380000DDB02FA0EFC22FA05F2801841F10001A1
:1003900003FA0EF2801843FA05F359410EE0A5F175
:1003A00020050EF1200E012A03FA0EFC28BF4CF0A6
:1003B000020C43FA05F3C01851EBE37101F000455C
:1003C00007D54FF0000EDCF1000C7EEB00006EEB69
:1003D0000101B1F5801F1BD3B1F5001F0CD34908F3
:1003E0005FEA30004FEA3C0C04F101044FEA44524A
:1003F00012F5800F80F09A80BCF1004F08BF5FEAD1
:10040000500C50F1000041EB045141EA050130BDB0
:100410005FEA4C0C404141EB010111F4801FA4F153
:100420000104E9D191F0000F04BF01460020B1FAA8
:1004300081F308BF2033A3F10B03B3F120020CDAE0
:100440000C3208DD02F1140CC2F10C0201FA0CF0BE
:1004500021FA02F10CE002F11402D8BFC2F1200C23
:1004600001FA02F120FA0CFCDCBF41EA0C019040D9
:10047000E41AA2BF01EB0451294330BD6FEA040422
:100480001F3C1CDA0C340EDC04F11404C4F120020D
:1004900020FA04F001FA02F340EA030021FA04F31F
:1004A00045EA030130BDC4F10C04C4F1200220FA76
:1004B00002F001FA04F340EA0300294630BD21FAB4
:1004C00004F0294630BD94F0000F83F4801306BF7A
:1004D00081F480110134013D4EE77FEA645C18BF6E
:1004E0007FEA655C29D094EA050F08BF90EA020F05
:1004F00005D054EA000C04BF1946104630BD91EAFD
:10050000030F1EBF0021002030BD5FEA545C05D1FF
:100510004000494128BF41F0004130BD14F580043E
:100520003CBF01F5801130BD01F0004545F0FE41B2
:1005300041F470014FF0000030BD7FEA645C1ABFE7
:10054000194610467FEA655C1CBF0B46024650EA1E
:10055000013406BF52EA033591EA030F41F400214A
:1005600030BD00BF90F0000F04BF0021704730B5D0
:100570004FF4806404F132044FF000054FF00001A5
:1005800050E700BF90F0000F04BF0021704730B566
:100590004FF4806404F1320410F0004548BF40423B
:1005A0004FF000013EE700BF42004FEAE2014FEA90
:1005B00031014FEA02701FBF12F07F4393F07F4F6B
:1005C00081F06051704792F0000F14BF93F07F4F9D
:1005D000704730B54FF4607401F0004521F00041E0
:1005E00020E700BF50EA010208BF704730B54FF066
:1005F00000050AE050EA010208BF704730B511F06B
:10060000004502D5404261EB41014FF4806404F1A2
:1006100032045FEA915C3FF4DCAE4FF003025FEA24
:10062000DC0C18BF03325FEADC0C18BF033202EBAC
:10063000DC02C2F1200300FA03FC20FA02F001FA06
:1006400003FE40EA0E0021FA02F11444C1E600BFA5
:1006500070B54FF0FF0C4CF4E06C1CEA11541DBF58
:100660001CEA135594EA0C0F95EA0C0F00F0DEF823
:100670002C4481EA030621EA4C5123EA4C5350EA08
:10068000013518BF52EA033541F4801143F4801359
:1006900038D0A0FB02CE4FF00005E1FB02E506F0EA
:1006A0000042E0FB03E54FF00006E1FB03569CF03F
:1006B000000F18BF4EF0010EA4F1FF04B6F5007F45
:1006C00064F5407404D25FEA4E0E6D4146EB0606B7
:1006D00042EAC62141EA55514FEAC52040EA5E5040
:1006E0004FEACE2EB4F1FD0C88BFBCF5E06F1ED8EA
:1006F000BEF1004F08BF5FEA500E50F1000041EB21
:10070000045170BD06F0004646EA010140EA0200CD
:1007100081EA0301B4EB5C04C2BFD4EB0C0541EAEF
:10072000045170BD41F480114FF0000E013C00F304
:10073000AB8014F1360FDEBF002001F0004170BD28
:10074000C4F10004203C35DA0C341BDC04F1140441
:10075000C4F1200500FA05F320FA04F001FA05F2CD
:1007600040EA020001F0004221F0004110EBD3709A
:1007700021FA04F642EB06015EEA430E08BF20EAC6
:10078000D37070BDC4F10C04C4F1200500FA04F369
:1007900020FA05F001FA04F240EA020001F00041FB
:1007A00010EBD37041F100015EEA430E08BF20EA6E
:1007B000D37070BDC4F1200500FA05F24EEA020EB6
:1007C00020FA04F301FA05F243EA020321FA04F0E5
:1007D00001F0004121FA04F220EA020000EBD3709C
:1007E0005EEA430E08BF20EAD37070BD94F0000F9C
:1007F0000FD101F00046400041EB010111F4801FD0
:1008000008BF013CF7D041EA060195F0000F18BF80
:10081000704703F00046520043EB030313F4801FBC
:1008200008BF013DF7D043EA0603704794EA0C0F76
:100830000CEA135518BF95EA0C0F0CD050EA41068C
:1008400018BF52EA4306D1D181EA030101F0004109
:100850004FF0000070BD50EA410606BF1046194631
:1008600052EA430619D094EA0C0F02D150EA01363D
:1008700013D195EA0C0F05D152EA03361CBF10467E
:1008800019460AD181EA030101F0004141F0FE411D
:1008900041F470014FF0000070BD41F0FE4141F4A1
:1008A000780170BD70B54FF0FF0C4CF4E06C1CEAA1
:1008B00011541DBF1CEA135594EA0C0F95EA0C0F56
:1008C00000F0A7F8A4EB050481EA030E52EA033511
:1008D0004FEA013100F088804FEA03334FF0805532
:1008E00045EA131343EA12634FEA022245EA11155F
:1008F00045EA10654FEA00260EF000419D4208BF10
:10090000964244F1FD0404F5407402D25B084FEABC
:100910003202B61A65EB03055B084FEA32024FF468
:1009200080104FF4002CB6EB020E75EB030E22BFC5
:10093000B61A754640EA0C005B084FEA3202B6EB85
:10094000020E75EB030E22BFB61A754640EA5C0034
:100950005B084FEA3202B6EB020E75EB030E22BFC4
:10096000B61A754640EA9C005B084FEA3202B6EBC5
:10097000020E75EB030E22BFB61A754640EADC0084
:1009800055EA060E18D04FEA051545EA16754FEAE6
:1009900006164FEAC30343EA52734FEAC2025FEA04
:1009A0001C1CC0D111F4801F0BD141EA00014FF093
:1009B00000004FF0004CB6E711F4801F04BF014364
:1009C0000020B4F1FD0C88BFBCF5E06F3FF6AFAE80
:1009D000B5EB030C04BFB6EB020C5FEA500C50F110
:1009E000000041EB045170BD0EF0004E4EEA113193
:1009F00014EB5C04C2BFD4EB0C0541EA045170BD9A
:100A000041F480114FF0000E013C90E645EA060EDD
:100A10008DE60CEA135594EA0C0F08BF95EA0C0F0B
:100A20003FF43BAF94EA0C0F0AD150EA01347FF453
:100A300034AF95EA0C0F7FF425AF104619462CE72A
:100A400095EA0C0F06D152EA03353FF4FDAE10468D
:100A5000194622E750EA410618BF52EA43067FF4DE
:100A6000C5AE50EA41047FF40DAF52EA43057FF46E
:100A7000EBAE12E74FF0FF3C06E000BF4FF0010C79
:100A800002E000BF4FF0010C4DF804CD4FEA410CDD
:100A90007FEA6C5C4FEA430C18BF7FEA6C5C1BD0AA
:100AA00001B050EA410C0CBF52EA430C91EA030F2B
:100AB00002BF90EA020F0020704710F1000F91EA88
:100AC000030F58BF994208BF90422CBFD8176FEA56
:100AD000E37040F0010070474FEA410C7FEA6C5C24
:100AE00002D150EA013C07D14FEA430C7FEA6C5C2B
:100AF000D6D152EA033CD3D05DF8040B704700BF57
:100B00008446104662468C461946634600E000BFA4
:100B100001B5FFF7B7FF002848BF10F1000F01BD76
:100B20004DF808EDFFF7F4FF0CBF012000205DF841
:100B300008FB00BF4DF808EDFFF7EAFF34BF0120C6
:100B400000205DF808FB00BF4DF808EDFFF7E0FF5F
:100B500094BF012000205DF808FB00BF4DF808EDB0
:100B6000FFF7CEFF94BF012000205DF808FB00BF17
:100B70004DF808EDFFF7C4FF34BF012000205DF8F9
:100B800008FB00BF4FEA410C7FEA6C5C02D150EADF
:100B9000013C0AD14FEA430C7FEA6C5C02D152EA75
:100BA000033C02D14FF0000070474FF00100704746
:100BB0004FEA410212F5001215D211D56FF4787385
:100BC000B3EB625212D94FEAC12343F0004343EA28
:100BD000505311F0004F23FA02F018BF4042704703
:100BE0004FF00000704750EA013005D111F000408D
:100BF00008BF6FF0004070474FF00000704700BF23
:100C00004A0011D212F5001211D20DD56FF478738B
:100C1000B3EB62520ED44FEAC12343F0004343EAE0
:100C2000505323FA02F070474FF00000704750EA2B
:100C3000013002D14FF0FF3070474FF00000704795
:100C40004FEA4102B2F1E04324BFB3F5001CDCF1EE
:100C5000FE5C0DD901F0004C4FEAC0024CEA507026
:100C6000B2F1004F40EB830008BF20F00100704755
:100C700011F0804F21D113F13872BCBF01F0004058
:100C8000704741F480114FEA5252C2F11802C2F18A
:100C9000200C10FA0CF320FA02F018BF40F001000B
:100CA0004FEAC1234FEAD32303FA0CFC40EA0C00BD
:100CB00023FA02F34FEA4303CCE77FEA625307D1FA
:100CC00050EA01331EBF4FF0FE4040F44000704731
:100CD00001F0004040F0FE4040F40000704700BFCB
:100CE00053B94AB9002908BF00281CBF4FF0FF3193
:100CF0004FF0FF3000F07AB9ADF1080C6DE904CE89
:100D000000F006F8DDF804E0DDE9022304B07047E6
:100D10002DE9F0478C460D460446089E002B51D124
:100D20008A4217466DD9B2FA82FEBEF1000F0BD08F
:100D3000CEF1200C01FA0EF520FA0CFC02FA0EF7A7
:100D40004CEA050C00FA0EF44FEA174A250CBCFBDE
:100D5000FAF81FFA87F90AFB18CC45EA0C4508FB9C
:100D600009F3AB420AD9ED1908F1FF3280F0238173
:100D7000AB4240F22081A8F102083D44ED1AA4B232
:100D8000B5FBFAF00AFB105544EA054400FB09F9EB
:100D9000A14509D9E41900F1FF3380F00A81A1458A
:100DA00040F2078102383C44A4EB090440EA0840C1
:100DB0000021002E61D024FA0EF400233460736009
:100DC000BDE8F0878B4207D9002E54D0002186E879
:100DD00021000846BDE8F087B3FA83F1002940F00E
:100DE0008E80AB4202D3824200F2FA80841A65EB15
:100DF00003050120AC46002E3FD086E81010BDE868
:100E0000F08712B90127B7FBF2F7B7FA87FEBEF1F8
:100E1000000F34D1EB1B3A0C1FFA87FC0121B3FB06
:100E2000F2F8250C02FB183345EA03450CFB08F3E6
:100E3000AB4207D9ED1908F1FF3002D2AB4200F204
:100E4000D1808046ED1AA3B2B5FBF2F002FB10553B
:100E500043EA05440CFB00FCA44507D9E41900F162
:100E6000FF3302D2A44500F2B8801846A4EB0C046C
:100E700040EA08409DE731463046BDE8F087CEF1B4
:100E8000200405FA0EF307FA0EF720FA04F83A0CDC
:100E900025FA04F448EA0308B4FBF2F14FEA1845D6
:100EA00002FB11441FFA87FC45EA044501FB0CF3E1
:100EB000AB4200FA0EF409D9ED1901F1FF3080F0D0
:100EC0008A80AB4240F2878002393D44EB1A1FFA18
:100ED00088F5B3FBF2F002FB103345EA034500FB53
:100EE0000CF3AB4207D9ED1900F1FF386FD2AB42DA
:100EF0006DD902383D44EB1A40EA01418FE7C1F158
:100F0000200722FA07F88B4005FA01F448EA0303A8
:100F100020FA07FE4FEA134CFD404EEA040EB5FBE3
:100F2000FCF94FEA1E440CFB19551FFA83F844EAFA
:100F3000054509FB08F4AC4202FA01F200FA01FA95
:100F400008D9ED1809F1FF3043D2AC4241D9A9F1DB
:100F500002091D442D1B1FFA8EFEB5FBFCF00CFB95
:100F600010554EEA054400FB08F8A04507D9E418DF
:100F700000F1FF3529D2A04527D902381C4440EAA8
:100F80000940A4EB0804A0FB02894C45C6464D4627
:100F900015D312D056B1BAEB0E0364EB050404FA74
:100FA00007F7CB401F43CC40376074600021BDE899
:100FB000F0871846F8E69046E0E6C245EAD2B8EB7C
:100FC000020E69EB03050138E4E72846D7E74046FF
:100FD00091E78146BEE7014678E702383C4445E7A1
:100FE000084608E7A8F102083D442BE7704700BF18
:100FF00080B500AF0E4A0E4B1B6843F400731360BC
:101000000B4A0B4B1B6843F480631360084A084B80
:101010001B6843F480731360032000F0BFFB0020C3
:1010200000F008F809F096FC0023184680BD00BFC8
:10103000003C024080B582B000AF7860124B1A6865
:10104000124B1B7819464FF47A73B3FBF1F3B2FBE2
:10105000F3F3184600F0D7FB0346002B01D0012321
:101060000EE07B680F2B0AD8002279684FF0FF3022
:1010700000F09FFB064A7B681360002300E0012319
:1010800018460837BD4680BD380100200400002006
:101090000000002080B400AF064B1B781A46064BB8
:1010A0001B681344044A136000BFBD465DF8047B0F
:1010B000704700BF040000205003002080B400AF40
:1010C000034B1B681846BD465DF8047B704700BFA4
:1010D0005003002080B584B000AF7860FFF7EEFFCA
:1010E000B8607B68FB60FB68B3F1FF3F05D0094B3C
:1010F0001B781A46FB681344FB6000BFFFF7DEFF56
:101100000246BB68D21AFB689A42F7D300BF103779
:10111000BD4680BD0400002080B584B000AF78607B
:101120000023FB737B68002B01D1012333E07B6834
:101130001B6C002B09D1786809F034FC7B68002215
:101140005A647B68002283F83C207B681B6C03F0A8
:101150001003002B18D17B681B6C23F4885323F0F9
:10116000020343F002027B681A64786800F04CF9CD
:101170007B6800225A647B681B6C23F0030343F0F6
:1011800001027B681A6401E00123FB737B68002283
:1011900083F83C20FB7B18461037BD4680BD00001D
:1011A00090B484B000AF786039600023BB607B6886
:1011B00093F83C30012B01D1022315E17B68012219
:1011C00083F83C203B681B68092B26D97B681A688A
:1011D0007B681B68D9683B681B689BB2184603464E
:1011E0005B0003441E3B072000FA03F3DB430B4084
:1011F000D3607B681A687B681B68D9683B6898680D
:101200003B681B689BB21C4623465B0023441E3B85
:1012100000FA03F30B43D36023E07B681A687B6812
:101220001B6819693B681B689BB2184603465B0044
:101230000344072000FA03F3DB430B4013617B6890
:101240001A687B681B6819693B6898683B681B686B
:101250009BB21C4623465B00234400FA03F30B4376
:1012600013613B685B68062B24D87B6819687B6830
:101270001B68586B3B685A6813469B001344053B38
:101280001F2202FA03F3DB4303404B637B681968B8
:101290007B681B68586B3B681B689BB21C463B68AD
:1012A0005A6813469B001344053B04FA03F30343B7
:1012B0004B634CE03B685B680C2B24D87B68196857
:1012C0007B681B68186B3B685A6813469B00134485
:1012D000233B1F2202FA03F3DB4303400B637B68CB
:1012E00019687B681B68186B3B681B689BB21C46BF
:1012F0003B685A6813469B001344233B04FA03F3EC
:1013000003430B6323E07B6819687B681B68D86A1A
:101310003B685A6813469B001344413B1F2202FA64
:1013200003F3DB430340CB627B6819687B681B686F
:10133000D86A3B681B689BB21C463B685A681346D8
:101340009B001344413B04FA03F30343CB62294B54
:10135000FB607B681B68284A93420FD13B681B687F
:10136000122B0BD1FB685B6823F40002FB685A6008
:10137000FB685B6843F48002FB685A607B681B680B
:101380001D4A93422BD13B681B681C4A934203D0F1
:101390003B681B68112B22D1FB685B6823F4800239
:1013A000FB685A60FB685B6843F40002FB685A60A4
:1013B0003B681B68114A934211D1114B1B68114ABB
:1013C000A2FB03239A0C13469B0013445B00BB60F3
:1013D00002E0BB68013BBB60BB68002BF9D17B68B6
:1013E000002283F83C20002318461037BD4690BCED
:1013F000704700BF00230140002001401200001090
:101400003801002083DE1B4380B485B000AF7860D4
:10141000794BFB60FB685B6823F44032FB685A60E1
:10142000FB685A687B685B681A43FB685A607B6894
:101430001B687A681268526822F480725A607B686E
:101440001B687A68126851687A68126912020A4346
:101450005A607B681B687A681268526822F0407292
:101460005A607B681B687A68126851687A6892686B
:101470000A435A607B681B687A681268926822F493
:1014800000629A607B681B687A68126891687A6863
:10149000D2680A439A607B689B6A584A934222D07A
:1014A0007B681B687A681268926822F070629A60A2
:1014B0007B681B687A68126891687A68926A0A4346
:1014C0009A607B681B687A681268926822F04052C2
:1014D0009A607B681B687A68126891687A68D26A39
:1014E0000A439A600FE07B681B687A68126892680A
:1014F00022F070629A607B681B687A681268926852
:1015000022F040529A607B681B687A681268926881
:1015100022F002029A607B681B687A681268916800
:101520007A68127E52000A439A607B6893F82030F2
:10153000002B1BD07B681B687A681268526842F4E3
:1015400000625A607B681B687A681268526822F4ED
:1015500060425A607B681B687A68126851687A68D2
:10156000526A013A52030A435A6007E07B681B68DB
:101570007A681268526822F400625A607B681B68BD
:101580007A681268D26A22F47002DA627B681B6899
:101590007A681268D16A7A68D269013A12050A43F8
:1015A000DA627B681B687A681268926822F40072BB
:1015B0009A607B681B687A68126891687A6892F80A
:1015C000302052020A439A607B681B687A6812686E
:1015D000926822F480629A607B681B687A6812685D
:1015E00091687A68526992020A439A6000BF143780
:1015F000BD465DF8047B7047002301400100000FE9
:1016000080B485B000AF78607B6803F00703FB60AF
:101610000C4BDB68BB60BA684FF6FF031340BB603E
:10162000FB681A02BB68134343F0BF6343F4003303
:10163000BB60044ABB68D36000BF1437BD465DF889
:10164000047B704700ED00E080B400AF044BDB6822
:101650001B0A03F007031846BD465DF8047B70477C
:1016600000ED00E080B483B000AF0346FB7197F952
:101670000730002B0BDB094997F907305B09FA7932
:1016800002F01F02012000FA02F241F8232000BFFD
:101690000C37BD465DF8047B704700BF00E100E0F9
:1016A00080B483B000AF03463960FB7197F907300F
:1016B000002B0ADB0D4997F907303A68D2B21201C4
:1016C000D2B20B4483F800230AE00949FB7903F006
:1016D0000F03043B3A68D2B21201D2B20B441A761D
:1016E00000BF0C37BD465DF8047B704700E100E0A9
:1016F00000ED00E080B489B000AFF860B9607A60B6
:10170000FB6803F00703FB61FB69C3F10703042BCC
:1017100028BF0423BB61FB690433062B02D9FB6994
:10172000033B00E000237B610122BB6902FA03F363
:101730005A1EBB681A407B699A4001217B6901FAF5
:1017400003F3591E7B680B40134318462437BD46EC
:101750005DF8047B7047000080B582B000AF786010
:101760007B68013BB3F1807F01D301230FE00A4A7C
:101770007B68013B53600F214FF0FF30FFF790FF74
:10178000054B00229A60044B07221A60002318467A
:101790000837BD4680BD00BF10E000E080B582B0D4
:1017A00000AF78607868FFF72BFF00BF0837BD46B1
:1017B00080BD80B586B000AF0346B9607A60FB7328
:1017C00000237B61FFF740FF78617A68B968786928
:1017D000FFF790FF024697F90F3011461846FFF7C2
:1017E0005FFF00BF1837BD4680BD80B582B000AF37
:1017F0000346FB7197F907301846FFF733FF00BF28
:101800000837BD4680BD80B582B000AF786078688B
:10181000FFF7A2FF034618460837BD4680BD00000B
:1018200080B586B000AF786000237B61FFF746FC8F
:1018300038617B68002B01D1012399E07B6800228D
:1018400083F834207B68022283F835207B681B688C
:101850007A681268126822F001021A600FE0FFF73E
:101860002DFC02463B69D31A052B08D97B68202240
:101870005A657B68032283F83520032378E07B6870
:101880001B681B6803F00103002BE8D17B681B6811
:101890001B687B617A69384B13407B617B685A68AF
:1018A0007B689B681A437B68DB681A437B681B690B
:1018B0001A437B685B691A437B689B691A437B68A0
:1018C000DB691A437B681B6A13437A6913437B61A4
:1018D0007B685B6A042B07D17B68DA6A7B681B6BC9
:1018E00013437A6913437B617B681B687A691A60CA
:1018F0007B681B685B697B617B6923F007037B6105
:101900007B685B6A7A6913437B617B685B6A042B43
:1019100017D17B689B6A7A6913437B617B68DB6ABA
:10192000002B0ED0786800F091FA0346002B08D007
:101930007B6840225A657B68012283F835200123A9
:1019400016E07B681B687A695A61786800F048FA8B
:101950000346FB607B68DB6D3F229A40FB689A6020
:101960007B6800225A657B68012283F835200023BA
:1019700018461837BD4680BD3F8010F080B586B050
:1019800000AFF860B9607A603B600023FB75FB68CC
:101990009B6D3B61FB6893F83430012B01D102232E
:1019A00040E0FB68012283F83420FB6893F835306F
:1019B000DBB2012B2FD1FB68022283F83520FB68B4
:1019C00000225A653B687A68B968F86800F0DAF96D
:1019D000FB68DB6D3F229A403B699A60FB681B689D
:1019E000FA681268126842F016021A60FB681B6CF3
:1019F000002B07D0FB681B68FA681268126842F077
:101A000008021A60FB681B68FA681268126842F0E4
:101A100001021A6005E0FB68002283F834200223EB
:101A2000FB75FB7D18461837BD4680BD80B483B07A
:101A300000AF78607B6893F83530DBB2022B04D0BE
:101A40007B6880225A6501230CE07B68052283F8BD
:101A500035207B681B687A681268126822F00102E0
:101A60001A60002318460C37BD465DF8047B7047AA
:101A700080B586B000AF78600023BB60924B1B68D6
:101A8000924AA2FB03239B0A7B617B689B6D3B61AF
:101A90003B691B68FB607B68DB6D08229A40FB6832
:101AA0001340002B1AD07B681B681B6803F00403EB
:101AB000002B13D07B681B687A681268126822F0CA
:101AC00004021A607B68DB6D08229A403B699A60C9
:101AD0007B685B6D43F001027B685A657B68DB6D58
:101AE00001229A40FB681340002B12D07B681B68D0
:101AF0005B6903F08003002B0BD07B68DB6D012258
:101B00009A403B699A607B685B6D43F002027B6898
:101B10005A657B68DB6D04229A40FB681340002BFA
:101B200012D07B681B681B6803F00203002B0BD0EC
:101B30007B68DB6D04229A403B699A607B685B6D31
:101B400043F004027B685A657B68DB6D10229A4083
:101B5000FB681340002B43D07B681B681B6803F0B5
:101B60000803002B3CD07B68DB6D10229A403B6958
:101B70009A607B681B681B6803F48023002B18D0D5
:101B80007B681B681B6803F40023002B08D17B686B
:101B90001B6C002B24D07B681B6C786898471FE077
:101BA0007B689B6C002B1BD07B689B6C786898478C
:101BB00016E07B681B681B6803F48073002B07D159
:101BC0007B681B687A681268126822F008021A6043
:101BD0007B681B6C002B03D07B681B6C7868984774
:101BE0007B68DB6D20229A40FB681340002B00F0DD
:101BF0008E807B681B681B6803F01003002B00F0CD
:101C000086807B68DB6D20229A403B699A607B6806
:101C100093F83530DBB2052B36D17B681B687A68C8
:101C20001268126822F016021A607B681B687A68D4
:101C30001268526922F080025A617B681B6C002B8B
:101C400003D17B689B6C002B07D07B681B687A688C
:101C50001268126822F008021A607B68DB6D3F226E
:101C60009A403B699A607B68002283F834207B6845
:101C7000012283F835207B681B6D002B7DD07B68AB
:101C80001B6D7868984778E07B681B681B6803F4D5
:101C90008023002B1CD07B681B681B6803F4002387
:101CA000002B08D17B685B6C002B30D07B685B6CB1
:101CB000786898472BE07B68DB6B002B27D07B682C
:101CC000DB6B7868984722E038010020B5814E1B15
:101CD0007B681B681B6803F48073002B0FD17B6843
:101CE0001B687A681268126822F010021A607B681A
:101CF000002283F834207B68012283F835207B683A
:101D0000DB6B002B03D07B68DB6B786898477B68C4
:101D10005B6D002B32D07B685B6D03F00103002B01
:101D200022D07B68052283F835207B681B687A689F
:101D30001268126822F001021A60BB680133BB60AE
:101D40007A69934207D87B681B681B6803F001031C
:101D5000002BF2D100E000BF7B68002283F8342022
:101D60007B68012283F835207B68DB6C002B05D073
:101D70007B68DB6C7868984700E000BF1837BD4689
:101D800080BD00BF80B485B000AFF860B9607A60F4
:101D90003B60FB681B68FA681268126822F48022B4
:101DA0001A60FB681B683A685A60FB689B68402BA6
:101DB00008D1FB681B687A689A60FB681B68BA6880
:101DC000DA6007E0FB681B68BA689A60FB681B680A
:101DD0007A68DA6000BF1437BD465DF8047B70474F
:101DE00080B485B000AF78607B681B68DBB2103BC5
:101DF000144AA2FB03231B09FB60134AFB6813442C
:101E00001B781A467B68DA65FB68032B09D97B6867
:101E10001B6823F47F7323F003031A1D7B689A6504
:101E200007E07B681B6823F47F7323F003037A6861
:101E300093657B689B6D18461437BD465DF8047B3F
:101E4000704700BFABAAAAAA84F6000880B485B088
:101E500000AF78600023FB737B689B6ABB607B6884
:101E60009B69002B1FD1BB68032B55D801A252F8E8
:101E700023F000BF851E0008971E0008851E00087D
:101E8000191F00087B68DB6A03F08073002B45D0C4
:101E90000123FB7342E07B68DB6AB3F1C07F3FD173
:101EA0000123FB733CE07B689B69B3F5005F21D1A4
:101EB000BB68032B36D801A252F823F0CD1E0008D0
:101EC000D31E0008CD1E0008E51E00080123FB7389
:101ED0002FE07B68DB6A03F08073002B24D00123A2
:101EE000FB7321E07B68DB6AB3F1C07F1ED1012365
:101EF000FB731BE0BB68022B02D9032B03D018E055
:101F00000123FB7315E07B68DB6A03F08073002B11
:101F10000ED00123FB730BE000BF0AE000BF08E016
:101F200000BF06E000BF04E000BF02E000BF00E029
:101F300000BFFB7B18461437BD465DF8047B704735
:101F400080B489B000AF7860396000237B610023E2
:101F50003B610023BB610023FB6165E10122FB695A
:101F600002FA03F37B613B681A687B6913403B61AB
:101F70003A697B699A4240F054813B685B68012B67
:101F80000BD03B685B68022B07D03B685B68112B6A
:101F900003D03B685B68122B30D17B689B68BB61C8
:101FA000FB695B00032202FA03F3DB43BA691340C7
:101FB000BB613B68DA68FB695B0002FA03F3BA694C
:101FC0001343BB617B68BA699A607B685B68BB61DD
:101FD0000122FB6902FA03F3DB43BA691340BB61D8
:101FE0003B685B681B0903F00102FB6902FA03F31B
:101FF000BA691343BB617B68BA695A607B68DB6866
:10200000BB61FB695B00032202FA03F3DB43BA699D
:102010001340BB613B689A68FB695B0002FA03F3FB
:10202000BA691343BB617B68BA69DA603B685B6875
:10203000022B03D03B685B68122B23D1FB69DA08C3
:102040007B68083253F82230BB61FB6903F0070359
:102050009B000F2202FA03F3DB43BA691340BB6112
:102060003B681A69FB6903F007039B0002FA03F35C
:10207000BA691343BB61FB69DA087B680832B96946
:1020800043F822107B681B68BB61FB695B0003227D
:1020900002FA03F3DB43BA691340BB613B685B6838
:1020A00003F00302FB695B0002FA03F3BA6913430E
:1020B000BB617B68BA691A603B685B6803F0805358
:1020C000002B00F0AE800023FB605C4A5B4B5B6C36
:1020D00043F480435364594B5B6C03F48043FB60CF
:1020E000FB68574AFB699B08023352F82330BB61F7
:1020F000FB6903F003039B000F2202FA03F3DB43A7
:10210000BA691340BB617B684E4A934225D07B6815
:102110004D4A93421FD07B684C4A934219D07B684A
:102120004B4A934213D07B684A4A93420DD07B6856
:10213000494A934207D07B68484A934201D106231B
:102140000CE007230AE0052308E0042306E003234C
:1021500004E0022302E0012300E00023FA6902F018
:10216000030292009340BA691343BB613449FB698F
:102170009B080233BA6941F82320394B1B68BB61C5
:102180003B69DB43BA691340BB613B685B6803F49E
:102190008033002B03D0BA693B691343BB61304ADB
:1021A000BB6913602E4B5B68BB613B69DB43BA695B
:1021B0001340BB613B685B6803F40033002B03D022
:1021C000BA693B691343BB61254ABB695360244B21
:1021D0009B68BB613B69DB43BA691340BB613B68E9
:1021E0005B6803F48013002B03D0BA693B69134387
:1021F000BB611B4ABB699360194BDB68BB613B69E0
:10220000DB43BA691340BB613B685B6803F40013AE
:10221000002B03D0BA693B691343BB61104ABB6909
:10222000D360FB690133FB61FB690F2B7FF696AE30
:1022300000BF2437BD465DF8047B7047003802407C
:102240000038014000000240000402400008024043
:10225000000C02400010024000140240001802402E
:10226000003C014080B485B000AF78600B467B80B5
:102270007B681A697B881340002B02D00123FB7313
:1022800001E00023FB73FB7B18461437BD465DF865
:10229000047B704780B483B000AF78600B467B80CE
:1022A00013467B707B78002B03D07A887B689A6119
:1022B00003E07B881A047B689A6100BF0C37BD4637
:1022C0005DF8047B704780B483B000AF78600B4644
:1022D0007B807B685A697B881A407B889A4204D14C
:1022E0007B881A047B689A6102E07A887B689A612D
:1022F00000BF0C37BD465DF8047B704790B585B0D4
:1023000000AF78607B68002B01D101231FE17B685F
:1023100093F83D30DBB2002B06D17B68002283F8B6
:102320003C20786808F082FB7B68242283F83D20FB
:102330007B681B687A681268126822F001021A60D2
:102340007B681B687A681268126842F400421A605F
:102350007B681B687A681268126822F400421A606F
:1023600000F046FAF8607B685B687B4A934207D8C6
:10237000FB687A4A934294BF01230023DBB206E054
:10238000FB68774A934294BF01230023DBB2002B02
:1023900001D00123DBE0FB68724AA2FB03239B0C04
:1023A000BB607B681B687A681268526822F03F0144
:1023B000BA680A435A607B681A687B681B681B6AA4
:1023C00023F03F017B685B686348834202D8BB68A7
:1023D000013309E0BB684FF4967000FB03F36248D9
:1023E000A0FB03039B0901330B4313627B6818684E
:1023F0007B681B68DB6923F44F4222F0FF027B6895
:102400005B6855498B420DD8FB68591E7B685B6839
:102410005B00B1FBF3F30133C3F30B03042B38BFB1
:1024200004234FE07B689B68002B11D1FB685C1E86
:102430007B6859680B465B000B44B4FBF3F3013334
:10244000C3F30B03002B0CBF01230023DBB212E00C
:10245000FB685C1E7B6859680B469B000B44990027
:102460000B44B4FBF3F30133C3F30B03002B0CBF9A
:1024700001230023DBB2002B01D0012322E07B6883
:102480009B68002B0ED1FB685C1E7B6859680B466D
:102490005B000B44B4FBF3F30133C3F30B0343F4CE
:1024A00000430FE0FB685C1E7B6859680B469B008D
:1024B0000B4499000B44B4FBF3F30133C3F30B0358
:1024C00043F440431343C3617B681B687A68126816
:1024D000126822F0C0017A68D0697A68126A0243F1
:1024E0000A431A607B681A687B681B689B6823F440
:1024F000034323F0FF03796808697968C9680143D9
:102500000B4393607B681B687A681268D26822F07C
:10251000FF017A6850697A68926902430A43DA6077
:102520007B681B687A681268126842F001021A60C0
:102530007B6800221A647B68202283F83D207B6838
:1025400000221A637B68002283F83E20002318468D
:102550001437BD4690BD00BFA08601007F841E00D9
:10256000FF083D0083DE1B43D34D621080B582B06F
:1025700000AF00237B6000233B60204A1F4B1B6C95
:1025800043F0805313641D4B1B6C03F080533B607E
:102590003B681B4B01221A60FEF790FD786009E052
:1025A000FEF78CFD02467B68D31AB3F57A7F01D91A
:1025B00003231FE0134B5B6803F48033B3F5803FC4
:1025C000EED1114B01221A60FEF778FD786009E028
:1025D000FEF774FD02467B68D31AB3F57A7F01D902
:1025E000032307E0074B5B6803F40033B3F5003FB8
:1025F000EED1002318460837BD4680BD00380240A2
:1026000040000E420070004044000E4280B584B08D
:1026100000AF786039607B68002B01D10123CCE0EA
:10262000684B1B6803F00F023B689A420CD2654B63
:102630003A68D2B21A70634B1B6803F00F023B6812
:102640009A4201D00123B8E07B681B6803F00203C3
:10265000002B20D07B681B6803F00403002B05D0FF
:10266000594A594B9B6843F4E05393607B681B685D
:1026700003F00803002B05D0534A534B9B6843F4E7
:10268000604393605049504B9B6823F0F0027B6895
:102690009B6813438B607B681B6803F00103002B6E
:1026A00044D07B685B68012B07D1474B1B6803F460
:1026B0000033002B19D101237FE07B685B68022B7C
:1026C00003D07B685B68032B07D13F4B1B6803F08B
:1026D0000073002B09D101236FE03B4B1B6803F013
:1026E0000203002B01D1012367E03749364B9B6879
:1026F00023F003027B685B6813438B60FEF7DEFC0C
:10270000F8600AE0FEF7DAFC0246FB68D31A41F2F1
:102710008832934201D903234FE02B4B9B6803F08F
:102720000C027B685B689B009A42EBD1254B1B68CF
:1027300003F00F023B689A420CD9224B3A68D2B29E
:102740001A70204B1B6803F00F023B689A4201D0BD
:10275000012332E07B681B6803F00403002B08D0E0
:102760001949194B9B6823F4E0527B68DB681343DB
:102770008B607B681B6803F00803002B09D01249AB
:10278000114B9B6823F460427B681B69DB00134399
:102790008B6000F07FFB01460B4B9B681B0903F02D
:1027A0000F030A4AD35C21FA03F3094A1360094B69
:1027B0001B681846FEF73EFC002318461037BD463E
:1027C00080BD00BF003C0240003802408CF600088B
:1027D000380100200000002080B400AF034B1B68CC
:1027E0001846BD465DF8047B704700BF38010020E5
:1027F00080B500AFFFF7F0FF0146054B9B689B0AD1
:1028000003F00703034AD35C21FA03F3184680BDA3
:10281000003802409CF6000880B500AFFFF7DCFFEF
:102820000146054B9B685B0B03F00703034AD35C2F
:1028300021FA03F3184680BD003802409CF60008D8
:1028400080B58CB000AF786000237B6200233B62D0
:102850000023FB610023BB6100237B6100233B61FC
:102860000023FB600023FB620023BB627B681B68C4
:1028700003F00103002B10D06F496F4BD3F88C305D
:1028800023F0C0627B689B6B1343C1F88C307B687C
:102890009B6B002B01D10123FB627B681B6803F05B
:1028A0000203002B10D06449634BD3F88C3023F023
:1028B000C0527B68DB6B1343C1F88C307B68DB6BE9
:1028C000002B01D10123FB627B681B6803F004032A
:1028D000002B17D05849584BD3F88C3023F44012B2
:1028E0007B681B6B1343C1F88C307B681B6BB3F5A3
:1028F000801F01D10123FB627B681B6B002B01D180
:102900000123BB627B681B6803F00803002B17D010
:102910004949494BD3F88C3023F440027B685B6B08
:102920001343C1F88C307B685B6BB3F5800F01D12A
:102930000123FB627B685B6B002B01D10123BB622F
:102940007B681B6803F02003002B00F08A800023C3
:10295000BB60394A384B1B6C43F080531364364BD1
:102960001B6C03F08053BB60BB68344A334B1B685D
:1029700043F480731360FEF7A1FB786208E0FEF772
:102980009DFB02467B6AD31A022B01D9032378E20E
:102990002A4B1B6803F48073002BF0D0264B1B6F6F
:1029A00003F440733B623B6A002B2FD07B681B6CA7
:1029B00003F440723B6A9A4228D01F4B1B6F23F4EA
:1029C00040733B621E4B01221A601D4B00221A60AD
:1029D000194A3B6A1367184B1B6F03F00103012B65
:1029E00014D1FEF76BFB78620AE0FEF767FB024644
:1029F0007B6AD31A41F28832934201D9032340E221
:102A00000D4B1B6F03F00203002BEED07B681B6C99
:102A100003F44073B3F5407F14D10749064B9B681C
:102A200023F4F8127B681B6C23F0704323F440738B
:102A300013438B600CE000BF003802400070004080
:102A4000400E47424A4A4A4B9B6823F4F81393606E
:102A50004749474B1A6F7B681B6CC3F30B03134347
:102A60000B677B681B6803F01003002B04D0414AFE
:102A70007B6893F8583013607B681B6803F0800311
:102A8000002B0AD03A493A4BD3F8943023F4400251
:102A90007B68DB6C1343C1F894307B681B6803F0E0
:102AA0004003002B0AD03249314BD3F8943023F045
:102AB00080627B689B6C1343C1F894307B681B6811
:102AC00003F48073002B11D02949294BD3F894309B
:102AD00023F000627B685B6D1343C1F894307B6820
:102AE0005B6DB3F1006F01D10123BB627B681B6892
:102AF00003F40073002B0AD01D491D4BD3F894300A
:102B000023F080527B685B6C1343C1F894307B6880
:102B10001B6803F48063002B11D01549144BD3F8C4
:102B2000943023F000527B681B6D1343C1F894303E
:102B30007B681B6DB3F1005F01D10123FB62FB6A6F
:102B4000012B05D07B681B68B3F5006F40F0FF8058
:102B5000094B00221A60FEF7B1FA78620EE0FEF728
:102B6000ADFA02467B6AD31A022B07D9032388E108
:102B700000380240E0114742680047427E4B1B6824
:102B800003F00063002BEAD17B681B6803F00103AC
:102B9000002B03D07B689B6B002B09D07B681B68E4
:102BA00003F00203002B28D07B68DB6B002B24D1C1
:102BB000714BD3F884301B0C03F0030301335B002B
:102BC000FB616D4BD3F884301B0E03F00F03BB6128
:102BD00069497B685A687B689B689B011A43FB695B
:102BE0005B08013B1B041A43BB691B061A437B6845
:102BF0005B691B071343C1F884307B681B6803F0D3
:102C00000403002B04D07B681B6BB3F5801F0AD034
:102C10007B681B6803F00803002B35D07B685B6B77
:102C2000B3F5800F30D1544BD3F884301B0C03F034
:102C3000030301335B00FB614F4BD3F884301B0F60
:102C400003F007037B614C497B685A687B689B688B
:102C50009B011A43FB695B08013B1B041A437B6819
:102C60001B691B061A437B691B071343C1F8843099
:102C70004149414BD3F88C3023F01F027B689B6A9B
:102C8000013B1343C1F88C307B681B6803F48063FD
:102C9000002B29D07B681B6DB3F1005F24D1364B2C
:102CA000D3F884301B0C03F0030301335B00BB61DA
:102CB000314BD3F884301B0F03F007037B612E499F
:102CC0007B685A687B689B689B011A437B68DB685A
:102CD0005B08013B1B041A43BB691B061A437B6953
:102CE0001B071343C1F884307B681B6803F400633F
:102CF000002B16D020497B685A687B689B689B0133
:102D00001A437B68DB685B08013B1B041A437B6842
:102D10001B691B061A437B685B691B071343C1F8D9
:102D20008430164B01221A60FEF7C8F9786208E079
:102D3000FEF7C4F902467B6AD31A022B01D903239A
:102D40009FE00D4B1B6803F00063002BF0D0BB6AC3
:102D5000012B40F095800A4B00221A60FEF7AEF975
:102D600078620FE0FEF7AAF902467B6AD31A022BBB
:102D700008D9032385E000BF0038024068004742BD
:102D800070004742414B1B6803F00053B3F1005FF2
:102D9000E8D07B681B6803F00403002B03D07B683A
:102DA0001B6B002B09D07B681B6803F00803002B0A
:102DB0002BD07B685B6B002B27D1344BD3F888304A
:102DC0001B0C03F0030301335B003B612F497B685D
:102DD0009A697B68DB699B011A433B695B08013B8D
:102DE0001B041A437B685B6A1B061343C1F88830D7
:102DF0002649264BD3F88C3023F4F8527B68DB6AE3
:102E0000013B1B021343C1F88C307B681B6803F441
:102E10008073002B1DD07B685B6DB3F1006F18D100
:102E20001A4BD3F888301B0E03F00F03FB601749D1
:102E30007B689A697B68DB699B011A437B681B6A24
:102E40005B08013B1B041A43FB681B061343C1F8D4
:102E500088300F4B01221A60FEF730F9786208E0E3
:102E6000FEF72CF902467B6AD31A022B01D9032301
:102E700007E0064B1B6803F00053B3F1005FEFD18E
:102E8000002318463037BD4680BD00BF00380240E1
:102E9000700047422DE9F04F91B000AF00237B63F3
:102EA0000023FB6300233B630023FB620023BB631F
:102EB0009E4B9B6803F00C030C2B00F22D8101A2AA
:102EC00052F823F0F92E00081931000819310008D2
:102ED00019310008FF2E00081931000819310008C7
:102EE00019310008052F00081931000819310008B0
:102EF000193100081B3000088D4BBB630FE18D4B6F
:102F0000BB630CE1894B5B6803F03F037B63874B3A
:102F10005B6803F48003002B23D0844B5B689B0920
:102F20004FF0000440F2FF114FF0000203EA0103EA
:102F300004EA02047F4A02FB04F1002202FB03F2CE
:102F40000A447C49A3FB0101531819467B6B4FF0DF
:102F500000041A462346FDF7C3FE03460C46FB63F6
:102F60004DE0724B5B689B094FF0000440F2FF118B
:102F70004FF0000201EA030102EA04020B46144684
:102F800060017862786A40EAD36078625B013B62F4
:102F9000D7E908345B1A64EB02044FEA841949EA62
:102FA00093694FEA8318B8EB030869EB04094FEA09
:102FB000C903FB61FB6943EA5873FB614FEAC8032D
:102FC000BB61D7E9068918EB010849EB02094FEA12
:102FD00089237B617B6943EA98537B614FEA8823AD
:102FE0003B61D7E90489404649467B6B4FF00004BA
:102FF0001A462346FDF774FE03460C46FB634B4B13
:103000005B681B0C03F0030301335B003B63FA6B4B
:103010003B6BB2FBF3F3BB6381E0444B5B6803F0B3
:103020003F037B63414B5B6803F48003002B23D099
:103030003E4B5B689B094FF0000440F2FF114FF0DC
:10304000000203EA010304EA02043A4A02FB04F123
:10305000002202FB03F20A443649A3FB0101531884
:1030600019467B6B4FF000041A462346FDF738FEE5
:1030700003460C46FB6343E02C4B5B689B094FF017
:10308000000440F2FF114FF0000201EA030102EADE
:1030900004020B4614466001F860F86840EAD36009
:1030A000F8605B01BB60D7E902345B1A64EB020491
:1030B000A60146EA93669D01ED1A66EB0406F3004D
:1030C0007B607B6843EA55737B60EB003B6097E86D
:1030D00060006D1846EB02064FEA862B4BEA955BC3
:1030E0004FEA852A55465E46284631467B6B4FF0AF
:1030F00000041A462346FDF7F3FD03460C46FB6326
:103100000A4B5B681B0F03F00703FB62FA6BFB6A59
:10311000B2FBF3F3BB6302E0054BBB6300BFBB6BC9
:1031200018464437BD46BDE8F08F00BF0038024066
:103130000024F40040787D0180B586B000AF78604F
:1031400000233B617B681B6803F00103002B00F048
:103150008380954B9B6803F00C03042B19D0924B92
:103160009B6803F00C03082B06D18F4B5B6803F4BC
:103170008003B3F5800F0CD08B4B9B6803F00C03DE
:103180000C2B12D1884B5B6803F48003B3F5800FDE
:103190000BD1854B1B6803F40033002B5BD07B689D
:1031A0005B68002B57D1012316E27B685B68B3F59F
:1031B000803F06D17C4A7C4B1B6843F4803313600C
:1031C0001DE07B685B68B3F5A02F0CD1764A764B87
:1031D0001B6843F480231360734A734B1B6843F4EA
:1031E000803313600BE0704A6F4B1B6823F480330D
:1031F00013606D4A6C4B1B6823F4802313607B685B
:103200005B68002B13D0FDF759FF386108E0FDF72C
:1032100055FF02463B69D31A642B01D90323DBE136
:10322000614B1B6803F40033002BF0D014E0FDF772
:1032300045FF386108E0FDF741FF02463B69D31ABC
:10324000642B01D90323C7E1574B1B6803F40033F8
:10325000002BF0D100E000BF7B681B6803F0020385
:10326000002B6FD0504B9B6803F00C03002B17D042
:103270004D4B9B6803F00C03082B05D14A4B5B6850
:1032800003F48003002B0BD0474B9B6803F00C0327
:103290000C2B1CD1444B5B6803F48003002B16D12C
:1032A000414B1B6803F00203002B05D07B68DB68F1
:1032B000012B01D001238FE13B493B4B1B6823F0DD
:1032C000F8027B681B69DB0013430B603AE07B6804
:1032D000DB68002B20D0354B01221A60FDF7EEFE93
:1032E000386108E0FDF7EAFE02463B69D31A022B7B
:1032F00001D9032370E12C4B1B6803F00203002B60
:10330000F0D02949284B1B6823F0F8027B681B6921
:10331000DB0013430B6015E0244B00221A60FDF71D
:10332000CDFE386108E0FDF7C9FE02463B69D31ABD
:10333000022B01D903234FE11B4B1B6803F002034F
:10334000002BF0D17B681B6803F00803002B37D0FB
:103350007B685B69002B16D0154B01221A60FDF7C4
:10336000ADFE386108E0FDF7A9FE02463B69D31ABD
:10337000022B01D903232FE10B4B5B6F03F00203F8
:10338000002BF0D01CE00A4B00221A60FDF796FEDD
:1033900038610FE0FDF792FE02463B69D31A022B1B
:1033A00008D9032318E100BF00380240000047425B
:1033B000800E47428A4B5B6F03F00203002BE9D17A
:1033C0007B681B6803F00403002B00F09780002348
:1033D000FB75834B1B6C03F08053002B0FD1002334
:1033E000FB607F4A7E4B1B6C43F0805313647C4B25
:1033F0001B6C03F08053FB60FB680123FB75794B6A
:103400001B6803F48073002B18D1764A754B1B6838
:1034100043F480731360FDF751FE386108E0FDF757
:103420004DFE02463B69D31A022B01D90323D3E098
:103430006C4B1B6803F48073002BF0D07B689B6897
:10344000012B06D1664A664B1B6F43F001031367DD
:103450001CE07B689B68052B0CD1614A604B1B6F9D
:1034600043F0040313675E4A5D4B1B6F43F0010397
:1034700013670BE05A4A5A4B1B6F23F00103136783
:10348000574A574B1B6F23F0040313677B689B68F5
:10349000002B15D0FDF712FE38610AE0FDF70EFE95
:1034A00002463B69D31A41F28832934201D9032381
:1034B00092E04B4B1B6F03F00203002BEED014E0A5
:1034C000FDF7FCFD38610AE0FDF7F8FD02463B69B7
:1034D000D31A41F28832934201D903237CE0404B56
:1034E0001B6F03F00203002BEED1FB7D012B05D1F6
:1034F0003B4A3B4B1B6C23F0805313647B689B69F6
:10350000002B68D0364B9B6803F00C03082B60D06F
:103510007B689B69022B45D1334B00221A60FDF773
:10352000CDFD386108E0FDF7C9FD02463B69D31ABD
:10353000022B01D903234FE0294B1B6803F00073D2
:10354000002BF0D126497B68DA697B681B6A1A4335
:103550007B685B6A9B011A437B689B6A5B08013B43
:103560001B041A437B68DB6A1B061A437B681B6BD0
:103570001B0713434B601C4B01221A60FDF79EFD95
:10358000386108E0FDF79AFD02463B69D31A022B29
:1035900001D9032320E0124B1B6803F00073002BBA
:1035A000F0D018E0104B00221A60FDF787FD38615B
:1035B00008E0FDF783FD02463B69D31A022B01D9CF
:1035C000032309E0064B1B6803F00073002BF0D1C6
:1035D00001E0012300E0002318461837BD4680BDF6
:1035E00000380240007000406000474280B582B061
:1035F00000AF78607B68002B01D1012383E07B68FA
:103600005B7FDBB2002B05D17B6800221A777868DC
:1036100007F054FA7B6802225A777B681B68CA223B
:103620005A627B681B6853225A62786800F097F8E8
:103630000346002B08D07B681B68FF225A627B6818
:1036400004225A7701235EE07B681A687B681B6856
:103650009B6823F4E00323F0400393607B681B68BE
:103660007A68126891687A6850687A6812691043BB
:103670007A68526902430A439A607B681B687A68D9
:10368000D2681A617B681B687A68126811697A6867
:10369000926812040A431A617B681B687A68126890
:1036A000D26822F08002DA607B681B689B6803F0B6
:1036B0002003002B0ED1786800F029F80346002B78
:1036C00008D07B681B68FF225A627B6804225A7705
:1036D000012318E07B681B687A681268126C22F478
:1036E00080221A647B681B687A681268116C7A6899
:1036F00092690A431A647B681B68FF225A627B68DE
:1037000001225A77002318460837BD4680BD80B590
:1037100084B000AF78600023FB607B681B687A6828
:103720001268D26822F0A002DA60FDF7C7FCF860E8
:1037300009E0FDF7C3FC0246FB68D31AB3F57A7FB4
:1037400001D9032307E07B681B68DB6803F02003D3
:10375000002BEED0002318461037BD4680BD80B543
:1037600084B000AF78600023FB607B681B68DB6877
:1037700003F04003002B19D17B681B684FF0FF3228
:10378000DA60FDF79BFCF86009E0FDF797FC024664
:10379000FB68D31AB3F57A7F01D9032307E07B686E
:1037A0001B68DB6803F04003002BEED000231846B3
:1037B0001037BD4680BD80B582B000AF78607B68B1
:1037C000002B01D1012355E07B6800229A627B68BF
:1037D00093F85130DBB2002B06D17B68002283F8CE
:1037E0005020786807F080F97B68022283F8512026
:1037F0007B681B687A681268126822F040021A60BF
:103800007B681B687A6851687A68926811437A68A5
:10381000D26811437A68126911437A685269114378
:103820007A68926902F4007211437A68D26911438E
:103830007A68126A11437A68926A0A431A607B684E
:103840001B687A689269120C02F004017A68526A65
:103850000A435A607B681B687A681268D26922F44E
:103860000062DA617B6800225A657B68012283F876
:103870005120002318460837BD4680BD80B582B070
:1038800000AF78607B68002B01D101231DE07B68CD
:1038900093F83D30DBB2002B06D17B68002283F821
:1038A0003C20786807F0CAF97B68022283F83D2043
:1038B0007B681A687B6804331946104600F0C0FB29
:1038C0007B68012283F83D20002318460837BD4657
:1038D00080BD80B485B000AF78607B68022283F839
:1038E0003D207B681B689B6803F00703FB60FB6857
:1038F000062B07D07B681B687A681268126842F052
:1039000001021A607B68012283F83D2000231846DB
:103910001437BD465DF8047B704780B485B000AFB6
:1039200078607B681B687A681268D26842F001028E
:10393000DA607B681B689B6803F00703FB60FB6829
:10394000062B07D07B681B687A681268126842F001
:1039500001021A60002318461437BD465DF8047B47
:10396000704780B582B000AF78607B68002B01D1D2
:1039700001231DE07B6893F83D30DBB2002B06D1BC
:103980007B68002283F83C20786807F035FA7B6872
:10399000022283F83D207B681A687B68043319464D
:1039A000104600F04DFB7B68012283F83D20002388
:1039B00018460837BD4680BD80B584B000AF78603A
:1039C00039607B681B6801223968184600F022FEC6
:1039D0007B681B68154A934204D07B681B68144AB5
:1039E000934201D1012300E00023002B07D07B6824
:1039F0001B687A681268526C42F400425A647B6811
:103A00001B689B6803F00703FB60FB68062B07D06D
:103A10007B681B687A681268126842F001021A60BB
:103A2000002318461037BD4680BD00BF000001408E
:103A30000004014080B582B000AF786039607B68D7
:103A40001B6800223968184600F0E4FD7B681B689B
:103A5000224A934204D07B681B68214A934201D1D9
:103A6000012300E00023002B17D07B681B681A6A33
:103A700041F211131340002B0FD17B681B681A6AA7
:103A800040F244431340002B07D17B681B687A68DF
:103A90001268526C22F400425A647B681B681A6AEE
:103AA00041F211131340002B0FD17B681B681A6A77
:103AB00040F244431340002B07D17B681B687A68AF
:103AC0001268126822F001021A607B68012283F8F2
:103AD0003D20002318460837BD4680BD0000014048
:103AE0000004014080B582B000AF78607B681B683D
:103AF0001B6903F00203022B22D17B681B68DB6881
:103B000003F00203022B1BD17B681B686FF00202DB
:103B10001A617B6801221A777B681B689B6903F036
:103B20000303002B03D0786800F06BFA05E0786897
:103B300000F05DFA786800F06EFA7B6800221A7770
:103B40007B681B681B6903F00403042B22D17B688C
:103B50001B68DB6803F00403042B1BD17B681B6824
:103B60006FF004021A617B6802221A777B681B6877
:103B70009B6903F44073002B03D0786800F041FA8E
:103B800005E0786800F033FA786800F044FA7B6862
:103B900000221A777B681B681B6903F00803082B57
:103BA00022D17B681B68DB6803F00803082B1BD15C
:103BB0007B681B686FF008021A617B6804221A7721
:103BC0007B681B68DB6903F00303002B03D0786874
:103BD00000F017FA05E0786800F009FA786800F05C
:103BE0001AFA7B6800221A777B681B681B6903F04E
:103BF0001003102B22D17B681B68DB6803F01003D5
:103C0000102B1BD17B681B686FF010021A617B6858
:103C100008221A777B681B68DB6903F44073002B6A
:103C200003D0786800F0EDF905E0786800F0DFF97E
:103C3000786800F0F0F97B6800221A777B681B68CF
:103C40001B6903F00103012B0ED17B681B68DB6845
:103C500003F00103012B07D17B681B686FF00102A1
:103C60001A61786803F03AFA7B681B681B6903F0F5
:103C70008003802B0ED17B681B68DB6803F0800318
:103C8000802B07D17B681B686FF080021A6178680F
:103C900000F0BEFD7B681B681B6903F04003402BEE
:103CA0000ED17B681B68DB6803F04003402B07D113
:103CB0007B681B686FF040021A61786800F0B5F904
:103CC0007B681B681B6903F02003202B0ED17B68E7
:103CD0001B68DB6803F02003202B07D17B681B687F
:103CE0006FF020021A61786800F088FD00BF083785
:103CF000BD4680BD80B584B000AFF860B9607A6021
:103D0000FB6893F83C30012B01D10223B4E0FB683F
:103D1000012283F83C20FB68022283F83D207B6867
:103D20000C2B00F29F8001A252F823F0613D0008A5
:103D3000653E0008653E0008653E0008A13D00089C
:103D4000653E0008653E0008653E0008E33D00084A
:103D5000653E0008653E0008653E0008233E0008F9
:103D6000FB681B68B968184600F00AFAFB681B6814
:103D7000FA681268926942F008029A61FB681B684F
:103D8000FA681268926922F004029A61FB681B6863
:103D9000FA6812689169BA6812690A439A6162E026
:103DA000FB681B68B968184600F05AFAFB681B6884
:103DB000FA681268926942F400629A61FB681B68B3
:103DC000FA681268926922F480629A61FB681B6843
:103DD000FA6812689169BA68126912020A439A6114
:103DE00041E0FB681B68B968184600F0AFFAFB6851
:103DF0001B68FA681268D26942F00802DA61FB684F
:103E00001B68FA681268D26922F00402DA61FB6862
:103E10001B68FA681268D169BA6812690A43DA61E4
:103E200021E0FB681B68B968184600F003FBFB68DB
:103E30001B68FA681268D26942F40062DA61FB68B2
:103E40001B68FA681268D26922F48062DA61FB6842
:103E50001B68FA681268D169BA68126912020A43CB
:103E6000DA6100E000BFFB68012283F83D20FB68B7
:103E7000002283F83C20002318461037BD4680BD41
:103E800080B584B000AF786039607B6893F83C30CF
:103E9000012B01D10223A6E07B68012283F83C209C
:103EA0007B68022283F83D207B681B689B68FB606F
:103EB000FB6823F07703FB60FB6823F47F43FB6020
:103EC0007B681B68FA689A603B681B68402B67D068
:103ED000402B0BD8102B73D0102B02D8002B6FD097
:103EE00078E0202B6CD0302B6AD073E0702B0DD093
:103EF000702B04D8502B33D0602B41D06AE0B3F53F
:103F0000805F66D0B3F5005F17D063E07B68186808
:103F10003B6899683B685A683B68DB6800F05AFB6D
:103F20007B681B689B68FB60FB6843F07703FB6062
:103F30007B681B68FA689A604CE07B6818683B688D
:103F400099683B685A683B68DB6800F043FB7B6814
:103F50001B687A681268926842F480429A6039E07D
:103F60007B6818683B6859683B68DB681A4600F054
:103F7000B7FA7B681B685021184600F010FB29E057
:103F80007B6818683B6859683B68DB681A4600F034
:103F9000D6FA7B681B686021184600F000FB19E028
:103FA0007B6818683B6859683B68DB681A4600F014
:103FB00097FA7B681B684021184600F0F0FA09E088
:103FC0007B681A683B681B681946104600F0E7FAE0
:103FD00000E000BF7B68012283F83D207B6800225F
:103FE00083F83C20002318461037BD4680BD80B4BE
:103FF00083B000AF786000BF0C37BD465DF8047B2E
:10400000704780B483B000AF786000BF0C37BD4606
:104010005DF8047B704780B483B000AF786000BF68
:104020000C37BD465DF8047B704780B483B000AFA9
:10403000786000BF0C37BD465DF8047B7047000018
:1040400080B485B000AF786039607B681B68FB6026
:104050007B68404A934213D07B68B3F1804F0FD006
:104060007B683D4A93420BD07B683C4A934207D021
:104070007B683B4A934203D07B683A4A934208D11B
:10408000FB6823F07003FB603B685B68FA681343CE
:10409000FB607B682F4A93422BD07B68B3F1804F43
:1040A00027D07B682C4A934223D07B682B4A9342CB
:1040B0001FD07B682A4A93421BD07B68294A9342CF
:1040C00017D07B68284A934213D07B68274A9342D3
:1040D0000FD07B68264A93420BD07B68254A9342D7
:1040E00007D07B68244A934203D07B68234A9342DB
:1040F00008D1FB6823F44073FB603B68DB68FA6817
:104100001343FB60FB6823F080023B685B69134349
:10411000FB607B68FA681A603B689A687B68DA62C1
:104120003B681A687B689A627B680A4A934203D0AC
:104130007B680C4A934203D13B681A697B681A6317
:104140007B6801225A6100BF1437BD465DF8047BCD
:10415000704700BF0000014000040040000800401C
:10416000000C0040000401400040014000440140B8
:104170000048014000180040001C004000200040A2
:1041800080B487B000AF786039607B681B6A23F029
:1041900001027B681A627B681B6A7B617B685B68D3
:1041A0003B617B689B69FB60FB6823F07003FB60ED
:1041B000FB6823F00303FB603B681B68FA6813434A
:1041C000FB607B6923F002037B613B689B687A6933
:1041D00013437B617B68204A934203D07B681F4A6C
:1041E00093420CD17B6923F008037B613B68DB6859
:1041F0007A6913437B617B6923F004037B617B68ED
:10420000154A934203D07B68144A934211D13B690B
:1042100023F480733B613B6923F400733B613B688B
:104220005B693A6913433B613B689B693A69134395
:104230003B617B683A695A607B68FA689A613B68BF
:104240005A687B685A637B687A691A6200BF1C37B8
:10425000BD465DF8047B704700000140000401404A
:1042600080B487B000AF786039607B681B6A23F048
:1042700010027B681A627B681B6A7B617B685B68E3
:104280003B617B689B69FB60FB6823F4E043FB6058
:10429000FB6823F44073FB603B681B681B02FA68F1
:1042A0001343FB607B6923F020037B613B689B68C1
:1042B0001B017A6913437B617B68224A934203D0D6
:1042C0007B68214A93420DD17B6923F080037B6197
:1042D0003B68DB681B017A6913437B617B6923F0D0
:1042E00040037B617B68174A934203D07B68164A80
:1042F000934213D13B6923F480633B613B6923F410
:1043000000633B613B685B699B003A6913433B6117
:104310003B689B699B003A6913433B617B683A6940
:104320005A607B68FA689A613B685A687B689A634E
:104330007B687A691A6200BF1C37BD465DF8047B52
:10434000704700BF000001400004014080B487B006
:1043500000AF786039607B681B6A23F480727B68E9
:104360001A627B681B6A7B617B685B683B617B6868
:10437000DB69FB60FB6823F07003FB60FB6823F0E4
:104380000303FB603B681B68FA681343FB607B69AF
:1043900023F400737B613B689B681B027A691343BB
:1043A0007B617B68214A934203D07B68204A934219
:1043B0000DD17B6923F400637B613B68DB681B02E2
:1043C0007A6913437B617B6923F480637B617B683B
:1043D000164A934203D07B68154A934213D13B6936
:1043E00023F480533B613B6923F400533B613B68FA
:1043F0005B691B013A6913433B613B689B691B0185
:104400003A6913433B617B683A695A607B68FA6892
:10441000DA613B685A687B68DA637B687A691A629A
:1044200000BF1C37BD465DF8047B704700000140AB
:104430000004014080B487B000AF786039607B68C9
:104440001B6A23F480527B681A627B681B6A3B619B
:104450007B685B687B617B68DB69FB60FB6823F4DE
:10446000E043FB60FB6823F44073FB603B681B6820
:104470001B02FA681343FB603B6923F400533B6162
:104480003B689B681B033A6913433B617B68124A94
:10449000934203D07B68114A934209D17B6923F48C
:1044A00080437B613B685B699B017A6913437B6155
:1044B0007B687A695A607B68FA68DA613B685A6897
:1044C0007B681A647B683A691A6200BF1C37BD4674
:1044D0005DF8047B704700BF00000140000401400C
:1044E00080B487B000AFF860B9607A60FB681B6A7F
:1044F0007B61FB681B6A23F00102FB681A62FB68A0
:104500009B693B613B6923F0F0033B617B681B01C6
:104510003A6913433B617B6923F00A037B617A6943
:10452000BB6813437B61FB683A699A61FB687A69EF
:104530001A6200BF1C37BD465DF8047B704780B42B
:1045400087B000AFF860B9607A60FB681B6A23F03F
:104550001002FB681A62FB689B697B61FB681B6A3F
:104560003B617B6923F470437B617B681B037A6941
:1045700013437B613B6923F0A0033B61BB681B01D4
:104580003A6913433B61FB687A699A61FB683A694F
:104590001A6200BF1C37BD465DF8047B704780B4CB
:1045A00085B000AF786039607B689B68FB60FB6812
:1045B00023F07003FB603A68FB68134343F0070382
:1045C000FB607B68FA689A6000BF1437BD465DF8EF
:1045D000047B704780B487B000AFF860B9607A6040
:1045E0003B60FB689B687B617B6923F47F437B6155
:1045F0003B681A027B681A43BB6813437A6913430A
:104600007B61FB687A699A6000BF1C37BD465DF824
:10461000047B704780B487B000AFF860B9607A60FF
:10462000BB6803F01F03012202FA03F37B61FB68FE
:104630001A6A7B69DB431A40FB681A62FB681A6AD4
:10464000BB6803F01F03796801FA03F31A43FB68A0
:104650001A6200BF1C37BD465DF8047B704700003E
:1046600080B485B000AF786039607B6893F83C30E7
:10467000012B01D102235AE07B68012283F83C2000
:104680007B68022283F83D207B681B685B68FB60C7
:104690007B681B689B68BB60FB6823F07003FB6052
:1046A0003B681B68FA681343FB607B681B68FA6809
:1046B0005A607B681B68214A934222D07B681B6842
:1046C000B3F1804F1DD07B681B681D4A934218D000
:1046D0007B681B681B4A934213D07B681B681A4A8D
:1046E00093420ED07B681B68184A934209D07B68BE
:1046F0001B68174A934204D07B681B68154A934293
:104700000CD1BB6823F08003BB603B685B68BA6870
:104710001343BB607B681B68BA689A607B680122A0
:1047200083F83D207B68002283F83C200023184654
:104730001437BD465DF8047B704700BF00000140A0
:104740000004004000080040000C0040000401404C
:10475000004001400018004080B485B000AF786090
:1047600039600023FB607B6893F83C30012B01D15A
:1047700002233DE07B68012283F83C20FB6823F0A4
:10478000FF023B68DB681343FB60FB6823F4407265
:104790003B689B681343FB60FB6823F480623B68C3
:1047A0005B681343FB60FB6823F400623B681B6893
:1047B0001343FB60FB6823F480523B681B6913437F
:1047C000FB60FB6823F400523B685B691343FB60AA
:1047D000FB6823F480423B68DB691343FB607B6822
:1047E0001B68FA685A647B68002283F83C20002327
:1047F00018461437BD465DF8047B704780B483B01B
:1048000000AF786000BF0C37BD465DF8047B704791
:1048100080B483B000AF786000BF0C37BD465DF850
:10482000047B704780B582B000AF78607B68002B56
:1048300001D101233FE07B6893F83930DBB2002BD4
:1048400006D17B68002283F83820786806F0AAFC3D
:104850007B68242283F839207B681B687A68126899
:10486000D26822F40052DA60786800F02DFC7B6890
:104870001B687A681268126922F490421A617B6898
:104880001B687A681268526922F02A025A617B68B2
:104890001B687A681268D26842F40052DA607B685A
:1048A0000022DA637B68202283F839207B6820228B
:1048B00083F83A20002318460837BD4680BD000023
:1048C00080B586B000AFF860B9601346FB80FB6826
:1048D00093F83930DBB2202B53D1BB68002B02D0C8
:1048E000FB88002B01D101234CE0FB6893F83830A2
:1048F000012B01D1022345E0FB68012283F8382017
:10490000BA68FB681A62FB68FA889A84FB68FA88BE
:10491000DA84FB680022DA63FB68212283F83920FD
:10492000FB681B6B194ADA63FB681B6B184A1A6435
:10493000FB681B6B174ADA64FB681B6B00221A6565
:1049400007F108037B61FB68186B7B691968FB68DA
:104950001B6804331A46FB88FDF710F8FB681B68D8
:104960006FF040021A60FB68002283F83820FB6871
:104970001B68FA681268526942F080025A6100238B
:1049800000E0022318461837BD4680BDD54C00080C
:10499000274D0008C74D000880B586B000AFF8600D
:1049A000B9601346FB80FB6893F83A30DBB2202BEA
:1049B00066D1BB68002B02D0FB88002B01D10123FC
:1049C0005FE0FB6893F83830012B01D1022358E0F7
:1049D000FB68012283F83820BA68FB689A62FB689A
:1049E000FA889A85FB680022DA63FB68222283F842
:1049F0003A20FB685B6B254ADA63FB685B6B244AF1
:104A00001A64FB685B6B234ADA64FB685B6B002209
:104A10001A6507F108037B61FB68586BFB681B682C
:104A2000043319467B691A68FB88FCF7A7FF00234B
:104A30003B61FB681B681B683B61FB681B685B682C
:104A40003B613B69FB68002283F83820FB681B68E8
:104A5000FA681268D26842F48072DA60FB681B68F8
:104A6000FA681268526942F001025A61FB681B68D9
:104A7000FA681268526942F040025A61002300E06D
:104A8000022318461837BD4680BD00BF434D0008BD
:104A9000AB4D0008C74D000880B588B000AF786006
:104AA0007B681B681B68FB617B681B68DB68BB61FC
:104AB0007B681B685B697B6100233B610023FB60B3
:104AC000FB6903F00F033B613B69002B0DD1FB69D0
:104AD00003F02003002B08D0BB6903F02003002B58
:104AE00003D0786800F06EFAD1E03B69002B00F04B
:104AF000B0807B6903F00103002B05D1BB6903F48F
:104B00009073002B00F0A580FB6903F00103002BDC
:104B10000AD0BB6903F48073002B05D07B68DB6B84
:104B200043F001027B68DA63FB6903F00403002BA6
:104B30000AD07B6903F00103002B05D07B68DB6B97
:104B400043F002027B68DA63FB6903F00203002B87
:104B50000AD07B6903F00103002B05D07B68DB6B77
:104B600043F004027B68DA63FB6903F00803002B5F
:104B70000FD0BB6903F02003002B04D17B6903F045
:104B80000103002B05D07B68DB6B43F008027B68D8
:104B9000DA637B68DB6B002B78D0FB6903F02003C2
:104BA000002B07D0BB6903F02003002B02D07868EC
:104BB00000F008FA7B681B685B6903F04003402B38
:104BC0000CBF01230023DBB2FB607B68DB6B03F0CF
:104BD0000803002B02D1FB68002B31D0786800F06D
:104BE00052F97B681B685B6903F04003402B23D1BB
:104BF0007B681B687A681268526922F040025A6129
:104C00007B685B6B002B13D07B685B6B214A1A655A
:104C10007B685B6B1846FCF709FF0346002B16D038
:104C20007B685B6B1B6D7A68526B104698470EE091
:104C3000786804F0A1FD0AE0786804F09DFD06E0C4
:104C4000786804F099FD7B680022DA631EE000BFFB
:104C50001CE0FB6903F08003002B08D0BB6903F064
:104C60008003002B03D0786800F03FF90FE0FB6968
:104C700003F04003002B0AD0BB6903F04003002B74
:104C800005D0786800F086F900BF00E000BF20374B
:104C9000BD4680BDC34E000880B483B000AF7860CD
:104CA00000BF0C37BD465DF8047B704780B483B00D
:104CB00000AF786000BF0C37BD465DF8047B7047DD
:104CC00080B483B000AF786000BF0C37BD465DF89C
:104CD000047B704780B584B000AF78607B689B6BC5
:104CE000FB607B681B681B6803F48073002B13D187
:104CF000FB680022DA84FB681B68FA681268526954
:104D000022F080025A61FB681B68FA681268D26858
:104D100042F04002DA6002E0F86804F091FE00BF61
:104D20001037BD4680BD80B584B000AF78607B6829
:104D30009B6BFB60F868FFF7AFFF00BF1037BD4605
:104D400080BD80B584B000AF78607B689B6BFB60F2
:104D50007B681B681B6803F48073002B1ED1FB6803
:104D60000022DA85FB681B68FA681268D26822F4B0
:104D70008072DA60FB681B68FA681268526922F078
:104D800001025A61FB681B68FA681268526922F0D6
:104D900040025A61FB68202283F83A20F868FFF746
:104DA00085FF00BF1037BD4680BD80B584B000AF21
:104DB00078607B689B6BFB60F868FFF781FF00BF42
:104DC0001037BD4680BD80B584B000AF7860002349
:104DD000FB607B689B6BBB60BB681B685B6903F017
:104DE0008003802B0CBF01230023DBB2FB60BB6878
:104DF00093F83930DBB2212B08D1FB68002B05D0AA
:104E0000BB680022DA84B86800F027F8BB681B682A
:104E10005B6903F04003402B0CBF01230023DBB28E
:104E2000FB60BB6893F83A30DBB2222B08D1FB68F9
:104E3000002B05D0BB680022DA85B86800F023F8A3
:104E4000BB68DB6B43F01002BB68DA63B86804F040
:104E500093FC00BF1037BD4680BD80B483B000AF67
:104E600078607B681B687A681268D26822F0C0029A
:104E7000DA607B68202283F8392000BF0C37BD46FA
:104E80005DF8047B704780B483B000AF78607B68C6
:104E90001B687A681268D26822F49072DA607B68C4
:104EA0001B687A681268526922F001025A617B68B5
:104EB000202283F83A2000BF0C37BD465DF8047B02
:104EC000704780B584B000AF78607B689B6BFB60F7
:104ED000FB680022DA85FB680022DA84F86804F0B7
:104EE0004BFC00BF1037BD4680BD80B485B000AF1D
:104EF00078607B6893F83930DBB2212B43D17B6833
:104F00009B68B3F5805F19D17B681B6AFB607B6887
:104F10001B68FA681288C2F308025A607B681B6932
:104F2000002B05D17B681B6A9A1C7B681A620EE015
:104F30007B681B6A5A1C7B681A6208E07B681A68E7
:104F40007B681B6A581C796808621B7853607B6811
:104F5000DB8C9BB2013B9BB27A681946D184002B53
:104F60000FD17B681B687A681268D26822F08002D1
:104F7000DA607B681B687A681268D26842F0400287
:104F8000DA60002300E0022318461437BD465DF8BE
:104F9000047B704780B582B000AF78607B681B6887
:104FA0007A681268D26822F04002DA607B682022B8
:104FB00083F83920786804F043FD00231846083749
:104FC000BD4680BD80B584B000AF78607B6893F843
:104FD0003A30DBB2222B71D17B689B68B3F5805FDE
:104FE00023D17B689B6AFB607B681B69002B0ED119
:104FF0007B681B685B689BB2C3F308039AB2FB68CB
:105000001A807B689B6A9A1C7B689A6229E07B689D
:105010001B685B689BB2DBB29AB2FB681A807B6844
:105020009B6A5A1C7B689A621BE07B681B69002B99
:105030000AD17B689B6A591C7A6891627A68126807
:105040005268D2B21A700CE07B689B6A591C7A686D
:1050500091627A6812685268D2B202F07F02D2B2CC
:105060001A707B68DB8D9BB2013B9BB27A68194654
:10507000D185002B20D17B681B687A681268D268C2
:1050800022F02002DA607B681B687A681268D268B6
:1050900022F48072DA607B681B687A681268526951
:1050A00022F001025A617B68202283F83A20786856
:1050B000FFF7FCFD002302E0002300E00223184676
:1050C0001037BD4680BD00002DE9F04FA3B000AF02
:1050D000F867FB6F1968FB6F1B681B6923F440526C
:1050E000FB6FDB6813430B61FB6F9A68FB6F1B69F7
:1050F0001A43FB6F5B691A43FB6FDB691343C7F805
:105100008430FB6F1968FB6F1B68DB6823F4164261
:1051100022F00C02D7F884301343CB60FB6F196880
:10512000FB6F1B685B6923F44072FB6F9B69134341
:105130004B61FB6FDB69B3F5004F40F07181FB6F92
:105140001B68B44A934205D0FB6F1B68B24A934276
:1051500040F0B180FDF760FBC7F88000FB6F1D6871
:10516000D7F8803019464FF000020B461446DB1882
:1051700044EB04045B1844EB0204E0007864786CB0
:1051800040EA53707864DB003B64D7E9103413EBDA
:10519000010844EB020940464946FB6F5B684FF04B
:1051A0000004DB1844EB04041A462346FBF798FD81
:1051B00003460C461A46994BA3FB02235B091E01CA
:1051C000D7F8803019464FF000020B461446DB1822
:1051D00044EB04045B1844EB0204E000F863F86B52
:1051E00040EA5370F863DB00BB63D7E90E3413EB7E
:1051F000010844EB020940464946FB6F5B684FF0EB
:105200000004DB1844EB04041A462346FBF768FD50
:1052100003460C461A46814BA3FB02135B0964212B
:1052200001FB03F3D31ADB0032337C4AA2FB0323D6
:105230005B095B0003F4F8731E44D7F8803019460D
:105240004FF000020B461446DB1844EB04045B18D5
:1052500044EB0204E0007863786B40EA53707863B3
:10526000DB003B63D7E90C3413EB010844EB020984
:1052700040464946FB6F5B684FF00004DB1844EB87
:1052800004041A462346FBF72BFD03460C461A4638
:10529000624BA3FB02135B09642101FB03F3D31AE6
:1052A000DB0032335D4AA2FB03235B0903F00703F3
:1052B0003344AB6040E2FDF79BFAC7F88000FB6F18
:1052C0001A683A67D7F8803019464FF000020B464B
:1052D0001446DB1844EB04045B1844EB0204E000C2
:1052E000F862F86A40EA5370F862DB00BB62D7E903
:1052F0000A345D1844EB020628463146FB6F5B68B2
:105300004FF00004DB1844EB04041A462346FBF775
:10531000E7FC03460C461A46404BA3FB02235B09FD
:105320001E01D7F8803019464FF000020B46144694
:10533000DB1844EB04045B1844EB02044FEAC40B93
:105340004BEA537B4FEAC30A53465C4613EB010A10
:1053500044EB020B50465946FB6F5B684FF000046C
:10536000DB1844EB04041A462346FBF7B9FC03465A
:105370000C461A46294BA3FB02135B09642101FB6F
:1053800003F3D31ADB003233244AA2FB03235B0965
:105390005B0003F4F8731E44D7F8803019464FF0D1
:1053A00000020B461446DB1844EB04045B1844EB84
:1053B00002044FEAC40949EA53794FEAC308434655
:1053C0004C4613EB010844EB020940464946FB6F8B
:1053D0005B684FF00004DB1844EB04041A462346D4
:1053E000FBF77EFC03460C461A460C4BA3FB02134C
:1053F0005B09642101FB03F3D31ADB003233074A54
:10540000A2FB03235B0903F0070333443A6F936065
:1054100092E100BF00100140001401401F85EB51D4
:10542000FB6F1A68C14B9A4205D0FB6F1A68C04BDC
:105430009A4240F0BF80FDF7EFF9C7F88000FB6F9C
:105440001E68D7F8803019464FF000020B4614460C
:10545000DB1844EB04045B1844EB0204E0007862C0
:10546000786A40EA53707862DB003B62D7E908341F
:1054700013EB010844EB020940464946FB6F5B68A9
:105480004FF00004A200FA65FA6D42EA9372FA65E1
:105490009B00BB65D7E91623FBF722FC03460C46AD
:1054A0001A46A44BA3FB02235B091D01D7F88030E9
:1054B00019464FF000020B461446DB1844EB040477
:1054C0005B1844EB0204E000F861F86940EA5370AD
:1054D000F861DB00BB61D7E9063413EB010844EB4C
:1054E000020940464946FB6F5B684FF00004A2008A
:1054F0007A657A6D42EA93727A659B003B65D7E9DB
:105500001423FBF7EDFB03460C461A46894BA3FB1D
:1055100002135B09642101FB03F3D31A1B0132332D
:10552000844AA2FB03235B0903F0F0031D44D7F870
:10553000803019464FF000020B461446DB1844EB4E
:1055400004045B1844EB0204E0007861786940EAE7
:1055500053707861DB003B61D7E9043413EB010839
:1055600044EB020940464946FB6F5B684FF000047C
:10557000A200FA64FA6C42EA9372FA649B00BB647C
:10558000D7E91223FBF7ACFB03460C461A46694BDE
:10559000A3FB02135B09642101FB03F3D31A1B0174
:1055A0003233644AA2FB03235B0903F00F032B444D
:1055B000B360C1E0FDF71CF9C7F88000FB6F1B6802
:1055C000BB65D7F8803019464FF000020B461446F1
:1055D000DB1844EB04045B1844EB0204E60046EAE3
:1055E0005376DD002B4634465D1844EB0206284610
:1055F0003146FB6F5B684FF00004A5007D677D6F4F
:1056000045EA93757D679C003C67D7E91C23FBF74F
:1056100067FB03460C461A46464BA3FB02135B0985
:105620001D01D7F8803019464FF000020B46144692
:10563000DB1844EB04045B1844EB0204E000F86060
:10564000F86840EA5370F860D800B860D7E90234CF
:1056500013EB010844EB020940464946FB6F5B68C7
:105660004FF00004A600FE66FE6E46EA9376FE66E4
:105670009C00BC66D7E91A23FBF732FB03460C46B5
:105680001A462C4BA3FB02135B09642101FB03F3B5
:10569000D31A1B013233274AA2FB03135B0903F021
:1056A000F0031D44D7F8803019464FF000020B4636
:1056B0001446DB1844EB04045B1844EB0204E000DE
:1056C0007860786840EA53707860D800386097E86E
:1056D000180013EB010844EB020940464946FB6FF2
:1056E0005B684FF00004A6007E667E6E46EA937605
:1056F0007E669C003C66D7E91823FBF7F1FA034667
:105700000C461A460B4BA3FB02135B09642101FBF9
:1057100003F3D31A1B013233064AA2FB03135B09BE
:1057200003F00F032B44BA6D936005E000100140B5
:10573000001401401F85EB5100BF8C37BD46BDE80A
:10574000F08F00BF90B484B000AFF860B9607A60A9
:105750003B60FB68BA681A60FB687A685A60FB684D
:105760003A689A60FB68BA69DA60FB683A6A9A62DA
:10577000FB68FA69DA62FA684FF000034FF0000440
:10578000C2E90434FA684FF000034FF00004C2E9A4
:105790000634FA684FF000034FF00004C2E9083401
:1057A00000BF1037BD4690BC704790B58FB000AFBA
:1057B000F86187ED040B87ED021B87ED002BFA697A
:1057C000D7E90434C2E91434FA69D7E90234C2E9EA
:1057D0001634FA6997E81800C2E9183407F1200373
:1057E00007F1280207F1300197ED002B97ED021B1E
:1057F00097ED040BF86900F05FF8FB695C68FB69E2
:105800005B6897ED0C7BB0EE470AF0EE670A18462E
:1058100004F0D6FF0346E362FB699C68FB699B6862
:1058200097ED0A7BB0EE470AF0EE670A184604F0DF
:10583000C7FF0346E362FB69DC68FB69DB6897ED41
:10584000087BB0EE470AF0EE670A184604F0B8FF8E
:105850000346E36200BF3C37BD4690BD80B582B0D1
:1058600000AF78607B685B68184604F015FF7B68C2
:105870009B68184604F010FF7B68DB68184604F04C
:105880000BFF00BF0837BD4680BD80B582B000AFBA
:1058900078607B685B68184604F00EFF7B689B6845
:1058A000184604F009FF7B68DB68184604F004FF23
:1058B00000BF0837BD4680BDF0B59FB000AF78622D
:1058C00087ED060B87ED041B87ED022B39627A60AA
:1058D0003B60D7E90623D7E90601FAF7B9FE03468C
:1058E0000C4625461C46D7E90423D7E90401FAF7FC
:1058F000AFFE02460B4620462946FAF7F7FC034660
:105900000C4644EC173BB0EE470AF0EE670A07F08E
:10591000A3FC87ED1A0B7B6A9B6A002B12D0D7E998
:105920000423D7E90601FAF7BDFF03460C4644EC11
:10593000173BB0EE470AF0EE670A07F0D5F887ED9F
:105940001C0B16E0D7E90423D7E90601FAF7AAFFF2
:1059500003460C4644EC173BB0EE470AF0EE670AEC
:1059600007F0C2F854EC103B1A463A6784F0004343
:105970007B674FF00002724BD7E91A01FAF7B4FCCB
:1059800003460C46C7E91834D7E91823D7E91801AC
:10599000FAF75EFE03460C4625461C46D7E902236D
:1059A000D7E90201FAF754FE02460B462046294683
:1059B000FAF79CFC03460C4618462146FBF740F9D3
:1059C000034600EE103A07F0A1FC10EE103A18461C
:1059D000FAF7EAFD03460C46C7E91634D7E9162361
:1059E000D7E91601FAF734FE03460C46184621465D
:1059F0004FF00002534BFAF779FC03460C46184669
:105A0000214649A3D3E90023FAF76EFC03460C466E
:105A1000C7E91434D7E9160102460B46FAF766FCCB
:105A200003460C46184621464FF00002464BFAF753
:105A30000FFE03460C46C7E91234D7E91823D7E90D
:105A40000201FAF72FFF03460C4644EC173BB0EE79
:105A5000470AF0EE670A07F047F856EC105BD7E903
:105A60001223D7E91401FAF71DFF03460C4644EC54
:105A7000173BB0EE470AF0EE670A07F03DFB54EC27
:105A8000103B1A46234628463146FAF72DFC0346BA
:105A90000C46C7E91034D7E91623D7E91601FAF7FF
:105AA000D7FD03460C461A46234621A1D1E9000141
:105AB000FAF71AFC03460C46C7E90E344FF0000310
:105AC000224CC7E90C34D7E90C23D7E90E01FAF7C9
:105AD000E9FE03460C4644EC173BB0EE470AF0EEF5
