:020000040800F2
:1000000000000220E546000831460008334600089B
:100010003546000837460008394600080000000051
:100020000000000000000000000000003B46000847
:100030003D460008000000003F4600084146000819
:1000400035470008354700083547000835470008A0
:100050003547000835470008354700083547000890
:100060003547000835470008354700083547000880
:100070003547000835470008354700083547000870
:100080003547000835470008354700083547000860
:100090003547000835470008354700083547000850
:1000A0003547000835470008354700083547000840
:1000B0003547000835470008354700083547000830
:1000C0003547000835470008354700083547000820
:1000D0003547000835470008454600083547000801
:1000E0003547000835470008354700083547000800
:1000F00051460008354700083547000835470008D5
:1001000035470008354700083547000835470008DF
:1001100035470008354700083547000835470008CF
:1001200035470008354700083547000835470008BF
:1001300035470008000000000000000035470008B7
:10014000354700083547000835470008354700089F
:10015000354700083547000835470008354700088F
:10016000354700083547000835470008354700087F
:1001700035470008354700083547000800000000F3
:1001800000000000354700080000000000000000EB
:100190003547000800000000000000003547000857
:1001A00000000000000000000000000035470008CB
:1001B000354700083547000835470008354700082F
:0401C00035470008B7
:1001D00010B5054C237833B9044B13B10448AFF381
:1001E00000800123237010BDD40200200000000015
:1001F0004077000808B5034B1BB103490348AFF330
:10020000008008BD00000000D802002040770008F0
:10021000034613F8012B002AFBD1181A0138704746
:1002200001F0FF01102A2BDB10F0070F08D010F8A7
:10023000013B013A8B422DD010F0070F42B3F6D1AB
:10024000F0B441EA012141EA014122F007047FF0C4
:1002500000070023F0E80256083C85EA010586EA1B
:10026000010685FA47F5A3FA87F586FA47F6A5FA57
:1002700087F68EB9EED1F0BC01F0FF0102F0070263
:1002800032B110F8013B013A83EA010313B1F8D10E
:100290000020704701387047002D06BF35460338EF
:1002A000073815F0010F07D1013015F4807F02BF28
:1002B000013015F4C03F0130F0BC0138704700BF79
:1002C00081F0004102E000BF83F0004330B54FEA07
:1002D00041044FEA430594EA050F08BF90EA020F74
:1002E0001FBF54EA000C55EA020C7FEA645C7FEA07
:1002F000655C00F0E2804FEA5454D4EB5555B8BF2A
:100300006D420CDD2C4480EA020281EA030382EA9A
:10031000000083EA010180EA020281EA0303362D2C
:1003200088BF30BD11F0004F4FEA01314FF4801CFF
:100330004CEA113102D0404261EB410113F0004F11
:100340004FEA03334CEA133302D0524263EB4303C8
:1003500094EA050F00F0A780A4F10104D5F1200E66
:100360000DDB02FA0EFC22FA05F2801841F10001C1
:1003700003FA0EF2801843FA05F359410EE0A5F195
:1003800020050EF1200E012A03FA0EFC28BF4CF0C6
:10039000020C43FA05F3C01851EBE37101F000457C
:1003A00007D54FF0000EDCF1000C7EEB00006EEB89
:1003B0000101B1F5801F1BD3B1F5001F0CD3490813
:1003C0005FEA30004FEA3C0C04F101044FEA44526A
:1003D00012F5800F80F09A80BCF1004F08BF5FEAF1
:1003E000500C50F1000041EB045141EA050130BDD1
:1003F0005FEA4C0C404141EB010111F4801FA4F174
:100400000104E9D191F0000F04BF01460020B1FAC8
:1004100081F308BF2033A3F10B03B3F120020CDA00
:100420000C3208DD02F1140CC2F10C0201FA0CF0DE
:1004300021FA02F10CE002F11402D8BFC2F1200C43
:1004400001FA02F120FA0CFCDCBF41EA0C019040F9
:10045000E41AA2BF01EB0451294330BD6FEA040442
:100460001F3C1CDA0C340EDC04F11404C4F120022D
:1004700020FA04F001FA02F340EA030021FA04F33F
:1004800045EA030130BDC4F10C04C4F1200220FA96
:1004900002F001FA04F340EA0300294630BD21FAD4
:1004A00004F0294630BD94F0000F83F4801306BF9A
:1004B00081F480110134013D4EE77FEA645C18BF8E
:1004C0007FEA655C29D094EA050F08BF90EA020F25
:1004D00005D054EA000C04BF1946104630BD91EA1D
:1004E000030F1EBF0021002030BD5FEA545C05D120
:1004F0004000494128BF41F0004130BD14F580045F
:100500003CBF01F5801130BD01F0004545F0FE41D2
:1005100041F470014FF0000030BD7FEA645C1ABF07
:10052000194610467FEA655C1CBF0B46024650EA3E
:10053000013406BF52EA033591EA030F41F400216A
:1005400030BD00BF90F0000F04BF0021704730B5F0
:100550004FF4806404F132044FF000054FF00001C5
:1005600050E700BF90F0000F04BF0021704730B586
:100570004FF4806404F1320410F0004548BF40425B
:100580004FF000013EE700BF42004FEAE2014FEAB0
:1005900031014FEA02701FBF12F07F4393F07F4F8B
:1005A00081F06051704792F0000F14BF93F07F4FBD
:1005B000704730B54FF4607401F0004521F0004100
:1005C00020E700BF50EA010208BF704730B54FF086
:1005D00000050AE050EA010208BF704730B511F08B
:1005E000004502D5404261EB41014FF4806404F1C3
:1005F00032045FEA915C3FF4DCAE4FF003025FEA45
:10060000DC0C18BF03325FEADC0C18BF033202EBCC
:10061000DC02C2F1200300FA03FC20FA02F001FA26
:1006200003FE40EA0E0021FA02F11444C1E600BFC5
:1006300070B54FF0FF0C4CF4E06C1CEA11541DBF78
:100640001CEA135594EA0C0F95EA0C0F00F0DEF843
:100650002C4481EA030621EA4C5123EA4C5350EA28
:10066000013518BF52EA033541F4801143F4801379
:1006700038D0A0FB02CE4FF00005E1FB02E506F00A
:100680000042E0FB03E54FF00006E1FB03569CF05F
:10069000000F18BF4EF0010EA4F1FF04B6F5007F65
:1006A00064F5407404D25FEA4E0E6D4146EB0606D7
:1006B00042EAC62141EA55514FEAC52040EA5E5060
:1006C0004FEACE2EB4F1FD0C88BFBCF5E06F1ED80A
:1006D000BEF1004F08BF5FEA500E50F1000041EB41
:1006E000045170BD06F0004646EA010140EA0200EE
:1006F00081EA0301B4EB5C04C2BFD4EB0C0541EA10
:10070000045170BD41F480114FF0000E013C00F324
:10071000AB8014F1360FDEBF002001F0004170BD48
:10072000C4F10004203C35DA0C341BDC04F1140461
:10073000C4F1200500FA05F320FA04F001FA05F2ED
:1007400040EA020001F0004221F0004110EBD370BA
:1007500021FA04F642EB06015EEA430E08BF20EAE6
:10076000D37070BDC4F10C04C4F1200500FA04F389
:1007700020FA05F001FA04F240EA020001F000411B
:1007800010EBD37041F100015EEA430E08BF20EA8E
:10079000D37070BDC4F1200500FA05F24EEA020ED6
:1007A00020FA04F301FA05F243EA020321FA04F005
:1007B00001F0004121FA04F220EA020000EBD370BC
:1007C0005EEA430E08BF20EAD37070BD94F0000FBC
:1007D0000FD101F00046400041EB010111F4801FF0
:1007E00008BF013CF7D041EA060195F0000F18BFA1
:1007F000704703F00046520043EB030313F4801FDD
:1008000008BF013DF7D043EA0603704794EA0C0F96
:100810000CEA135518BF95EA0C0F0CD050EA4106AC
:1008200018BF52EA4306D1D181EA030101F0004129
:100830004FF0000070BD50EA410606BF1046194651
:1008400052EA430619D094EA0C0F02D150EA01365D
:1008500013D195EA0C0F05D152EA03361CBF10469E
:1008600019460AD181EA030101F0004141F0FE413D
:1008700041F470014FF0000070BD41F0FE4141F4C1
:10088000780170BD70B54FF0FF0C4CF4E06C1CEAC1
:1008900011541DBF1CEA135594EA0C0F95EA0C0F76
:1008A00000F0A7F8A4EB050481EA030E52EA033531
:1008B0004FEA013100F088804FEA03334FF0805552
:1008C00045EA131343EA12634FEA022245EA11157F
:1008D00045EA10654FEA00260EF000419D4208BF30
:1008E000964244F1FD0404F5407402D25B084FEADD
:1008F0003202B61A65EB03055B084FEA32024FF489
:1009000080104FF4002CB6EB020E75EB030E22BFE5
:10091000B61A754640EA0C005B084FEA3202B6EBA5
:10092000020E75EB030E22BFB61A754640EA5C0054
:100930005B084FEA3202B6EB020E75EB030E22BFE4
:10094000B61A754640EA9C005B084FEA3202B6EBE5
:10095000020E75EB030E22BFB61A754640EADC00A4
:1009600055EA060E18D04FEA051545EA16754FEA06
:1009700006164FEAC30343EA52734FEAC2025FEA24
:100980001C1CC0D111F4801F0BD141EA00014FF0B3
:1009900000004FF0004CB6E711F4801F04BF014384
:1009A0000020B4F1FD0C88BFBCF5E06F3FF6AFAEA0
:1009B000B5EB030C04BFB6EB020C5FEA500C50F130
:1009C000000041EB045170BD0EF0004E4EEA1131B3
:1009D00014EB5C04C2BFD4EB0C0541EA045170BDBA
:1009E00041F480114FF0000E013C90E645EA060EFE
:1009F0008DE60CEA135594EA0C0F08BF95EA0C0F2C
:100A00003FF43BAF94EA0C0F0AD150EA01347FF473
:100A100034AF95EA0C0F7FF425AF104619462CE74A
:100A200095EA0C0F06D152EA03353FF4FDAE1046AD
:100A3000194622E750EA410618BF52EA43067FF4FE
:100A4000C5AE50EA41047FF40DAF52EA43057FF48E
:100A5000EBAE12E74FF0FF3C06E000BF4FF0010C99
:100A600002E000BF4FF0010C4DF804CD4FEA410CFD
:100A70007FEA6C5C4FEA430C18BF7FEA6C5C1BD0CA
:100A800001B050EA410C0CBF52EA430C91EA030F4B
:100A900002BF90EA020F0020704710F1000F91EAA8
:100AA000030F58BF994208BF90422CBFD8176FEA76
:100AB000E37040F0010070474FEA410C7FEA6C5C44
:100AC00002D150EA013C07D14FEA430C7FEA6C5C4B
:100AD000D6D152EA033CD3D05DF8040B704700BF77
:100AE0008446104662468C461946634600E000BFC5
:100AF00001B5FFF7B7FF002848BF10F1000F01BD97
:100B00004DF808EDFFF7F4FF0CBF012000205DF861
:100B100008FB00BF4DF808EDFFF7EAFF34BF0120E6
:100B200000205DF808FB00BF4DF808EDFFF7E0FF7F
:100B300094BF012000205DF808FB00BF4DF808EDD0
:100B4000FFF7CEFF94BF012000205DF808FB00BF37
:100B50004DF808EDFFF7C4FF34BF012000205DF819
:100B600008FB00BF4FEA410C7FEA6C5C02D150EAFF
:100B7000013C0AD14FEA430C7FEA6C5C02D152EA95
:100B8000033C02D14FF0000070474FF00100704766
:100B90004FEA410212F5001215D211D56FF47873A5
:100BA000B3EB625212D94FEAC12343F0004343EA48
:100BB000505311F0004F23FA02F018BF4042704723
:100BC0004FF00000704750EA013005D111F00040AD
:100BD00008BF6FF0004070474FF00000704700BF43
:100BE0004FEA4102B2F1E04324BFB3F5001CDCF14F
:100BF000FE5C0DD901F0004C4FEAC0024CEA507087
:100C0000B2F1004F40EB830008BF20F001007047B5
:100C100011F0804F21D113F13872BCBF01F00040B8
:100C2000704741F480114FEA5252C2F11802C2F1EA
:100C3000200C10FA0CF320FA02F018BF40F001006B
:100C40004FEAC1234FEAD32303FA0CFC40EA0C001D
:100C500023FA02F34FEA4303CCE77FEA625307D15A
:100C600050EA01331EBF4FF0FE4040F44000704791
:100C700001F0004040F0FE4040F40000704700BF2B
:100C800053B94AB9002908BF00281CBF4FF0FF31F3
:100C90004FF0FF3000F07AB9ADF1080C6DE904CEE9
:100CA00000F006F8DDF804E0DDE9022304B0704747
:100CB0002DE9F0478C460D460446089E002B51D185
:100CC0008A4217466DD9B2FA82FEBEF1000F0BD0F0
:100CD000CEF1200C01FA0EF520FA0CFC02FA0EF708
:100CE0004CEA050C00FA0EF44FEA174A250CBCFB3F
:100CF000FAF81FFA87F90AFB18CC45EA0C4508FBFD
:100D000009F3AB420AD9ED1908F1FF3280F02381D3
:100D1000AB4240F22081A8F102083D44ED1AA4B292
:100D2000B5FBFAF00AFB105544EA054400FB09F94B
:100D3000A14509D9E41900F1FF3380F00A81A145EA
:100D400040F2078102383C44A4EB090440EA084021
:100D50000021002E61D024FA0EF400233460736069
:100D6000BDE8F0878B4207D9002E54D0002186E8D9
:100D700021000846BDE8F087B3FA83F1002940F06E
:100D80008E80AB4202D3824200F2FA80841A65EB75
:100D900003050120AC46002E3FD086E81010BDE8C8
:100DA000F08712B90127B7FBF2F7B7FA87FEBEF159
:100DB000000F34D1EB1B3A0C1FFA87FC0121B3FB67
:100DC000F2F8250C02FB183345EA03450CFB08F347
:100DD000AB4207D9ED1908F1FF3002D2AB4200F265
:100DE000D1808046ED1AA3B2B5FBF2F002FB10559C
:100DF00043EA05440CFB00FCA44507D9E41900F1C3
:100E0000FF3302D2A44500F2B8801846A4EB0C04CC
:100E100040EA08409DE731463046BDE8F087CEF114
:100E2000200405FA0EF307FA0EF720FA04F83A0C3C
:100E300025FA04F448EA0308B4FBF2F14FEA184536
:100E400002FB11441FFA87FC45EA044501FB0CF341
:100E5000AB4200FA0EF409D9ED1901F1FF3080F030
:100E60008A80AB4240F2878002393D44EB1A1FFA78
:100E700088F5B3FBF2F002FB103345EA034500FBB3
:100E80000CF3AB4207D9ED1900F1FF386FD2AB423A
:100E90006DD902383D44EB1A40EA01418FE7C1F1B8
:100EA000200722FA07F88B4005FA01F448EA030309
:100EB00020FA07FE4FEA134CFD404EEA040EB5FB44
:100EC000FCF94FEA1E440CFB19551FFA83F844EA5B
:100ED000054509FB08F4AC4202FA01F200FA01FAF6
:100EE00008D9ED1809F1FF3043D2AC4241D9A9F13C
:100EF00002091D442D1B1FFA8EFEB5FBFCF00CFBF6
:100F000010554EEA054400FB08F8A04507D9E4183F
:100F100000F1FF3529D2A04527D902381C4440EA08
:100F20000940A4EB0804A0FB02894C45C6464D4687
:100F300015D312D056B1BAEB0E0364EB050404FAD4
:100F400007F7CB401F43CC40376074600021BDE8F9
:100F5000F0871846F8E69046E0E6C245EAD2B8EBDC
:100F6000020E69EB03050138E4E72846D7E740465F
:100F700091E78146BEE7014678E702383C4445E701
:100F8000084608E7A8F102083D442BE7704700BF78
:100F900038B50E4A0E4B054618784FF47A73B3FBFA
:100FA000F0F31068B0FBF3F000F0A8F8044658B96D
:100FB0000F2D09D8024629464FF0FF3000F05EF8A9
:100FC000044B20461D6038BD012038BDFC000020C8
:100FD000000000200400002008B50B4B1A6842F402
:100FE00000721A601A6842F480621A601A6842F449
:100FF00080721A60032000F02FF80020FFF7C8FF6E
:1010000002F0C6FF002008BD003C0240034A044B2A
:1010100011681B780B441360704700BF0C0300205D
:1010200000000020014B1868704700BF0C0300202F
:1010300038B50446FFF7F6FF631C1CBF054B1B7851
:10104000054618BFE418FFF7EDFF401B8442FAD8AD
:1010500038BD00BF00000020074AD36823F4E063D6
:101060001B041B0C43F0BF63000243F4003300F485
:10107000E0600343D360704700ED00E0174B30B5EC
:10108000DC68C4F30224C4F10703251D042B28BF28
:101090000423062D4FF0010505FA03F303F1FF3396
:1010A0008CBF033C00241940A14005FA04F4013C24
:1010B0002240002842EA01024FEA0212AFBF00F1CB
:1010C000604000F00F00064BD2B2A5BF00F56140B2
:1010D000D2B21A5480F8002330BD00BF00ED00E00A
:1010E00014ED00E04209012300F01F0003FA00F0B4
:1010F000014B43F82200704700E100E00138B0F1F5
:10110000807F0AD2064B074A5860F02182F82310EC
:101110000020072298601A6070470120704700BFC6
:1011200010E000E000ED00E090F83530022B03D035
:1011300080234365012070470268052380F835301D
:10114000136823F001031360002070472DE9F04F6E
:1011500085B00B68DFF8A081654ADFF8A0910193A4
:1011600000234FF0010E019C0EFA03FE0EEA040666
:10117000B64540F0AA804C6824F01007022F16D123
:101180004FEAD30A00EB8A0A03F0070BDAF8205083
:101190004FEA8B0B4FF00F0C0CFA0BFC25EA0C0CF2
:1011A0000D6905FA0BF545EA0C05CAF820504FEA1F
:1011B000430A0325D0F800B005FA0AF5ED4304F020
:1011C000030C0BEA050B0CFA0AFC013F4CEA0B0C72
:1011D000012FC0F800C011D8876807EA050BCF6857
:1011E00007FA0AFC4CEA0B078760476827EA0E0EED
:1011F000C4F300179F4047EA0E074760C7683D40A9
:101200008F6807FA0AF73D43C560E5005DD54FF0EA
:10121000000BCDF80CB0D8F84470364D47F4804739
:10122000C8F84470D8F8447007F480470397039FC8
:1012300023F0030707F1804707F59C3703F0030C01
:10124000D7F808A04FEA8C0C4FF00F0E0EFA0CFEE8
:10125000A8422AEA0E0E3FD005F58065A8423DD08F
:1012600005F58065A8423BD005F58065A84239D0D8
:1012700005F58065A84237D0484537D005F50065AB
:10128000A84214BF0725062505FA0CF545EA0E0508
:10129000BD601568F74314F4803F0CBF3D403543F3
:1012A0001560556814F4003F0CBF3D403543556050
:1012B000956814F4801F0CBF3D4035439560D56898
:1012C000A40254BF3D403543D5600133102B7FF459
:1012D00048AF05B0BDE8F08F5D46D5E70125D3E7FF
:1012E0000225D1E70325CFE70425CDE70525CBE788
:1012F000003C01400000024000380240001402405F
:101300000369194214BF0120002070470AB18161AE
:1013100070470904FBE74369594041617047000089
:1013200070B50446002862D090F83D3003F0FF020B
:101330001BB980F83C2002F047FE22682D4E2E4D4E
:10134000242384F83D30136823F00103136000F078
:101350002BF963682268B0FBF5F5B34284BF4FF404
:1013600096716943556091BF691C4FF47A75B1FB62
:10137000F5F10131B342116221D85B00B0FBF3F00B
:10138000C0F30B03032B98BF0420216AE369D061EB
:101390000B431360E16823690B439360A1696369A0
:1013A0000B43D360136843F0010313600020202334
:1013B000206484F83D30206384F83E0070BDA1684D
:1013C00049B903EB4303B0FBF3F0C0F30B0363B184
:1013D00040F40040D9E719214B43B0FBF3F0C0F3D0
:1013E0000B0313B140F44040CFE70120CDE70120CB
:1013F00070BD00BFA086010040420F0037B500233A
:101400000193184B184C1A6C42F080521A641B6CF2
:1014100003F080530193019B144B01221A60FFF7E4
:1014200001FE05466368DA030BD5114B0E4C012211
:101430001A60FFF7F7FD054663689B030AD5002095
:1014400006E0FFF7EFFD401BB0F57A7FEAD90320F5
:1014500003B030BDFFF7E6FD401BB0F57A7FEBD956
:10146000F5E700BF003802400070004040000E4227
:1014700044000E422DE9F0410D46044610B901200A
:10148000BDE8F081444B1A6802F00F028A4228D36B
:1014900021688F072DD4C80740D43F4B1A6802F04B
:1014A0000F02954266D3226851076CD4130707D503
:1014B0003A4A2169936823F4604343EAC103936085
:1014C00000F09AFA354B364A9B68C3F30313D35C9A
:1014D000D840344B18600020FFF75AFD0020BDE8CB
:1014E000F081CAB21A701B6803F00F039942C6D18B
:1014F000CEE72A4B11F0040F1EBF9A6842F4E05267
:101500009A600E0742BF9A6842F460429A609A68F5
:10151000A06822F0F00202439A60BCE762681F4BA9
:10152000012A1DD11B6813F4003FA8D01B4EB368DD
:1015300023F003031343B360FFF774FD41F28838CF
:101540000746B368626803F00C03B3EB820FA4D0C4
:10155000FFF768FDC01B4045F3D90320BDE8F081CB
:10156000911E01291B6802D813F0007FDDE713F0FC
:10157000020FDAE7EAB21A701B6803F00F039D420C
:101580007FF47DAF8FE70549E0688B6823F4E05373
:1015900003438B608AE700BF003C024000380240F2
:1015A000B2770008FC000020044B054A9B68C3F397
:1015B0008223D35C034A1068D84070470038024049
:1015C000C2770008FC000020044B054A9B68C3F367
:1015D0004233D35C034A1068D84070470038024059
:1015E000C2770008FC00002003682DE9F74313F0E0
:1015F000010604460BD0AA49866BD1F88C2022F054
:10160000C0623243B6FA86F6C1F88C2076099D078F
:101610000BD5A348E16BD0F88C2022F0C0520A43CE
:101620000029C0F88C2008BF012613F0040512D051
:101630009B49256BD1F88C20B5F5801F22F4401210
:1016400042EA050218BFB5FA85F5C1F88C2012BF31
:101650006D090025012618070FD59148616BD0F858
:101660008C2022F440020A43B1F5800FC0F88C2090
:1016700000F00981002908BF0125990633D5002310
:101680000193874B874F1A6C42F080521A641B6C8F
:1016900003F080530193019B3B6843F480733B60EC
:1016A000FFF7C0FC80463B68DA0540F1EE807C4FD6
:1016B0003B6F13F4407340F0FB80236C03F44072E3
:1016C000B2F5407F764A40F01681916823F0704071
:1016D00021F4F81120F4407001439160116FC3F3BD
:1016E0000B030B4313672368D90642BF6E4B94F874
:1016F00058201A6023681A0608D56949E06CD1F8A9
:10170000942022F440020243C1F894205F0608D5D9
:101710006349A06CD1F8942022F080620243C1F8A2
:101720009420D8050CD55E48616DD0F8942022F045
:1017300000620A43B1F1006FC0F8942008BF012590
:10174000990508D55649606CD1F8942022F0805252
:101750000243C1F894205A0500F1D180012E40F0D7
:10176000DC80524E4E4F00233360FFF75BFC804617
:101770003B681B0100F125812268D00701D5A36BCE
:101780001BB1910715D5E36B9BB94549D1F884305E
:10179000D1F8840003F4403300F0706003436068C4
:1017A0000343A06843EA8013606943EA0073C1F809
:1017B0008430530703D5236BB3F5801F05D017077B
:1017C00020D5636BB3F5800F1CD13549D1F8843037
:1017D000D1F8840003F4403300F0E0400343606834
:1017E0000343A06843EA8013206943EA0063C1F819
:1017F0008430D1F88C00A36A20F01F00013B034322
:10180000C1F88C3050051BD5236DB3F1005F17D1A3
:1018100023486768D0F88410D0F8843003F0E043A0
:101820003B43A768C1F30141013143EA871343EA0F
:101830004163E1684908013943EA0143C0F8843053
:10184000110511D52369A2681B0643EA8213626859
:101850001343626943EA0273E2685208013A43EAB9
:1018600002430F4AC2F8843001233360FFF7DAFBEA
:101870000B4E074633681A0153D4FFF7D3FBC01B46
:101880000228F7D908E00126F7E6FFF7CBFBA0EB2B
:10189000080002287FF607AF032003B0BDE8F083FD
:1018A0000038024000700040E011474268004742A3
:1018B000226C02F4407293423FF4FFAE3B6F4B4AFE
:1018C0000121116023F44073002111603B673B6FDD
:1018D000DB077FF5F2AEFFF7A5FB41F288398046C2
:1018E0003B6F98073FF5E9AEFFF79CFBA0EB0800C4
:1018F0004845F5D9D0E7916821F4F811EDE63C4868
:10190000216DD0F8942022F000520A43B1F1005F1B
:10191000C0F894207FF422AF23E7B3F5006F3FF4C3
:1019200020AF012D4BD1334D314E00232B60FFF7FB
:1019300079FB074633689B004BD421684E0701D5DD
:10194000236B1BB108071AD5636BC3B9284AA0697A
:10195000D2F8883003F440330343E06943EA80134C
:10196000606A43EA0063C2F88830D2F88C30E06ADB
:1019700023F4F853013843EA0023C2F88C30CA0537
:1019800014D5636DB3F1006F10D11949A269D1F874
:10199000883003F070631343E26943EA8213226ADA
:1019A0005208013A43EA0243C1F8883001232B6010
:1019B000FFF738FB0E4C054623689B000FD500202F
:1019C0006BE7FFF72FFBA0EB080002287FF6D0AEF5
:1019D00062E7FFF727FBC01B0228ABD95CE7FFF7E4
:1019E00021FB401B0228E7D956E700BF400E4742C3
:1019F0000038024070004742204908B58B6803F068
:101A00000C03082B07D00C2B20D01D4A1D48042B9B
:101A100018BF104608BD4A684B68496813F4800334
:101A200014BF18481648C1F3881118BF002302F0EC
:101A30003F02A1FB0001FFF723F9104B5B68C3F3E2
:101A4000014301335B00B0FBF3F008BD4A684B680B
:101A5000496813F4800314BF0A480948C1F3881188
:101A600018BF002302F03F02A1FB0001FFF708F9B5
:101A7000024B5B68C3F30273E5E700BF0038024026
:101A80000024F40040787D0103682DE9F341DF076D
:101A9000044610D423689E0767D423681A0700F110
:101AA000B28023685B0700F1D080A269002A40F071
:101AB000398100201EE0974B9A6802F00C02042A3C
:101AC00010D09A6802F00C02082A02D15B685D020D
:101AD00008D4904B9A6802F00C020C2A0DD15A6877
:101AE00050020AD58B4B1B689903D3D56368002B32
:101AF000D0D1012002B0BDE8F0816268B2F5803F2C
:101B000011D11A6842F480321A60FFF78BFA814DC6
:101B100006462B689A03BDD4FFF784FA801B64281D
:101B2000F7D90320E6E77B4DB2F5A02F2B6807D14C
:101B300043F480232B602B6843F480332B60E4E76D
:101B400023F480332B602B6823F480232B60002A3E
:101B5000DBD1FFF767FA06462B689B039AD5FFF7A0
:101B600061FA801B6428F7D9DBE76A4B9A6812F0A8
:101B70000C0F10D09A6802F00C02082A02D15B68A0
:101B80005F0208D5634A936803F00C030C2B11D154
:101B900053685E020ED45F4B1A68950702D5E2685F
:101BA000012AA6D11A68216922F0F80242EAC1028C
:101BB0001A6072E7E268584BB2B101221A60FFF76F
:101BC00031FA544D06462B68980707D52B682269D1
:101BD00023F0F80343EAC2032B605EE7FFF722FA23
:101BE000801B0228EFD99CE71A60FFF71BFA494DCA
:101BF00006462B6899077FF550AFFFF713FA801B55
:101C00000228F6D98DE76269444B7AB101221A6045
:101C1000FFF708FA3F4D06466B6F9F073FF541AF50
:101C2000FFF700FA801B0228F6D97AE71A60FFF75F
:101C3000F9F9384D06466B6F98077FF532AFFFF71D
:101C4000F1F9801B0228F6D96BE7324B1A6C12F0BF
:101C5000805228D101921A6C42F080521A641B6C97
:101C600003F080530193019B01262D4D2B68D9056C
:101C70001BD5A368274D012B27D12B6F43F0010300
:101C80002B67FFF7CFF9234D074641F288382B6FBA
:101C90009B0739D5002E3FF408AF1E4A136C23F082
:101CA0008053136401E70026DFE72B6843F4807359
:101CB0002B60FFF7B7F907462B68DA05D9D4FFF791
:101CC000B1F9C01B0228F7D92BE7052B04D12B6FE4
:101CD00043F004032B67D0E72A6F22F001022A6742
:101CE0002A6F22F004022A67002BCAD1FFF79AF963
:101CF00041F2883807462B6F9807CBD5FFF792F94A
:101D0000C01B4045F7D90CE7FFF78CF9C01B4045D5
:101D1000BDD906E70038024000004742800E474226
:101D200000700040234DAB6803F00C03082B3FF418
:101D3000E0AE214E0023022A33602DD1FFF772F965
:101D400007462B68990121D4226AE3691343626A2A
:101D500043EA8213E26A43EA0263226B43EA0273B4
:101D6000A26A144C5208013A43EA02436B60012311
:101D70003360FFF757F9054623689A013FF599AE9E
:101D8000FFF750F9401B0228F6D9CAE6FFF74AF9D7
:101D9000C01B0228D5D9C4E6FFF744F904462B68D6
:101DA0009B017FF586AEFFF73DF9001B0228F6D9AF
:101DB000B7E600BF0038024060004742026838B50D
:101DC000D36823F0A003D3600446FFF72BF9054640
:101DD0002368DB689B0601D5002038BDFFF722F998
:101DE000401BB0F57A7FF3D9032038BD38B50368BE
:101DF000DA685206044601D5002038BD4FF0FF32A4
:101E0000DA60FFF70FF905462368DB685B06F3D459
:101E1000FFF708F9401BB0F57A7FF5D9032038BDEC
:101E200038B50446B8B1437F03F0FF0213B9027717
:101E300002F002F9022363772368CA225A6253220E
:101E40005A622046FFF7D2FF2368054628B1FF22D9
:101E50005A620423637701252EE09A68206922F4F0
:101E6000E00222F040029A60626899680243606969
:101E700002430A439A60E2681A611A69A16842EA59
:101E800001421A61DA6822F08002DA609B689B06E0
:101E900005D42046FFF792FF08B12368D7E72368EF
:101EA000A1691A6C22F480221A641A6C0A431A641B
:101EB000FF225A6201236377284638BD10B50446D5
:101EC000002836D00023836290F8513003F0FF02DF
:101ED0001BB980F8502002F0BBF82168A068A26905
:101EE000022384F851300B6823F040030B606368D1
:101EF0000343E06803432069034360690343E069E7
:101F00000343206A0343A06A034302F400700343BF
:101F10000B60120C636A02F004021A434A60CB6938
:101F200023F40063CB6100200123606584F8513005
:101F300010BD012010BD0000036A23F001030362FD
:101F4000036A426870B584690D6824F07304254300
:101F50008C6823F0020323430C4CA04209D004F503
:101F60008064A04205D042604A6885614263036292
:101F700070BDCC688E6923F0080323434C6922F4BA
:101F80004072344323F004032243ECE70000014095
:101F9000036A23F480730362036A426870B5C469FC
:101FA0000D6824F0730425438C6823F4007343EA1E
:101FB00004230E4CA04209D004F58064A04205D051
:101FC00042604A68C561C263036270BDCC688E69B5
:101FD00023F4006343EA04234C6922F4405234435F
:101FE00023F4806342EA0412EAE700BF00000140E4
:101FF000036A23F48053036230B5046A4368C269FC
:102000000D6822F4E64242EA05228D6824F4005469
:1020100044EA0534094DA84209D005F58065A84277
:1020200005D043604B68C2610364046230BD4D69F2
:1020300023F4804343EA8513F3E700BF0000014027
:10204000036848689A6822F0700230B502430C6851
:1020500022F00702224350289A6021D002D840285B
:1020600010D030BD60282DD070283DD1CA688C6852
:1020700098680969224320F47F4042EA0122024322
:102080009A6030BD186A1A6A096922F001021A6260
:102090009A6922F0F00242EA01129A61186230BD98
:1020A00088680D69196A1C6A24F001041C629A6927
:1020B00021F00A0122F0F00242EA051201439A617E
:1020C000196230BD186A8C680D6920F01000186222
:1020D00099691A6A21F4704122F0A00241EA05319F
:1020E00042EA041299611A6230BD0368DA6842F06C
:1020F0000102DA601A6842F001021A60002070479B
:102100007047704790F83830012B70B54FF00203DC
:102110001CD080F839300368012280F838209A6892
:1021200022F47F4222F077029A600A68402A79D02E
:1021300019D8102A00F093800AD8002A00F089806C
:10214000012380F83930002380F83830184670BDFC
:10215000202A00F08A80302AF2D19A6822F0700298
:1021600042F0370236E0702A36D01BD8502A42D0CF
:10217000602AE5D11C6A4D68CE6824F010041C6208
:1021800099691A6A21F4704122F0A00242EA05120C
:1021900041EA063199611A629A6822F0700242F0AF
:1021A000670217E0B2F5805F11D0B2F5005FC7D1CA
:1021B0008A684D689C68C9682A4324F47F4442EACF
:1021C000012222439A609A6842F4804202E09A68AF
:1021D00022F007029A60B3E78A684D689C68C96874
:1021E0002A4324F47F4442EA012222439A609A68F7
:1021F00042F07702EEE74C68CE68196A1D6A25F056
:1022000001051D629A6921F00A0122F0F00242EAFA
:10221000061221439A6119629A6822F0700242F014
:102220005702D7E74C68CE68196A1D6A25F0010588
:102230001D629A6921F00A0122F0F00242EA0612B8
:1022400021439A6119629A6822F0700242F04702B3
:10225000C0E79A6822F0700242F00702BAE79A6873
:1022600022F0700242F01702B4E79A6822F070027E
:1022700042F02702AEE738B590F83830012B04461B
:102280004FF0020315D0012580F8385080F839301E
:10229000FFF7D6FE2368DA6822F04002DA60DA68D7
:1022A000002022F48042DA6084F8395084F8380043
:1022B00038BD184638BD704770477047704703688F
:1022C0001A69910710B504460ED5DA6892070BD546
:1022D0006FF002021A619B6901229B07027677D098
:1022E000FFF7EAFF0023237623681A69500710D509
:1022F000DA6851070DD56FF004021A619B6902225A
:1023000013F4407F2276204668D0FFF7D5FF0023E4
:10231000237623681A6912070FD5DA6810070CD5DF
:102320006FF008021A61DB690422990722762046C1
:102330005AD0FFF7C1FF0023237623681A69D2061B
:1023400010D5DA68D0060DD56FF010021A61DB697E
:10235000082213F4407F227620464BD0FFF7ACFFD3
:102360000023237623681A69D10708D5DA68D207D3
:1023700005D56FF001021A61204601F0D3FA2368F7
:102380001A69100608D5DA68110605D56FF08002C3
:102390001A61204600F0DDFA23681A69520608D552
:1023A000DA68500605D56FF040021A612046FFF743
:1023B00085FF23681A69910622D5DA6892061FD52F
:1023C0006FF0200220461A61BDE8104000F0C0BA4C
:1023D000FFF771FF2046FFF770FF83E7FFF76BFF02
:1023E0002046FFF76AFF92E7FFF765FF2046FFF7F9
:1023F00064FFA0E7FFF75FFF2046FFF75EFFAFE750
:1024000010BD00002E4A0368904212D0B0F1804FF8
:102410000FD0A2F57C4290420BD002F58062904230
:1024200007D002F58062904203D002F578429042D4
:102430001DD14A6823F070031343214A904204D10E
:10244000CA6823F44073134328E0B0F1804FF7D0FB
:102450001C4A9042F4D002F580629042F0D002F51E
:1024600080629042ECD002F578429042E8D0164A61
:102470009042E5D002F580629042E1D002F58062A0
:102480009042DDD0A2F598329042D9D002F5806218
:102490009042D5D002F580629042D1D003608B6823
:1024A000C3620B688362064B984206D003F58063D3
:1024B000984202D00123436170470B690363F9E737
:1024C00000000140000400400040014010B50446F7
:1024D000A0B190F8393003F0FF021BB980F8382022
:1024E00001F00CFE022384F839302068211DFFF72B
:1024F00089FF012384F83930002010BD012010BD70
:1025000010B50446A0B190F8393003F0FF021BB9B2
:1025100080F83820FFF7F4FD022384F83930206872
:10252000211DFFF76FFF012384F83930002010BD13
:10253000012010BD10B50446A0B190F8393003F069
:10254000FF021BB980F83820FFF7DBFD022384F877
:1025500039302068211DFFF755FF012384F83930F9
:10256000002010BD012010BD70B5046A1A4E24F081
:10257000010404628469056AB04224F003041AD09D
:10258000B0F1804F17D0A6F57C46B04213D006F5C7
:102590008066B0420FD006F58066B0420BD006F5DB
:1025A0007846B04207D006F57056B04203D0A6F583
:1025B0009436B0420DD122431B0122F0F002DBB26F
:1025C00025F00A0501F00A011A43294382610162DC
:1025D00070BD44F00102EFE700000140F8B590F84B
:1025E0003830012B04460D464FF0020019D001236C
:1025F00084F8383084F83900A2B9CB68206806C95D
:10260000FFF7B2FF2368A9689A6922F00C029A6169
:102610009A690A439A610123002084F8393084F8CA
:102620003800F8BD042A8E682368E86882C91FD183
:102630001A6A22F010021A629A691D6A22F4407224
:1026400042EA0722000380B222F4704209010243E9
:1026500001F0A00125F0A00001439A6119629A6976
:1026600022F440629A619A6942EA06269E61D2E7A4
:10267000082A1A6A1CD122F480721A62DA691D6A69
:1026800022F003023A430001C0B222F0F002090234
:10269000024301F4206125F420600143DA611962EC
:1026A000DA6922F00C02DA61DA691643DE61B2E718
:1026B00022F480521A62DA691D6A22F4407242EAF8
:1026C0000722000322F4704280B20903104301F490
:1026D000204125F420421143D8611962DA6922F4BD
:1026E0004062DA61DA6942EA0626DFE7036A23F02C
:1026F00010030362036A426870B584690D6824F4AC
:10270000E64444EA05258C6823F0200343EA0413D9
:102710000D4CA04209D004F58064A04205D042606F
:102720004A6885618263036270BDCC688E6923F05C
:10273000800343EA04134C6922F44062344323F0DB
:10274000400342EA8402EAE70000014038B590F80D
:102750003830012B04464FF0020025D0012384F8C5
:10276000383084F839000C2A18D8DFE802F007174F
:1027700017171E1717172F17171740002068FFF796
:10278000DBFB236809699A6942F008029A619A6939
:1027900022F004029A619A690A439A610123002097
:1027A00084F8393084F8380038BD2068FFF79EFF80
:1027B000236809699A6942F400629A619A6922F46D
:1027C00080629A619A6942EA0122E6E72068FFF78F
:1027D000DFFB23680969DA6942F00802DA61DA6925
:1027E00022F00402DA61DA690A43DA61D6E7206886
:1027F000FFF7FEFB23680969DA6942F40062DA61D7
:10280000DA6922F48062DA61DA6942EA0122ECE7ED
:10281000036A10B501248C4023EA04030362036AAF
:102820008A401A43026210BD10B5044601220068B6
:10283000FFF7EEFF2368084A934203D002F5806257
:10284000934203D15A6C42F400425A641A6842F02F
:1028500001021A60002010BD0000014010B50446BE
:1028600000220068FFF7D4FF2368144A934203D084
:1028700002F5806293420DD1196A41F211121142A0
:1028800008D1196A40F24442114202BF5A6C22F444
:1028900000425A64196A41F21112114208D1196AB0
:1028A00040F24442114203D11A6822F001021A6038
:1028B000012384F83930002010BD00BF0000014022
:1028C00090F83830012B10B54FF0020318D080F883
:1028D000393003680C685A68496822F070025A60FF
:1028E0005A6822435A609A6822F080029A609A6875
:1028F0000A439A60012380F83930002380F8383089
:10290000184610BD90F83830012B1FD0CB688A686C
:1029100023F4407313434A6823F4806313430A6823
:1029200023F4006313430A6923F4805313434A6971
:1029300023F4005313438A6923F44043134302688A
:102940005364002380F838301846704702207047DF
:10295000704770470368DA6822F49072DA605A6947
:1029600022F001025A61202380F83A3070470000BB
:102970002DE9F0470668C2683369C16923F4405302
:1029800013433361044683680069F2680343606956
:1029900022F41642034322F00C020B431343F3606C
:1029A0007369A26923F440731343B1F5004F736157
:1029B0007A4B7CD19E4203D003F580639E4244D182
:1029C000FEF702FE192505FB00F360684FF064096D
:1029D0004000B3FBF0F3B3FBF9F34FEA0318FEF743
:1029E000F3FD636868435B00B0FBF3F7FEF7ECFDB3
:1029F000636868435B00B0FBF3F3B3FBF9F309FBD7
:102A00001373DB003233B3FBF9F35B0003F4F877A5
:102A1000FEF7DAFD626868435200B0FBF2FAFEF797
:102A2000D3FD636868435B00B0FBF3F3B3FBF9F3DA
:102A300009FB13A3DB003233B3FBF9F303F0070305
:102A400043443B44B360BDE8F087FEF7ADFD192574
:102A500005FB00F360684FF064094000B3FBF0F33E
:102A6000B3FBF9F34FEA0318FEF79EFD6368684372
:102A70005B00B0FBF3F7FEF797FD636868435B000C
:102A8000B0FBF3F3B3FBF9F309FB1373DB00323351
:102A9000B3FBF9F35B0003F4F877FEF785FD62689A
:102AA00068435200B0FBF2FAFEF77EFDB9E79E42A2
:102AB00002D03B4B9E4240D1FEF786FD6768192548
:102AC0004FF0640905FB00F3BF00B3FBF7F3B3FB62
:102AD000F9F31F01FEF778FD636868439B00B0FBC4
:102AE000F3F8FEF771FD636868439B00B0FBF3F3F6
:102AF000B3FBF9F309FB13831B013233B3FBF9F387
:102B000003F0F008FEF760FD626868439200B0FBD6
:102B1000F2FAFEF759FD636868439B00B0FBF3F3DC
:102B2000B3FBF9F309FB13A31B013233B3FBF9F336
:102B300003F00F0343EA080383E7FEF735FD6768F8
:102B400019254FF0640905FB00F3BF00B3FBF7F351
:102B5000B3FBF9F31F01FEF727FD636868439B0091
:102B6000B0FBF3F8FEF720FD636868439B00B0FB01
:102B7000F3F3B3FBF9F309FB13831B013233B3FB0C
:102B8000F9F303F0F008FEF70FFD62686843920066
:102B9000B0FBF2FAFEF708FDBDE700BF00100140F0
:102BA00000140140F8B504460E4617461D4621683C
:102BB0000B6836EA030301D10020F8BD6B1CF7D087
:102BC00095B92368DA6822F4D072DA605A6922F083
:102BD00001025A61202384F8393084F83A30002306
:102BE00084F838300320F8BDFEF71CFAC01B85427C
:102BF000DDD2E6E710B5044640B390F8393003F073
:102C0000FF021BB980F8382001F066FC22682423FB
:102C100084F83930D36823F40053D3602046FFF79B
:102C2000A7FE23681A6922F490421A615A6922F0B9
:102C30002A025A61DA6842F40052DA600020202346
:102C4000E06384F8393084F83A3010BD012010BDBB
:102C50002DE9F0411F4690F83930202B04460D46EF
:102C600090464FD100294AD0002A48D090F83830F9
:102C7000012B47D0012380F838300023C363212380
:102C800080F83930FEF7CEF9A4F824800646A4F87F
:102C90002680E38C9BB26BB93B46324640212046EE
:102CA000FFF780FFB0B9202384F8393084F838006A
:102CB000BDE8F081E38C013B9BB2E384A368B3F5EC
:102CC000805F32463B464FF0800120460ED1FFF731
:102CD00069FF10B10320BDE8F0812B882268C3F39F
:102CE00008035360236943B90235D2E7FFF75AFF5F
:102CF0000028EFD123682A785A600135C9E70120FE
:102D0000BDE8F0810220BDE8F08190F83A30202B38
:102D10001CD1C9B1C2B190F83830012B16D0C28590
:102D2000828500232222C36380F83A2002688162F0
:102D3000516980F8383041F001015161D16841F4A6
:102D40009071D1601846704701207047022070478B
:102D5000704790F83A30222B10B532D18368016960
:102D60000268B3F5805F836A1FD15268C9B9C2F3A4
:102D7000080223F8022B8362C48D013CA4B2C485EF
:102D80006CB90368DA6822F49072DA605A6922F04A
:102D900001025A61202380F83A3001F061F80020E6
:102DA00010BDD2B223F8012BE5E721B9591C5268B6
:102DB00081621A70E0E75268591C816202F07F025A
:102DC000F7E7022010BD704703681A68D96870B52C
:102DD000160704465D6907D196065AD58D0658D563
:102DE000BDE87040FFF7B5BF15F0010502D111F441
:102DF000907F4ED0D30705D5CE0542BFE36B43F09D
:102E00000103E363500704D51DB1E36B43F00203F4
:102E1000E363930704D51DB1E36B43F00403E3635D
:102E2000160704D51DB1E36B43F00803E363E36BBE
:102E3000002B66D0950604D5880602D52046FFF7FC
:102E400088FF23685D69E26B1107204602D415F004
:102E500040051AD0FFF77EFD23685A69520610D547
:102E60005A69606B22F040025A6150B1254B0365EC
:102E7000FEF75AF9002844D0606BBDE87040036D3E
:102E800018472046FFF79FFF70BDFFF79CFFE563E3
:102E900070BD160627D50D0625D594F83920212AB0
:102EA0002FD1A268B2F5805F226A17D11188C1F3D1
:102EB00008015960216979B902322262E28C013A33
:102EC00092B2E284EAB9DA6822F08002DA60DA6863
:102ED00042F04002DA6070BD0132EEE7511C21621F
:102EE00012785A60EAE750060BD54A0609D5DA6827
:102EF00022F04002DA60202384F839302046FFF7C0
:102F000027FF70BD092F000808B5806B0023C3851B
:102F1000C384FFF758FF08BD80E80E00009BC36024
:102F2000064B4362064B8362064B0362C361064A4B
:102F30000363064BC2624363704700BFAC75B14286
:102F400027FFFA42417BB142417BB1C2417B314311
:102F500010B504462DED068B84ED040AB0EE409AC0
:102F600020EEA00A82B0C4ED050A84ED061AA9EE8F
:102F7000090AB0EE608AF0EE418A03F01BFFE368B5
:102F8000F0EE409A89EE080A002B6BD003F046FD64
:102F9000B1EE40AA28EEA80AA9EEA90A03F00AFF9A
:102FA00060EE007AB0EE409A17EE900AFDF7ECFA68
:102FB0000022334BFDF788F92DA3D3E90023FDF759
:102FC00083F9FDF70DFE88EEA90A08EE100A03F05A
:102FD00025FD19EE100AF0EE408AFDF7D5FA0246FB
:102FE0000B46FDF773F90022264BFDF721FBFDF799
:102FF000F7FD07EE900A88EE270A03F083FEDFED67
:10300000227AB1EE488A88EE277A78EEC08A17EEE7
:10301000100AFDF7B9FA41EC100B03F01BFE53EC5C
:10302000102B2068B0EE4A0ACDE9002300F078FFAB
:10303000B1EE680A606800F073FFDDE900230EA1BD
:10304000D1E90001FDF740F9FDF7CAFD07EE900A4E
:10305000A068B1EE670A02B0BDEC068BBDE8104077
:1030600000F05EBF03F0DAFCB0EE40AA92E700BFCA
:10307000000000000024B340182D4454FB210940F7
:1030800000009940000044400000AF45D0ED066AC2
:1030900090ED057AD0ED047A31EE261A70EE870AAB
:1030A00030EE270AFFF754BF30B5ADB0342200210F
:1030B00008A801F074FB1422002103A801F06FFBA3
:1030C00000215C2215A801F06AFB0024214B019429
:1030D0001A6C42F080521A641B6C03F08053019307
:1030E000019B1D4B02941A6842F440421A601B680F
:1030F0000A9403F440430293029B0F940A2308931B
:1031000001230B930D93082310220225109308A886
:10311000B4230C9211930E95129513951495FEF706
:10312000B3FCFEF76BF90F23039305214FF4A05373
:1031300003A80693079304950594FEF79BF92023B3
:10314000159315A84FF400732593FEF74DFA2DB093
:1031500030BD00BF00380240007000402DE9F04F44
:103160009FB0FDF739FFFFF79FFF1422002116A83B
:10317000002701F014FBB44A0497116BB348B44C18
:1031800041F004011163116B01F0040104910499F1
:103190000597116B41F080011163116B01F0800103
:1031A000059105990697116B41F001011163116BAF
:1031B00001F00101069106990797116B41F0020198
:1031C0001163116B01F00201079107990897116BC8
:1031D00041F008011163126B02F008020892089A8C
:1031E00001213A46FEF792F83A4609219948FEF73E
:1031F0008DF83A4641F210019748FEF787F84FF4F0
:10320000005316A9934816934FF0010A1797189781
:10321000FDF79CFF16A98D48189702251997CDF840
:1032200058A0CDF85CA0FDF791FF16A98748169528
:1032300017971897FDF78AFF092216A98548169255
:103240004FF0100918971997CDF85CA0FDF77EFF95
:10325000032316A9814817931897CDF85890FDF7C6
:1032600075FF41F2100216A97B481692189719971C
:10327000CDF85CA0FDF76AFF79487A4A87604FF085
:103280000C0B4FF4165380E80C00C7600761876190
:10329000C761C0F814B0FFF7ADFC73487349744AB6
:1032A000876080E806004FF48042C7600261476192
:1032B0008761C7610762FEF733F86E486E4A876020
:1032C0004FF4E13380E80C000393C7600761876126
:1032D000C761C0F814B0FFF78DFC39464A460BA809
:1032E00001F05DFA3946142216A801F058FA394661
:1032F0004A460FA801F053FA604AA760204684E8C6
:103300008400E7602761FFF7E1F84FF480530BA9D1
:1033100020460B93FEF7F6FE2046FFF70BF9042339
:10332000502216A9204616931792189719971A97A4
:10333000FEF7A1FF3A460FA920460F971197129763
:10334000CDF840A0FFF74AF904220FA920460F95B7
:103350004B4C1095FFF742F939461C2216A801F094
:103360001EFA484AA760592644F62065204684E89C
:1033700044002761E560FFF7A9F82046FFF7C0F891
:103380004FF0600840F2DC533A4616A920461793E6
:1033900018971A97CDF85880FFF7D8F9204600F013
:1033A0009DFF394C39461C2216A801F0F8F9374A1E
:1033B0002761204684E8C400E560FFF787F82046CF
:1033C000FFF79EF840F2DC533A4616A920461793C1
:1033D00018971A97CDF85880FFF7B8F9204600F0F3
:1033E0007DFF39464A460BA801F0D9F939461C221F
:1033F0000FA8274C09970A9701F0D1F939461C22EA
:1034000016A801F0CCF9234A2761204684E8C400BD
:103410006761E560FFF75AF84FF480530BA9204627
:103420000B93FEF76FFE2046FFF76AF809A92046C6
:1034300009970A97FFF744FA40F2DC533A460FA97E
:1034400020461093119727E000380240001C0240EC
:10345000B8060020000802400004024000000240BC
:103460003C06002000440040A4030020005400401B
:10347000A0860100C0050020004C0040001800405C
:103480002805002000480140F803002000440140C6
:1034900068030020000401401297139714971597B2
:1034A000CDF83C80FFF752F904220FA92046FFF720
:1034B0004DF908220FA92046FFF748F95A460FA9EF
:1034C0002046FFF743F94FF4005316A920461B93FB
:1034D00016971797189719971A971C97FFF712FACC
:1034E0002046BA4C00F0FAFEB94AA760204684E8AC
:1034F0008400E76016971797FEF7E8FF16A92046A5
:1035000016971797FFF7DCF939464A460FA8B14CD2
:1035100001F045F939461C2216A80B970C9701F0CB
:103520003EF9AD4A2761204684E8C400E560FEF715
:10353000CDFF4FF480530FA920460F93FEF7E2FD15
:103540002046FEF7DDFF0BA920460B970C97FFF7EF
:10355000B7F940F2DC533A4616A92046179318975C
:103560001A97CDF85880FFF7F1F8042216A92046E3
:10357000FFF7ECF8204600F0B1FE39464A460FA8A6
:10358000964C01F00CF939461C2216A80B970C97A3
:1035900001F005F9924A2761204684E8C400E560FD
:1035A000FEF794FF4FF480530FA920460F93FEF7C8
:1035B000A9FD2046FEF7A4FF0BA920460B970C9708
:1035C000FFF77EF940F2DC533A4616A920461793DE
:1035D00018971A97CDF85880FFF7B8F8042216A963
:1035E0002046FFF7B3F8082216A92046FFF7AEF8E9
:1035F0005A4616A92046FFF7A9F8204600F06EFEAD
:10360000784C39464A460FA801F0C9F839461C22C1
:1036100016A80B970C9701F0C2F84FF08042204695
:1036200084E8C4002761E560FEF750FF4FF4805343
:103630000FA920460F93FEF765FD2046FEF760FFB9
:103640000BA920460B970C97FFF73AF940F2DC5391
:103650003A4616A92046179318971A97CDF858801E
:10366000FFF774F8042216A92046FFF76FF8082226
:1036700016A92046FFF76AF85A4616A92046FFF712
:1036800065F8204600F02AFE39464A460BA801F0AC
:1036900086F839461C220FA8534C09970A9701F067
:1036A0007EF839461C2216A801F079F84F4A2761A6
:1036B000204684E8C4006761E560FEF707FF4FF429
:1036C00080530BA920460B93FEF71CFD2046FEF706
:1036D00017FF09A9204609970A97FFF7F1F840F26A
:1036E000DC533A460FA9204610931197129713976F
:1036F00014971597CDF83C80FFF728F804220FA9FE
:103700002046FFF723F808220FA92046FFF71EF8EE
:103710005A460FA92046FFF719F816A94FF400538F
:1037200020461B9316971797189719971A971C9767
:10373000FFF7E8F8204600F0D1FD2D48039B2D4A05
:10374000436002608760C76007618761C761C0F836
:1037500014B0FFF74FFA2848284A87604FF4827464
:1037600080E814004FF4007282610A22C76007618A
:103770004761C761076247628762C262FEF79EFBCC
:103780001F48204A204C076180E884007F22826025
:10379000FF22C26047618761FEF742FB39461C2267
:1037A00016A800F0FCFF194A2761204684E8C400EF
:1037B000E560FEF78BFE2046FEF7A2FE16A93A460C
:1037C0002046179718971A9722E000BFF4060020AA
:1037D0000014004034040020000C0040700400205D
:1037E0000004004000060020840500200000014085
:1037F000AC040020005000401003002000380040BE
:1038000064050020002800407C06002000200040C5
:10381000CDF85880FEF79AFF20463B4C00F05EFD45
:103820003A4A2761204684E8C400E560FEF74EFE70
:1038300000F08CF800F0E6F95146032000F03CFF60
:103840005146042000F038FF2046FEF74EFC0520CC
:103850002F4C304E00F0E2FA27464FF4005130462C
:10386000FDF74EFD80B94FF400513046FDF748FD9D
:103870000028F8D0616E01293CD1042000F01CFF23
:103880000023636600F0D0F900F06CFAD4F8F83148
:10389000312B2BDD002520489FED207A294650F85A
:1038A000042F07EE902A9542F8EEE77A01F1010124
:1038B000B8BF15468B4237EE277AF0D107EE903A23
:1038C000F8EEE77A0022C7EE276AC7F8F82116EE6D
:1038D000900AFCF759FE2A46CDE90001104916A8C6
:1038E00001F0D2FB014616A800F08EFA6420FDF725
:1038F0009FFBB2E70021042000F0DEFE0123636697
:1039000000F080F9C0E700BFEC040020001C00407C
:10391000D408002000080240380900200000000000
:103920005877000808B5074B02681B689A4207D110
:1039300010210548FDF7EFFCBDE8084000F084B910
:1039400008BD00BFEC040020000402402DE9F04F48
:103950002DED028B844BDFF898B2DFF898A28349F3
:10396000DFF89492DFF89482814E824F824D834C2F
:103970009FED838A85B018460C22039300F09EFACF
:103980000C228049584600F099FA504608227D4999
:1039900000F094FA484608227B4900F08FFA40462E
:1039A0000C22794900F08AFA04227849784800F01C
:1039B00085FA08226D49774800F080FA002276499E
:1039C000764800F07BFA00227549764800F076FAD6
:1039D00030460022744900F071FA38460C226B49D7
:1039E00000F06CFA08222846684900F067FA039B49
:1039F0006E49184600F068FA6D49584600F064FABE
:103A000050466C4900F060FA48466B4900F05CFA99
:103A100040466A4900F058FA69495D4800F054FA96
:103A200068495C4800F050FA67495C4800F04CFA7D
:103A300066495C4800F048FA3046654900F044FAAF
:103A40003846644900F040FA2846634900F03CFAE1
:103A5000039B63624E4BE3634E4BC4F83490236385
:103A6000DFF89C914D4BC4F83880E3624FF00008BA
:103A70004C4BC4F81CA03A463146A36267612B4602
:103A80004846564FCDF800804FF0010A2661A561E7
:103A9000C4F820B0FFF740FACDF800A004F12801E7
:103AA0000EC94F4D4F4E3846FFF736FACDF800801D
:103AB00004F11C010EC92846FFF72EFACDF800A02C
:103AC00004F134010EC93046FFF726FAE56027609D
:103AD0006660C4F80890454654F825A0DAF81C0042
:103AE000FCF752FD064628460F46FCF73BFD002238
:103AF0003D4BFCF7C7FE8046DAF834008946FCF7F8
:103B000043FD02460B4640464946FCF791FD0246FE
:103B10000B4630463946FCF7D7FBFDF761F8013517
:103B200000EE100AB0EE481ADAED080A5046FFF728
:103B30000FFA042DD0D1626823682260A268626007
:103B4000E268E3600023636684F860300023236446
:103B50006364264BA26040F2DC521A6005B0BDECF3
:103B6000028BBDE8F08F00BF8C070020700400209E
:103B7000B0080020B0070020EC0B0020D408002083
:103B80000000A042000600206803002084050020F9
:103B9000300800200C0800207C0600208C08002043
:103BA00028050020800B0020F8030020E8000020FA
:103BB000AC0000205C0000203400002098000020B1
:103BC000D4000020C0000020480000200C0000208D
:103BD00020000020700000208400002054080020F5
:103BE00054070020100B00200000084008000020AF
:103BF00030070020480B0020A40B0020C80B002039
:103C0000D407002038B5064D064AAA6500242B19B2
:103C10000434186900F07CF9302CF8D138BD00BFAD
:103C2000D40800200000484238B5064D0022AA659D
:103C300000242B190434186900F06DF9302CF8D1E8
:103C400038BD00BFD408002070B5434C636E012B13
:103C50002DED028B6DD1636D002B4ED1A56862688E
:103C6000D5ED047A95ED078AD5ED088AE368A26060
:103C700038EE678AD5ED057A2268626028EE080A78
:103C800078EEE78A30EE000A2360E56003F092F8F0
:103C9000A66D3046FCF778FC2DA3D3E90023FCF792
:103CA000C7FCFCF79DFF07EE100AF0EE087A95EDD1
:103CB0000D0A67EE277A80EE270A02F089FFBDEE33
:103CC000C00A86F0004084ED140A84ED150AB8EEAF
:103CD000C00AC8EE007AC4ED127AC8EE807AC4ED4C
:103CE000137AFCF751FC1AA3D3E90023FCF7A0FCDC
:103CF000FCF776FF0023206463649FED188A00259B
:103D000054F82500D4ED110A94ED100AB0EE481ACB
:103D10000135FFF7BBF9032DF2D19FED101AD4ED59
:103D2000130A94ED120AE068FFF7B0F9636D013BE6
:103D300063650B4B1B68BDEC028B596AD4F8F831F4
:103D400003F11A02013344F82210C4F8F83170BDAF
:103D50007B14AE47E17A943FD408002000000000B5
:103D6000EC04002010B592B000F062F800282DDDC0
:103D7000684600F063F81E4B1E491A6802A801F05D
:103D800083F9014602A800F03FF800230DF101007D
:103D90009DF800408DF8033000F0CDFC2B2C02463E
:103DA00016D115490B6803440B60144902A801F0B1
:103DB0006BF902A8FCF72CFA014602A800F024F8DF
:103DC000052000F02BF8FA20FDF732F912B010BDF3
:103DD0002D2C05D108490B681B1A0B600849E5E733
:103DE000702CE6D06A46074902A801F04DF9E0E7D9
:103DF000F002002076770008080000208B7700088A
:103E000097770008A37700088AB24FF0FF33014686
:103E10000148FEF71DBF00BF3C06002082B20249E8
:103E20000248FEF772BF00BF100C00203C060020C5
:103E3000014B1868704700BFF802002010B5064C0F
:103E40000649226800F0A0FC002323600121032022
:103E5000BDE8104000F030BCF8020020100C00203B
:103E60000268104B9A4210B5044609D10E4B01224C
:103E70001A700E4B0522002103201A6000F01CFC72
:103E800022680B4B9A420BD10A4B01221A700A4B43
:103E9000052200210320BDE810401A6000F00CBC90
:103EA00010BD00BF00440040F4020020F0020020DA
:103EB000004C0040FC020020F802002040F2DC53DD
:103EC00080E80600836070470B6810B5C3604B68DC
:103ED00003618B684361CB6883610B69C3614B6885
:103EE0000446C868C01A07EE900AF8EEE77A17EEA3
:103EF000900AFCF749FB04A3D3E90023FCF7C2FCBA
:103F0000FCF76EFE206210BD182D4454FB21F93FD2
:103F100003C8FEF789BC03C8FEF7A0BC0000000080
:103F2000D0B5044610EE100AFCF72EFB16A3D3E919
:103F30000023FCF7CBF90646206A0F46FCF724FB6A
:103F400002460B4630463946FCF772FB06462069AE
:103F50000F46FCF707FB02460B4630463946FCF796
:103F6000B5F941EC100B02F013FD51EC100BFCF70E
:103F70000FFE236862681B68A0603433921043F818
:103F80002200D0BDAFF30080182D4454FB21E93F3F
:103F900082B00C4B002100915A6C42F480425A646A
:103FA0005A6C02F480420092009A01911A6C42F01D
:103FB00080521A641B6C03F080530193019B02B082
:103FC000704700BF0038024030B5044689B0142263
:103FD000002103A800F0E3FB2268144B9A4223D18E
:103FE000134C144800250195236B43F0020323630F
:103FF000236B03F002030193019BC023039312235D
:104000000493012305930323069303A90423079331
:10401000FDF79CF80295236C43F400132364236C92
:1040200003F400130293029B09B030BD005400401A
:1040300000380240000402400268034B9A4202BF6B
:10404000024B01221A607047002800403C0E474294
:10405000F0B5044689B01422002103A800F09FFBAC
:104060002268234B9A4241D103F500330024009487
:104070001A6C204842F480421A641A6C02F480429E
:104080000092009A01941A6B42F004021A631A6BB0
:1040900002F004020192019A02941A6B42F00202A9
:1040A0001A631B6B03F00203029302250326029B93
:1040B0000395072303A90793052704950696FDF7A3
:1040C00045F8042303A90B48039304950594069629
:1040D0000797FDF73BF84FF4005303A906480393F5
:1040E0000495059406960797FDF730F809B0F0BDE2
:1040F00000380040000802400004024010B50446A9
:1041000092B0142200210DA800F049FB2368674AF1
:1041100093420DD100230193654B5A6C42F001028A
:104120005A645B6C03F001030193019B12B010BD54
:10413000B3F1804F0CD1002302935D4B1A6C42F017
:1041400001021A641B6C03F001030293029BEDE76A
:10415000584A93420CD100230393554B1A6C42F0FA
:1041600002021A641B6C03F002030393039BDDE756
:10417000514A93420CD1002304934D4B1A6C42F0E8
:1041800008021A641B6C03F008030493049BCDE738
:104190004A4A93420CD100230593454B1A6C42F0D6
:1041A00020021A641B6C03F020030593059BBDE7F6
:1041B000434A934213D13E4B00220692596C41F080
:1041C000020159645B6C03F002030693069B1146DF
:1041D0002C20FCF753FF2C20FCF784FFA6E7394A7C
:1041E00093420CD100230793314B5A6C42F40032B6
:1041F0005A645B6C03F400330793079B96E7324ADB
:1042000093420CD100230893294B5A6C42F480222C
:104210005A645B6C03F480230893089B86E72B4A5F
:10422000934221D1224B2A48002109911A6C42F075
:1042300040021A641A6C02F040020992099A0A912B
:104240001A6B42F002021A631B6B03F002030A931B
:104250000A9B4FF480430D9302230E930DA909236B
:104260001193FCF773FF61E71A4A93420CD1104B8C
:1042700000220B92196C41F0800119641B6C03F051
:1042800080030B930B9BA2E7134A93427FF44EAF3C
:1042900000230C93064B1A6C42F480721A641B6C58
:1042A00003F480730C930C9B40E700BF00000140B7
:1042B0000038024000040040000C004000140040A0
:1042C0000004014000440140004801400018004043
:1042D00000040240001C00400020004070B504466D
:1042E00090B0142200210BA800F059FA23686F4AFD
:1042F000934213D1002301936D4B1A6B42F00102DC
:104300001A631B6B03F001030193019B4FF470636D
:104310000B9302230C9301230F932BE0B3F1804FF7
:104320002BD103F50E33002402941A6B614842F03E
:1043300002021A631A6B02F002020292029A0394BA
:104340001A6B42F001021A631B6B03F00103039323
:10435000039B022640F20C4301250BA90B930C96FC
:104360000F95FCF7F3FE4FF400430B930C960D945E
:104370000E940F950BA9504856E0504A934227D10E
:104380004B4B4D48002504951A6B42F001021A630D
:104390001A6B02F001020492049A05951A6B42F01E
:1043A00002021A631B6B03F0020305930224059BB0
:1043B0000C9440230BA90B930F94FCF7C7FE232307
:1043C0000B930C940D950E950F940BA939482BE087
:1043D0003B4A934210D100230693354B1A6B42F0AF
:1043E00001021A631B6B03F001030693069B032370
:1043F0000B9302230C938FE7324A934218D1002388
:1044000007932B4B30481A6B42F004021A631B6B64
:1044100003F004030793079B4FF470730B9302237D
:104420000C9303230F930BA9FCF790FE10B070BD03
:10443000264A934213D1002308931D4B1A6B42F076
:1044400002021A631B6B03F002030893089B4FF4EC
:1044500080730B9302230C9303230F93B5E71C4A3D
:1044600093420ED100230993114B1A6B42F00202C2
:104470001A631B6B03F002030993099B4FF400734B
:10448000E7E7144A9342D1D100230A93084B1A6BF1
:1044900042F001021A631B6B03F001030A930A9BAB
:1044A00080230B9302230C93092335E7000001407E
:1044B00000380240000402400000024000040040B6
:1044C000000C00400004014000080240004401408C
:1044D0000048014000200040F0B504468DB0142291
:1044E000002107A800F05BF923684A4A934226D1CD
:1044F000494B4A48002100911A6C42F400221A6488
:104500001A6C02F400220092009A01911A6B42F098
:1045100004021A631B6B03F004030193019B4FF425
:1045200040630793022308930123099303230A930B
:1045300008230B9307A9FCF709FE0DB0F0BD384A1C
:10454000934237D1344B354800220292196C41F422
:1045500080111964196C01F480110291029903927F
:10456000196B41F004011963196B01F00401039107
:10457000039904921A6B42F008021A631B6B03F052
:1045800008030493049B02274FF48053012603255C
:10459000082407A90793089709960A950B94FCF736
:1045A000D5FD04230793089709960A950B9407A94C
:1045B0001C48C0E71C4A9342BFD1174B1B4800243C
:1045C00005941A6C42F400321A641A6C02F4003238
:1045D0000592059A06941A6B42F001021A631B6B4E
:1045E00003F001030693069B0C2307930223089311
:1045F0000123099303230A9307A907230B93FCF7CD
:10460000A5FD224621462620FCF738FD2620FCF792
:1046100069FD92E7004C004000380240000802406B
:1046200000500040000C02400044004000000240E6
:104630007047FEE7FEE7FEE7FEE77047704770470A
:10464000FCF7E4BC0148FEF7BFBB00BF3C060020FE
:1046500008B50448FDF733FE0348BDE80840FDF700
:104660002EBE00BF68030020EC0400200F49D1F8E3
:10467000883043F47003C1F888300D4B1A6800206D
:1046800042F001021A6098601A6822F0847222F4E3
:1046900080321A60074A5A601A6822F480221A602F
:1046A000D8604FF000638B60704700BF00ED00E002
:1046B000003802401030002403280BD0074A042899
:1046C00018BF1023064804BF01231046CAB219467A
:1046D000FCF71CBE4FF480530148F7E7001C024072
:1046E00000040240DFF834D0002103E00C4B5B589B
:1046F000435004310B480C4B42189A42F6D30B4AF4
:1047000002E0002342F8043B094B9A42F9D3FFF739
:10471000ADFF00F015F8FEF721FD70470000022004
:104720006C7A000800000020D4020020D40200208F
:10473000380C0020FEE70A22002100F049BD0000ED
:1047400070B50D4E0D4CA41BA4100025A54209D137
:104750000B4E0C4C02F0F4FFA41BA4100025A54244
:1047600005D170BD56F8253098470135EEE756F86B
:10477000253098470135F2E7647A0008647A00082A
:10478000647A0008687A000810B5431E0A44914212
:1047900000D110BD11F8014B03F8014FF7E70244B7
:1047A0000346934200D1704703F8011BF9E72DE956
:1047B000FF4755EC104B0D9FDDF830A0002D0E4645
:1047C00091461946B8BF22462B4627F02007BBBFAB
:1047D00005F100431D4600232D23B8BF1446462F84
:1047E0000B7004D0452F00D10136022100E00321D7
:1047F00003AB019302AB00933246534645EC104B9A
:1048000000F08AFD472F804602D119F0010F26D013
:10481000462F08EB060911D198F80030302B0AD149
:104820000022002320462946FCF76AF918B9C6F190
:104830000106CAF80060DAF800309944002200232B
:1048400020462946FCF75CF938B93022039B99458C
:1048500005D9591C03911A70F8E7CDF80C90039B09
:104860000E9AA3EB08034046136004B0BDE8F0873E
:10487000F7B503460029B8BF494203F8022BB4BF7D
:104880002D222B220929427020DD0DF10702174647
:104890000A2691FBF6F506FB15113031092D02F8B9
:1048A000011C02F1FF34294609DC3031023A04F8D8
:1048B000011CBA421C4604D3201A03B0F0BD2246A4
:1048C000E7E712F8011B03F8011BF2E730221C4650
:1048D000114404F8022B5970EEE700002DE9F04F67
:1048E0008DB00C46DDF8588016461F46054601F08F
:1048F000E5FA036804931846FBF78AFC00230A9341
:10490000D8F800300590073323F0070303F10802BD
:1049100094F818A0D4F800B0C8F80020D3E9002318
:10492000C4E91223D4E9128929F000430793CDF892
:1049300018804FF0FF32A54BDDE90601FCF712F9B4
:10494000002840F0FB814FF0FF32A04BDDE906016B
:10495000FCF7EAF8002840F0F181002200234046ED
:104960004946FCF7D7F810B12D2384F84330984B13
:10497000984ABAF1470F8CBF9046984603232BF014
:104980000402236122604FF00009009733460BAA0E
:104990002146284600F0E2F9013040F093804FF0C4
:1049A000FF300DB0BDE8F08F61684B1C4BF48062A6
:1049B0003FD106236360002303930AAB029309AB44
:1049C000009349EC108B0DF123032260CDF804A075
:1049D00061682846FFF7EBFE0AF0DF03472B8046AD
:1049E00009D1099BD81C02DB6268934257DDAAF10A
:1049F000020A5FFA8AFABAF1650F099934D80139C7
:104A0000524604F150000991FFF732FF0A9A8318C9
:104A1000012A8146236102DC2268D10701D50133D6
:104A200023619DF82330002BAFD02D2384F8433031
:104A3000ABE7BAF1670F02D0BAF1470FBBD189B12A
:104A4000002303930AAB029309AB009349EC108B4C
:104A50002260CDF804A00DF123032846FFF7A7FE3E
:104A60008046BEE70123A5E7BAF1660F19D10029F8
:104A700063680CDD216113B92268D20702D50133C6
:104A80000B442361099BA3654FF00009C9E713B9E3
:104A90002268D00701D50233F3E70123F1E74FF095
:104AA000670A099B0A9A934205DB22682361D107B2
:104AB000E8D50133E5E7002BD4BFC3F1020301239E
:104AC0001344DEE723685A0507D42369424631467A
:104AD0002846B84701302BD161E7BAF1650F40F2A3
:104AE000E28000220023D4E91201FCF709F8002833
:104AF0003CD00123384A31462846B84701303FF4BC
:104B00004EAF0A9B099A9A4202DB2368D8070FD559
:104B1000059B049A31462846B84701303FF43FAF21
:104B20004FF0000804F11A090A9B013B984512DB7B
:104B300023689B0709D54FF0000804F11909E368C1
:104B40000B9A9B1A9845C0F2EE80E0680B9B984246
:104B5000B8BF184625E701234A4631462846B847DC
:104B600001303FF41CAF08F10108DDE7099B002B81
:104B700034DC0123184A31462846B84701303FF457
:104B80000EAF099B23B90A9B13B92368D907CFD568
:104B9000059B049A31462846B84701303FF4FFAEE2
:104BA0004FF0000904F11A0A099B5B42994501DBA9
:104BB0000A9B8BE70123524631462846B84701300D
:104BC0003FF4EDAE09F10109EEE700BFFFFFEF7F13
:104BD000CA770008CE770008DA7700080A9AA36D32
:104BE0009A42A8BF1A46002A914638DC04F11A03FB
:104BF0004FF0000B29EAE9790693D4F858A0AAEB04
:104C000009039B4533DB0A9B099A9A423ADB2368E6
:104C1000DA0737D40A9B0999A3EB0A02A3EB01092F
:104C20009145A8BF9146B9F1000F33DC4FF0000861
:104C300029EAE97904F11A0A099A0A9B9B1AA3EB5B
:104C400009039845BFF674AF012352463146284602
:104C5000B84701303FF4A3AE08F10108ECE7134672
:104C6000314642462846B8470130BFD197E6012376
:104C7000069A31462846B84701303FF490AE0BF112
:104C8000010BBAE7059B049A31462846B847013024
:104C9000C0D184E64B4608EB0A0231462846B847A5
:104CA0000130C3D17BE60A9A012A01DCDB0737D544
:104CB0000123424631462846B84701303FF46FAEE3
:104CC000059B049A31462846B84701303FF467AE49
:104CD00000220023D4E91201FBF712FF58B14FF074
:104CE000000804F11A0A0A9B013B98450DDB4B466C
:104CF00004F15002EBE60A9B08F10102013B314648
:104D00002846B8470130F2D149E6012352463146E0
:104D10002846B84701303FF442AE08F10108E2E707
:104D200001234246EBE701234A4631462846B8476D
:104D300001303FF434AE08F1010800E742464B462B
:104D400040464946FBF70EFF00283FF42DAE014BCD
:104D5000014A0EE6D2770008D67700082DE9F04721
:104D600091461F468A680B69DDF820809342B8BFE0
:104D70001346C9F8003091F8432006460C4612B19C
:104D80000133C9F800302368990642BFD9F80030D2
:104D90000233C9F80030256815F0060507D104F183
:104DA000190AE368D9F800209B1A9D4229DB94F880
:104DB00043302268003318BF012392062ED404F139
:104DC000430239463046C047013021D02368E568A8
:104DD000D9F8002003F00603042B08BFAD1AA3681E
:104DE00022690CBF25EAE57500259342C4BF9B1AD2
:104DF000ED184FF000091A344D451BD10020BDE8D5
:104E0000F0870123524639463046C047013003D16E
:104E10004FF0FF30BDE8F0870135C2E7E1185A1CBA
:104E2000302081F84300224494F8451082F8431062
:104E30000233C4E70123224639463046C0470130D9
:104E4000E6D009F10109D7E72DE9F04317460A7EBC
:104E500085B06E2A984606460C460C9B01F1430E1F
:104E600000F0BC801AD8632A2ED00AD8002A00F09D
:104E7000C880582A00F08A8004F1420584F8422054
:104E80002AE0642A01D0692AF6D121681A6811F053
:104E9000800F23D0111D1960136827E0732A00F0DA
:104EA000B48008D86F2A2AD0702AE5D10A6842F067
:104EB00020020A6003E0752A21D0782ADCD178220A
:104EC00084F845206E4964E01A6801F14205111D1D
:104ED0001960136884F842300123A3E011F0400FF9
:104EE00002F104011960D7D0B2F90030002B03DAC7
:104EF0002D225B4284F8432062490A2217E0206891
:104F0000196810F0800F03D0081D18600B6806E0C8
:104F100010F0400F01F104001860F7D00B885949D8
:104F20006F2A14BF0A220822002084F84300656813
:104F3000A560002DC0F29C80206820F00400206055
:104F4000002B3FD1002D40F095807546082A0BD1EB
:104F50002368DA0708D5236962689A42DEBF3023E6
:104F600005F8013C05F1FF35AEEB05032361CDF8F3
:104F700000803B4603AA21463046FFF7EFFE013092
:104F800055D14FF0FF3005B0BDE8F08381F84520E2
:104F90003C492268186812F0800F00F104051D607A
:104FA00001D0036802E05506FBD50388D00744BF53
:104FB00042F0200222601BB9226822F02002226007
:104FC0001022B1E77546B3FBF2F002FB1033CB5C65
:104FD00005F8013D03460028F5D1B7E708681A68CF
:104FE000496910F0800F04D0101D18601368196013
:104FF00007E010F0400F02F1040018601368F6D0CB
:105000001980002323617546B1E71A68111D1960E4
:105010001568626800212846FBF702F908B1401BB9
:10502000606063682361002384F843309FE723694D
:105030002A4639463046C0470130A2D023689B0734
:1050400007D5002504F11909E368039A9B1A9D42CC
:1050500005DBE068039B9842B8BF184693E701233D
:105060004A4639463046C04701308AD00135EBE721
:10507000002BA7D10B7884F8423004F1420565E794
:10508000ED770008DC7700080EB400B59CB04FF453
:1050900002711DABADF81410029006906FF0004144
:1050A0000A48049107914FF6FF7153F8042BADF8AD
:1050B00016100068019302A901F00EFB029B00226A
:1050C0001A701CB05DF804EB03B0704700010020BB
:1050D0002DE9F84F8046894692461F468B465D462D
:1050E0000A9815F8014B00F0E5FE2044467816F0CA
:1050F00008060BD12D2C0BD12C7801260BF10205C3
:1051000067B1102F14D1302C0AD011E0AB46E6E77E
:105110002B2C04BF2C780BF10205F1E7302C27D1A2
:105120002B7803F0DF03582B4BD16C781027023516
:10513000002E0CBF6FF000414FF000410022B1FB88
:10514000F7FE104607FB1E1CA4F13003092B11D8F3
:105150001C46A7421DDD531C07D0864516D301D13E
:10516000A44513DB00FB0740012215F8014BEBE7D8
:105170000A27DDE7A4F14103192B01D8373CE8E702
:10518000A4F16103192B04D8573CE2E74FF0FF323A
:10519000EBE7531C08D12223C8F800300846BAF1C7
:1051A000000F07D1BDE8F88F06B14042BAF1000FF9
:1051B0000CD022B1013DCAF80050BDE8F88F4D4631
:1051C000F9E73024002FB3D10827B1E7BDE8F88F05
:1051D000084B37B51C68084D236A002B08BF2B46C7
:1051E000009313460A4601462046FFF771FF03B0BD
:1051F00030BD00BF00010020640100202DE9F74F01
:1052000003690C699C42804600F38280013C01F1F5
:1052100014074FEA840E00F1140657F8245056F88C
:10522000240006EB0E03013507EB0E090193B0FBDA
:10523000F5F595B34FF0000A3846B446D34650F81A
:10524000042B93B205FB03A34FEA134A9BB2ABEBCB
:105250000303120CBCF800B005FB02A213FA8BF397
:105260004FEA124A1FFA82FBDCF80020CBEB124215
:1052700002EB23429BB243EA024381454FEA224BB1
:105280004CF8043BDBD256F80E3033B9019B043B9B
:105290009E421A4630D3C8F81040404601F03FF80D
:1052A000002825DB013530464FF0000E57F8042B5F
:1052B000D0F800C093B2AEEB0303120C13FA8CF3D8
:1052C000C2EB1C4202EB23429BB243EA0243B945C4
:1052D0004FEA224E40F8043BE8D256F8242006EB71
:1052E00084032AB9043B9E421A460BD3C8F81040E7
:1052F000284603B0BDE8F08F1268043B002ACAD1EB
:10530000013CC5E71268043B002AEFD1013CEAE703
:105310000020EEE7000000002DE9F04F57EC106B85
:1053200097B0CDE90067466A079104460A920F9349
:10533000209D3EB9102000F0CFFD6062466086607F
:105340000660C660636A196851B15A684A600123F1
:1053500093408B60204600F00DFE636A00221A60C5
:10536000019B002BBFBF01232B60019B23F0004357
:10537000B2BF019300232B60DDF80480A84B33EA11
:1053800008031BD10F9A42F20F731360009B23B9DD
:10539000C8F31300002800F07885219B53B9A14B76
:1053A00021E0A14B02930833219A1360029817B0B1
:1053B000BDE8F08F9B4B02930333F5E7DDE900670F
:1053C0000022002330463946FBF79AFB814660B144
:1053D0000F9A01231360219B002B00F05385934B00
:1053E000219A1360013B0293E0E714AA15A947EC48
:1053F000106B204601F00BF8C8F30A558246002DC9
:105400007ED0C7F3130343F07F51304641F440117F
:10541000A5F2FF35CDF848900022854BFAF754FFEE
:1054200079A3D3E90023FBF703F979A3D3E9002398
:10543000FAF74CFF064628460F46FBF793F876A38B
:10544000D3E90023FBF7F4F802460B463046394611
:10545000FAF73CFF06460F46FBF79AFB002283460D
:10546000002330463946FBF755FB58B15846FBF749
:1054700079F802460B4630463946FBF741FB08B93E
:105480000BF1FF3BBBF1160F59D86A4901EBCB0179
:10549000DDE90023D1E90001FBF75AFB002850D0D9
:1054A0000BF1FF3B00230E93149B5D1B6B1E0693B9
:1054B00045BFC5F101030593002300234CBF0693AC
:1054C0000593BBF1000F3EDB069BCDF82CB05B448F
:1054D000069300230893079B092B00F2AF80052B4E
:1054E000C4BF043B0793079BA3F10203CCBF002674
:1054F0000126032B00F2AE80DFE803F082842F77D1
:10550000159B149D1D4405F23243202B11DD009A9A
:1055100005F21240C3F1400322FA00F008FA03F347
:105520001843FBF70FF80123A1F1F871013D129325
:1055300072E7C3F12000009B03FA00F0F1E70123BA
:10554000B1E70E90B0E7059BA3EB0B030593CBF1FE
:105550000003089300230B93BDE7012309930A9BE3
:10556000002B7ADD04930393656A00226A600421AC
:1055700001F114029A4275D96968204600F0C6FC10
:10558000636A28601B680293039B0E2B00F2E58080
:10559000002E00F0E2809DED007BBBF1000F8DED51
:1055A0000C7B74DD234A0BF00F034FEA2B1602EB42
:1055B000C303F006D3E9008959D51F4B51EC170BF3
:1055C000D3E90823FBF75EF9CDE9000106F00F06E9
:1055D0000325194F002E4CD142464B46DDE9000110
:1055E000FBF750F9CDE900016AE0012309930A9B1A
:1055F0005B4404930133012B0393B8BF0123B3E74A
:105600000023ABE70023F1E761436F63A787D23F35
:10561000B3C8608B288AC63FFB799F501344D33FA1
:105620000000F07F07780008FE770008DB770008AD
:105630000000F83F40780008187800080126002391
:10564000079309964FF0FF3304930393002212232C
:105650000A9289E701230993F4E701230493039352
:105660001A46F5E76A6801326A60490080E7022558
:10567000AFE7F10708D540464946D7E90023FAF7D6
:10568000D7FF01358046894676100837A2E700F03B
:105690009D80CBF100069F4B9F4F06F00F0203EB5E
:1056A000C203D3E90023DDE90C01FAF7C1FFCDE91C
:1056B0000001361100230225002E7CD1002B91D150
:1056C0000E9B002B00F08480DDE900890022934BC3
:1056D00040464946FBF71EFA002879D0039B002B71
:1056E00076D0049B002B34DD00228D4B404649468A
:1056F000FAF79EFFCDE90001049E0BF1FF3701355B
:105700002846FAF72FFFDDE90023FAF791FF002280
:10571000844BFAF7DBFD8046A1F15079002E5AD177
:105720000022814BDDE90001FAF7CEFD42464B46EF
:10573000CDE90001FBF70CFA002840F09B824246BD
:1057400009F10043DDE90001FBF7E4F9002840F02E
:105750008F82DDE90C23CDE90023159B002BC0F2DD
:105760005081BBF10E0F00F34C816A4B03EBCB036E
:10577000D3E900890A9B002B80F2DA80039B002B7F
:1057800000F3D68040F073820022674B40464946C2
:10579000FAF74EFFDDE90023FBF7D0F9039E374609
:1057A000002840F04A82029B029A5D1C312313704C
:1057B0000BF1010B45E2F20705D5D7E90023FAF713
:1057C00037FF013501237610083775E7022577E7A3
:1057D0005F46039E94E7029A4E4B32441392099A15
:1057E000711E002A48D003EBC103D3E90023002037
:1057F0004E49FBF747F842464B46FAF765FD029DD6
:1058000080468946DDE90001FBF7C2F90646FAF752
:10581000A9FE02460B46DDE90001FAF755FD3036D8
:1058200005F8016B42464B46CDE90001FBF772F9E2
:10583000002865D1DDE9002300203849FAF744FD4E
:1058400042464B46FBF766F9002840F0BA80139BAE
:105850009D423FF47EAF0022314B40464946FAF765
:10586000E7FE0022804689462D4BDDE90001FAF76C
:10587000DFFECDE90001C5E703EBC10142464B461F
:10588000D1E90001FAF7D4FECDE91001029DDDE96E
:105890000001FBF77DF90646FAF764FE3036024652
:1058A0000B46DDE90001FAF70FFD05F8016B139BCC
:1058B000AB42804689464FF0000225D11B4BDDE903
:1058C0001001FAF703FD02460B4640464946FBF736
:1058D0003FF9002875D1DDE9102300201349FAF7BC
:1058E000F3FC02460B4640464946FBF713F90028F5
:1058F0003FF42FAF15F8013C302B05F1FF3201D0FA
:10590000BB464DE01546F5E7054BFAF791FECDE9AC
:105910000001BCE740780008187800080000F03F5C
:105920000000244000001C40000014400000E03F44
:10593000DDE90067029D42464B4630463946FAF79C
:10594000A1FFFBF725F90090FAF70CFE42464B4603
:10595000FAF76EFE02460B4630463946FAF7B4FCBB
:10596000009E039F303605F8016B029EAE1BB742C6
:1059700002460B4638D1FAF7A9FC06460F46024606
:105980000B4640464946FBF7C5F8C8B932463B4688
:1059900040464946FBF7B4F810B1009BDB070FD433
:1059A0005146204600F0E6FA00230F9A2B700BF1C7
:1059B00001031360219B002B3FF4F8AC1D60F5E45C
:1059C0005F4615F8012C392A05F1FF3306D1029AFA
:1059D0009A4207D130231370013713461A780132E7
:1059E0001A708DE71D46ECE70022A44BFAF720FE63
:1059F0000022002306460F46FBF782F800289AD0C3
:105A0000CEE7099A002A00F0CD80079A012A00F318
:105A1000AF80129A002A00F0A78003F23343089E59
:105A2000059D059A1A440592069A01211A442046BA
:105A3000069200F03FFB0746002D0CDD069B002B75
:105A400009DDAB42059AA8BF2B46D21A0592069AE9
:105A5000ED1AD31A0693089BF3B1099B002B00F0B3
:105A6000A580002E10DD39463246204600F0B8FBF6
:105A7000524601460746204600F025FB5146804627
:105A8000204600F077FAC246089B9A1B04D0514684
:105A9000204600F0A5FB82460121204600F00AFBCB
:105AA0000B9B002B064640F383801A460146204696
:105AB00000F096FB079B012B06467CDD4FF00008AB
:105AC000336906EB8303186900F0A6FAC0F12000E1
:105AD000069B184410F01F0000F09680C0F12003D0
