:020000040800F2
:100000000000022005540008F9520008FB520008C5
:10001000FD520008FF5200080153000800000000D4
:100020000000000000000000000000000353000872
:10003000055300080000000007530008095300089A
:1000400055540008555400085554000855540008EC
:1000500055540008555400085554000855540008DC
:100060005554000855540008555400080D53000815
:10007000555400081953000825530008315300084F
:100080003D530008495300085554000855540008D2
:10009000555400085554000855540008555400089C
:1000A000555400085554000855540008555400088C
:1000B000555400085554000855540008555400087C
:1000C000555400085554000855540008555400086C
:1000D000555400085554000855540008555400085C
:1000E000555400085554000855540008555400084C
:1000F0005553000855540008555400087153000822
:10010000555400085554000855540008555400082B
:100110007D530008555400085554000855540008F4
:10012000555400085554000855540008555400080B
:10013000555400080000000000000000555400085D
:1001400055540008555400085554000855540008EB
:1001500055540008555400085554000855540008DB
:1001600055540008555400085554000855540008CB
:10017000555400085554000855540008000000006C
:1001800000000000555400080000000000000000BE
:1001900055540008000000000000000055540008FD
:1001A000000000000000000000000000555400089E
:1001B000555400085554000855540008555400087B
:0401C000555400088A
:1001D00010B5054C237833B9044B13B10448AFF381
:1001E00000800123237010BD0003002000000000E8
:1001F0008074000808B5034B1BB103490348AFF3F3
:10020000008008BD00000000040300208074000886
:1002100010F8012B11F8013B012A28BF9A42F7D0B0
:10022000D01A7047034613F8012B002AFBD1181A85
:1002300001387047000000000000000000000000CE
:1002400001F0FF01102A2BDB10F0070F08D010F887
:10025000013B013A8B422DD010F0070F42B3F6D18B
:10026000F0B441EA012141EA014122F007047FF0A4
:1002700000070023F0E80256083C85EA010586EAFB
:10028000010685FA47F5A3FA87F586FA47F6A5FA37
:1002900087F68EB9EED1F0BC01F0FF0102F0070243
:1002A00032B110F8013B013A83EA010313B1F8D1EE
:1002B0000020704701387047002D06BF35460338CF
:1002C000073815F0010F07D1013015F4807F02BF08
:1002D000013015F4C03F0130F0BC0138704700BF59
:1002E00081F0004102E000BF83F0004330B54FEAE7
:1002F00041044FEA430594EA050F08BF90EA020F54
:100300001FBF54EA000C55EA020C7FEA645C7FEAE6
:10031000655C00F0E2804FEA5454D4EB5555B8BF09
:100320006D420CDD2C4480EA020281EA030382EA7A
:10033000000083EA010180EA020281EA0303362D0C
:1003400088BF30BD11F0004F4FEA01314FF4801CDF
:100350004CEA113102D0404261EB410113F0004FF1
:100360004FEA03334CEA133302D0524263EB4303A8
:1003700094EA050F00F0A780A4F10104D5F1200E46
:100380000DDB02FA0EFC22FA05F2801841F10001A1
:1003900003FA0EF2801843FA05F359410EE0A5F175
:1003A00020050EF1200E012A03FA0EFC28BF4CF0A6
:1003B000020C43FA05F3C01851EBE37101F000455C
:1003C00007D54FF0000EDCF1000C7EEB00006EEB69
:1003D0000101B1F5801F1BD3B1F5001F0CD34908F3
:1003E0005FEA30004FEA3C0C04F101044FEA44524A
:1003F00012F5800F80F09A80BCF1004F08BF5FEAD1
:10040000500C50F1000041EB045141EA050130BDB0
:100410005FEA4C0C404141EB010111F4801FA4F153
:100420000104E9D191F0000F04BF01460020B1FAA8
:1004300081F308BF2033A3F10B03B3F120020CDAE0
:100440000C3208DD02F1140CC2F10C0201FA0CF0BE
:1004500021FA02F10CE002F11402D8BFC2F1200C23
:1004600001FA02F120FA0CFCDCBF41EA0C019040D9
:10047000E41AA2BF01EB0451294330BD6FEA040422
:100480001F3C1CDA0C340EDC04F11404C4F120020D
:1004900020FA04F001FA02F340EA030021FA04F31F
:1004A00045EA030130BDC4F10C04C4F1200220FA76
:1004B00002F001FA04F340EA0300294630BD21FAB4
:1004C00004F0294630BD94F0000F83F4801306BF7A
:1004D00081F480110134013D4EE77FEA645C18BF6E
:1004E0007FEA655C29D094EA050F08BF90EA020F05
:1004F00005D054EA000C04BF1946104630BD91EAFD
:10050000030F1EBF0021002030BD5FEA545C05D1FF
:100510004000494128BF41F0004130BD14F580043E
:100520003CBF01F5801130BD01F0004545F0FE41B2
:1005300041F470014FF0000030BD7FEA645C1ABFE7
:10054000194610467FEA655C1CBF0B46024650EA1E
:10055000013406BF52EA033591EA030F41F400214A
:1005600030BD00BF90F0000F04BF0021704730B5D0
:100570004FF4806404F132044FF000054FF00001A5
:1005800050E700BF90F0000F04BF0021704730B566
:100590004FF4806404F1320410F0004548BF40423B
:1005A0004FF000013EE700BF42004FEAE2014FEA90
:1005B00031014FEA02701FBF12F07F4393F07F4F6B
:1005C00081F06051704792F0000F14BF93F07F4F9D
:1005D000704730B54FF4607401F0004521F00041E0
:1005E00020E700BF50EA010208BF704730B54FF066
:1005F00000050AE050EA010208BF704730B511F06B
:10060000004502D5404261EB41014FF4806404F1A2
:1006100032045FEA915C3FF4DCAE4FF003025FEA24
:10062000DC0C18BF03325FEADC0C18BF033202EBAC
:10063000DC02C2F1200300FA03FC20FA02F001FA06
:1006400003FE40EA0E0021FA02F11444C1E600BFA5
:1006500070B54FF0FF0C4CF4E06C1CEA11541DBF58
:100660001CEA135594EA0C0F95EA0C0F00F0DEF823
:100670002C4481EA030621EA4C5123EA4C5350EA08
:10068000013518BF52EA033541F4801143F4801359
:1006900038D0A0FB02CE4FF00005E1FB02E506F0EA
:1006A0000042E0FB03E54FF00006E1FB03569CF03F
:1006B000000F18BF4EF0010EA4F1FF04B6F5007F45
:1006C00064F5407404D25FEA4E0E6D4146EB0606B7
:1006D00042EAC62141EA55514FEAC52040EA5E5040
:1006E0004FEACE2EB4F1FD0C88BFBCF5E06F1ED8EA
:1006F000BEF1004F08BF5FEA500E50F1000041EB21
:10070000045170BD06F0004646EA010140EA0200CD
:1007100081EA0301B4EB5C04C2BFD4EB0C0541EAEF
:10072000045170BD41F480114FF0000E013C00F304
:10073000AB8014F1360FDEBF002001F0004170BD28
:10074000C4F10004203C35DA0C341BDC04F1140441
:10075000C4F1200500FA05F320FA04F001FA05F2CD
:1007600040EA020001F0004221F0004110EBD3709A
:1007700021FA04F642EB06015EEA430E08BF20EAC6
:10078000D37070BDC4F10C04C4F1200500FA04F369
:1007900020FA05F001FA04F240EA020001F00041FB
:1007A00010EBD37041F100015EEA430E08BF20EA6E
:1007B000D37070BDC4F1200500FA05F24EEA020EB6
:1007C00020FA04F301FA05F243EA020321FA04F0E5
:1007D00001F0004121FA04F220EA020000EBD3709C
:1007E0005EEA430E08BF20EAD37070BD94F0000F9C
:1007F0000FD101F00046400041EB010111F4801FD0
:1008000008BF013CF7D041EA060195F0000F18BF80
:10081000704703F00046520043EB030313F4801FBC
:1008200008BF013DF7D043EA0603704794EA0C0F76
:100830000CEA135518BF95EA0C0F0CD050EA41068C
:1008400018BF52EA4306D1D181EA030101F0004109
:100850004FF0000070BD50EA410606BF1046194631
:1008600052EA430619D094EA0C0F02D150EA01363D
:1008700013D195EA0C0F05D152EA03361CBF10467E
:1008800019460AD181EA030101F0004141F0FE411D
:1008900041F470014FF0000070BD41F0FE4141F4A1
:1008A000780170BD70B54FF0FF0C4CF4E06C1CEAA1
:1008B00011541DBF1CEA135594EA0C0F95EA0C0F56
:1008C00000F0A7F8A4EB050481EA030E52EA033511
:1008D0004FEA013100F088804FEA03334FF0805532
:1008E00045EA131343EA12634FEA022245EA11155F
:1008F00045EA10654FEA00260EF000419D4208BF10
:10090000964244F1FD0404F5407402D25B084FEABC
:100910003202B61A65EB03055B084FEA32024FF468
:1009200080104FF4002CB6EB020E75EB030E22BFC5
:10093000B61A754640EA0C005B084FEA3202B6EB85
:10094000020E75EB030E22BFB61A754640EA5C0034
:100950005B084FEA3202B6EB020E75EB030E22BFC4
:10096000B61A754640EA9C005B084FEA3202B6EBC5
:10097000020E75EB030E22BFB61A754640EADC0084
:1009800055EA060E18D04FEA051545EA16754FEAE6
:1009900006164FEAC30343EA52734FEAC2025FEA04
:1009A0001C1CC0D111F4801F0BD141EA00014FF093
:1009B00000004FF0004CB6E711F4801F04BF014364
:1009C0000020B4F1FD0C88BFBCF5E06F3FF6AFAE80
:1009D000B5EB030C04BFB6EB020C5FEA500C50F110
:1009E000000041EB045170BD0EF0004E4EEA113193
:1009F00014EB5C04C2BFD4EB0C0541EA045170BD9A
:100A000041F480114FF0000E013C90E645EA060EDD
:100A10008DE60CEA135594EA0C0F08BF95EA0C0F0B
:100A20003FF43BAF94EA0C0F0AD150EA01347FF453
:100A300034AF95EA0C0F7FF425AF104619462CE72A
:100A400095EA0C0F06D152EA03353FF4FDAE10468D
:100A5000194622E750EA410618BF52EA43067FF4DE
:100A6000C5AE50EA41047FF40DAF52EA43057FF46E
:100A7000EBAE12E74FF0FF3C06E000BF4FF0010C79
:100A800002E000BF4FF0010C4DF804CD4FEA410CDD
:100A90007FEA6C5C4FEA430C18BF7FEA6C5C1BD0AA
:100AA00001B050EA410C0CBF52EA430C91EA030F2B
:100AB00002BF90EA020F0020704710F1000F91EA88
:100AC000030F58BF994208BF90422CBFD8176FEA56
:100AD000E37040F0010070474FEA410C7FEA6C5C24
:100AE00002D150EA013C07D14FEA430C7FEA6C5C2B
:100AF000D6D152EA033CD3D05DF8040B704700BF57
:100B00008446104662468C461946634600E000BFA4
:100B100001B5FFF7B7FF002848BF10F1000F01BD76
:100B20004DF808EDFFF7F4FF0CBF012000205DF841
:100B300008FB00BF4DF808EDFFF7EAFF34BF0120C6
:100B400000205DF808FB00BF4DF808EDFFF7E0FF5F
:100B500094BF012000205DF808FB00BF4DF808EDB0
:100B6000FFF7CEFF94BF012000205DF808FB00BF17
:100B70004DF808EDFFF7C4FF34BF012000205DF8F9
:100B800008FB00BF4FEA410C7FEA6C5C02D150EADF
:100B9000013C0AD14FEA430C7FEA6C5C02D152EA75
:100BA000033C02D14FF0000070474FF00100704746
:100BB0004FEA410212F5001215D211D56FF4787385
:100BC000B3EB625212D94FEAC12343F0004343EA28
:100BD000505311F0004F23FA02F018BF4042704703
:100BE0004FF00000704750EA013005D111F000408D
:100BF00008BF6FF0004070474FF00000704700BF23
:100C00004FEA4102B2F1E04324BFB3F5001CDCF12E
:100C1000FE5C0DD901F0004C4FEAC0024CEA507066
:100C2000B2F1004F40EB830008BF20F00100704795
:100C300011F0804F21D113F13872BCBF01F0004098
:100C4000704741F480114FEA5252C2F11802C2F1CA
:100C5000200C10FA0CF320FA02F018BF40F001004B
:100C60004FEAC1234FEAD32303FA0CFC40EA0C00FD
:100C700023FA02F34FEA4303CCE77FEA625307D13A
:100C800050EA01331EBF4FF0FE4040F44000704771
:100C900001F0004040F0FE4040F40000704700BF0B
:100CA00053B94AB9002908BF00281CBF4FF0FF31D3
:100CB0004FF0FF3000F07AB9ADF1080C6DE904CEC9
:100CC00000F006F8DDF804E0DDE9022304B0704727
:100CD0002DE9F0478C460D460446089E002B51D165
:100CE0008A4217466DD9B2FA82FEBEF1000F0BD0D0
:100CF000CEF1200C01FA0EF520FA0CFC02FA0EF7E8
:100D00004CEA050C00FA0EF44FEA174A250CBCFB1E
:100D1000FAF81FFA87F90AFB18CC45EA0C4508FBDC
:100D200009F3AB420AD9ED1908F1FF3280F02381B3
:100D3000AB4240F22081A8F102083D44ED1AA4B272
:100D4000B5FBFAF00AFB105544EA054400FB09F92B
:100D5000A14509D9E41900F1FF3380F00A81A145CA
:100D600040F2078102383C44A4EB090440EA084001
:100D70000021002E61D024FA0EF400233460736049
:100D8000BDE8F0878B4207D9002E54D0002186E8B9
:100D900021000846BDE8F087B3FA83F1002940F04E
:100DA0008E80AB4202D3824200F2FA80841A65EB55
:100DB00003050120AC46002E3FD086E81010BDE8A8
:100DC000F08712B90127B7FBF2F7B7FA87FEBEF139
:100DD000000F34D1EB1B3A0C1FFA87FC0121B3FB47
:100DE000F2F8250C02FB183345EA03450CFB08F327
:100DF000AB4207D9ED1908F1FF3002D2AB4200F245
:100E0000D1808046ED1AA3B2B5FBF2F002FB10557B
:100E100043EA05440CFB00FCA44507D9E41900F1A2
:100E2000FF3302D2A44500F2B8801846A4EB0C04AC
:100E300040EA08409DE731463046BDE8F087CEF1F4
:100E4000200405FA0EF307FA0EF720FA04F83A0C1C
:100E500025FA04F448EA0308B4FBF2F14FEA184516
:100E600002FB11441FFA87FC45EA044501FB0CF321
:100E7000AB4200FA0EF409D9ED1901F1FF3080F010
:100E80008A80AB4240F2878002393D44EB1A1FFA58
:100E900088F5B3FBF2F002FB103345EA034500FB93
:100EA0000CF3AB4207D9ED1900F1FF386FD2AB421A
:100EB0006DD902383D44EB1A40EA01418FE7C1F198
:100EC000200722FA07F88B4005FA01F448EA0303E9
:100ED00020FA07FE4FEA134CFD404EEA040EB5FB24
:100EE000FCF94FEA1E440CFB19551FFA83F844EA3B
:100EF000054509FB08F4AC4202FA01F200FA01FAD6
:100F000008D9ED1809F1FF3043D2AC4241D9A9F11B
:100F100002091D442D1B1FFA8EFEB5FBFCF00CFBD5
:100F200010554EEA054400FB08F8A04507D9E4181F
:100F300000F1FF3529D2A04527D902381C4440EAE8
:100F40000940A4EB0804A0FB02894C45C6464D4667
:100F500015D312D056B1BAEB0E0364EB050404FAB4
:100F600007F7CB401F43CC40376074600021BDE8D9
:100F7000F0871846F8E69046E0E6C245EAD2B8EBBC
:100F8000020E69EB03050138E4E72846D7E740463F
:100F900091E78146BEE7014678E702383C4445E7E1
:100FA000084608E7A8F102083D442BE7704700BF58
:100FB00038B50E4A0E4B054618784FF47A73B3FBDA
:100FC000F0F31068B0FBF3F000F0F2F9044658B902
:100FD0000F2D09D8024629464FF0FF3000F0A6F940
:100FE000044B20461D6038BD012038BD280100207B
:100FF000000000200400002008B50B4B1A6842F4E2
:1010000000721A601A6842F480621A601A6842F428
:1010100080721A60032000F077F90020FFF7C8FF04
:1010200003F03CFD002008BD003C0240034A044B95
:1010300011681B780B441360704700BF3C0300200D
:1010400000000020014B1868704700BF3C030020DF
:1010500038B50446FFF7F6FF631C1CBF054B1B7831
:10106000054618BFE418FFF7EDFF401B8442FAD88D
:1010700038BD00BF0000002038B50446002800F04D
:101080009B80056C25B903F025FD656484F83C5010
:10109000236CDB0600F18E80236C23F4885323F04D
:1010A000020343F002032364444B5A6822F44032A3
:1010B0005A605A6861680A435A60236821695A680D
:1010C00022F480725A605A6842EA01225A605A68D1
:1010D000A16822F040725A605A680A435A609A68BE
:1010E000E16822F400629A609A680A439A6034497F
:1010F000A26A8A4252D0996821F070619960996819
:101100000A439A609A68E16A22F040529A609A68AB
:101110000A439A609A68217E22F002029A609A68D5
:1011200042EA41029A6094F82020002A3ED05A6890
:10113000616A42F400625A605A6822F460425A605E
:101140005A68013942EA41325A60DA6AE16922F4A6
:101150007002DA62DA6A013942EA0152DA629A68A6
:1011600094F8301022F400729A609A6842EA4122A0
:101170009A609A68616922F480629A609A68002095
:1011800042EA81229A606064236C23F0030343F0F7
:1011900001032364002384F83C3038BD9A6822F0B0
:1011A00070629A609A6822F04052B2E75A6822F45C
:1011B0000062C9E70120EDE7012038BD00230140AE
:1011C0000100000FF7B50023019390F83C30012B8C
:1011D0006ED00D6804688A680123092D80F83C30C0
:1011E000AEB22AD906EB4603E7681E3B4FF0070E66
:1011F0000EFA03FE27EA0E07E760E76802FA03F338
:101200003B43E3604A68062A4FEA820325D8134429
:10121000676B591F1F238B4027EA03036363626BCD
:1012200006FA01F111436163324B9C4234D0002332
:1012300080F83C30184603B0F0BD276905EB450344
:101240004FF0070E0EFA03FE27EA0E072761276903
:1012500002FA03F33B432361D4E70C2A0ED813446C
:10126000216BA3F123021F23934021EA030323638D
:10127000236B06FA02F21A432263D5E71344E16AAC
:10128000413B1F229A4021EA0202E262E26A06FA28
:1012900003F11143E162C7E7122D0BD1164B5A68D7
:1012A00022F400025A605A6842F480025A60BEE793
:1012B0000220C0E7114B9D4201D0112DB7D10E4B3A
:1012C0005A6822F480025A605A6842F400025A6056
:1012D0000A4B9D42ABD10A4B0A4A1B68B3FBF2F2A0
:1012E0000A2353430193019B002BA0D0019B013B98
:1012F000F8E700BF00200140002301401200001069
:101300002801002040420F00074AD36823F4E0631D
:101310001B041B0C43F0BF63000243F4003300F4D2
:10132000E0600343D360704700ED00E0174B30B539
:10133000DC68C4F30224C4F10703251D042B28BF75
:101340000423062D4FF0010505FA03F303F1FF33E3
:101350008CBF033C00241940A14005FA04F4013C71
:101360002240002842EA01024FEA0212ADBF00F11A
:10137000604000F00F00064B00F56140B5BFD2B2EF
:10138000D2B21A5480F8002330BD00BF00ED00E057
:1013900014ED00E0002808DB4209012300F01F00E3
:1013A00003FA00F0014B43F82200704700E100E02F
:1013B0000138B0F1807F0AD2064B074A5860F0210D
:1013C00082F823100020072298601A6070470120DD
:1013D000704700BF10E000E000ED00E00368DAB203
:1013E00023F47F7323F003031821103AB2FBF1F2C8
:1013F0000449032A88BF0433895C8365C165806D15
:10140000704700BFA474000870B50446FFF71AFEC9
:101410000546002C71D0002384F834302268022362
:1014200084F83530136823F00103136021680B68DA
:10143000D8073CD40B68324D6268A0691D40A36890
:101440001343E26813432269134362691343E26959
:1014500003431343226A1343626A042A43EA0503DF
:1014600001BF266BE56A35432B430B604B69042AA9
:1014700023F0070343EA02030BD1A26AE56A134390
:101480003DB1F8B9012A2DD001D3022A01D1EA01D8
:101490002BD44B612046FFF7A1FFE26D3F23934021
:1014A000836000200123606584F8353070BDFFF74C
:1014B000C9FD401B0528B9D920236365032084F8A2
:1014C000350070BDB0F5005F13D1032AE1D801A04B
:1014D00050F822F0EB1400088F140008EB140008F9
:1014E000E5140008B5F1C07FD3D140236365012026
:1014F000E5E7022AF9D9032AC8E7012070BD00BF39
:101500003F8010F070B590F83440012C32D00124A7
:1015100080F8344090F83540866D012C4FF000057E
:101520004FF0020424D180F83540046845652568F1
:1015300025F48025256063608368402B0EBFA26080
:10154000A160E260C26D08BFE1603F239340B360D9
:10155000236843F016032360036C1BB1236843F038
:1015600008032360236843F001032360002070BD5B
:1015700080F83450022070BD90F83530022B03D033
:1015800080234365012070470268052380F83530C9
:10159000136823F00103136000207047F7B50023A0
:1015A00001935A4B856D1F68C36D2E6808229A40BF
:1015B000164204460CD001680868400708D5086840
:1015C00020F004000860AA60626D42F001026265CA
:1015D00001229A40164208D021684969090641BF94
:1015E000AA60626D42F00202626504229A401642CD
:1015F00008D021680968880741BFAA60626D42F07F
:101600000402626510229A40164210D023681968BD
:1016100009070CD5AA601A68500335D51B68190351
:1016200001D4236C00E0A36C0BB120469847E16D18
:1016300020228A40164238D023681868C60634D55E
:10164000AA6094F83520052A1A6825D122F01602DE
:101650001A605A6922F080025A61226C0AB9A26C9F
:101660001AB11A6822F008021A603F238B40AB605F
:10167000002384F83430012384F83530236D0BB116
:101680002046984703B0F0BD1A68D2055EBF1A68BD
:1016900022F008021A60C4E7500328D51B6819031A
:1016A00032D4636C0BB120469847636D002BE9D0B0
:1016B000636DDA0719D50523226884F8353013687D
:1016C00023F0010313604FF41653B7FBF3F7019BAC
:1016D00001339F42019302D31368DB07F7D4002341
:1016E00084F83430012384F83530E36CC7E71A6896
:1016F00012F4807208D1196821F0100119600123D9
:1017000084F8342084F83530E36BCBE728010020DF
:101710002DE9F04F85B00B68DFF8A081654ADFF84E
:10172000A091019300230124019D9C402540AC42DF
:1017300040F0AC804C6824F0100C0CF1FF36012E08
:101740004FEA430E12D88768032606FA0EF627EAF8
:101750000607CE6806FA0EF63E4386604768C4F375
:10176000001627EA05079E403E4346600326C768E9
:1017700006FA0EF6F64307EA060A8F6807FA0EF72E
:1017800047EA0A07BCF1020FC76016D14FEAD30A35
:1017900000EB8A0A03F0070BDAF820704FEA8B0B94
:1017A0004FF00F0C0CFA0BFC27EA0C0C0F6907FA30
:1017B0000BF747EA0C07CAF8207007683E4004F0B0
:1017C000030707FA0EFE4EEA06060660E6005DD540
:1017D0004FF0000BCDF80CB0D8F84470364E47F4FB
:1017E0008047C8F84470D8F8447007F480470397DE
:1017F000039F23F0030707F1804707F59C3703F0A9
:10180000030CD7F808A04FEA8C0C4FF00F0E0EFA1D
:101810000CFEB0422AEA0E0E3FD006F58066B042BA
:101820003DD006F58066B0423BD006F58066B042FA
:1018300039D006F58066B04237D0484537D006F536
:101840000066B04214BF0726062606FA0CF646EAE2
:101850000E06BE601668EF4314F4803F0CBF3E4096
:101860002E431660566814F4003F0CBF3E402E43D2
:101870005660966814F4801F0CBF3E402E4396605D
:10188000D668A40254BF3E402E43D6600133102BCD
:101890007FF449AF05B0BDE8F08F5E46D5E701267D
:1018A000D3E70226D1E70326CFE70426CDE70526B6
:1018B000CBE700BF003C014000000240003802407E
:1018C000001402400369194214BF01200020704730
:1018D0000AB1816170470904FBE7436931EA0303F8
:1018E00008BF09048161704770B5044608B901203A
:1018F00070BD90F83D3003F0FF021BB980F83C202A
:1019000003F01AF9242384F83D3023681A6822F082
:1019100001021A601A6842F400421A601A6822F43E
:1019200000421A6000F064F96568414B9D424DD851
:10193000404B9842DBD922683F495368B0FBF1F134
:1019400023F03F030B435360136A23F03F0301313D
:1019500019431162D169364B21F44F419D4221F068
:10196000FF0100F1FF3048D86D00B0FBF5F0013009
:10197000C0F30B03042B38BF04230B43D36111685E
:10198000206AE36921F0C00103430B4313609168AF
:10199000E068236921F40341034321F0FF010B4375
:1019A0009360D168A069636921F0FF0103430B4391
:1019B000D360136843F001031360002020232064E8
:1019C00084F83D30206384F83E0070BD1B4B984284
:1019D0008DD92268184E5368B0FBF6F623F03F030A
:1019E00033435360136A4FF49671714323F03F03FE
:1019F0004FF47A76B1FBF6F1A9E7A36853B905EB8A
:101A00004503B0FBF3F0431CC3F30B036BB143F48A
:101A10000043B2E719236B43B0FBF3F0431CC3F35D
:101A20000B0313B143F44043A7E70123A5E700BF2D
:101A3000A08601007F841E0040420F00FF083D0089
:101A400037B500230193184B184C1A6C42F08052A2
:101A50001A641B6C03F080530193019B144B012209
:101A60001A60FFF7EFFA05466368DA030BD5114BEE
:101A70000E4C01221A60FFF7E5FA054663689B03E6
:101A80000AD5002006E0FFF7DDFA401BB0F57A7FAB
:101A9000EAD9032003B030BDFFF7D4FA401BB0F5FC
:101AA0007A7FEBD9F5E700BF0038024000700040B4
:101AB00040000E4244000E422DE9F0410D4604461E
:101AC00010B90120BDE8F081444B1A6802F00F0202
:101AD0008A4229D321688F072ED4C80741D43F4BAF
:101AE0001A6802F00F02954267D3226851076DD43D
:101AF000130707D53A4A2169936823F4604343EA00
:101B0000C103936000F09CFA354B364A9B68C3F3DF
:101B10000313D35CD840344B1860344B1868FFF77C
:101B200047FA0020BDE8F081CAB21A701B6803F0C2
:101B30000F039942C5D1CDE7294B11F0040F1EBF09
:101B40009A6842F4E0529A600E0742BF9A6842F4E3
:101B500060429A609A68A06822F0F00202439A609C
:101B6000BBE762681E4B012A1DD11B6813F4003FBE
:101B7000A7D01B4EB36823F003031343B360FFF7F2
:101B800061FA41F288380746B368626803F00C03D3
:101B9000B3EB820FA3D0FFF755FAC01B4045F3D932
:101BA0000320BDE8F081911E01291B6802D813F0C3
:101BB000007FDDE713F0020FDAE7EAB21A701B6864
:101BC00003F00F039D427FF47CAF8EE70449E06889
:101BD0008B6823F4E05303438B6089E7003C0240A9
:101BE0000038024036770008280100200400002059
:101BF000044B054A9B68C3F38223D35C034A1068F5
:101C0000D84070470038024046770008280100207D
:101C1000044B054A9B68C3F34233D35C034A106804
:101C2000D84070470038024046770008280100205D
:101C300003682DE9F74313F0010604460BD0AA49C7
:101C4000866BD1F88C2022F0C0623243B6FA86F659
:101C5000C1F88C2076099D070BD5A348E16BD0F81D
:101C60008C2022F0C0520A430029C0F88C2008BF03
:101C7000012613F0040512D09B49256BD1F88C2066
:101C8000B5F5801F22F4401242EA050218BFB5FAEA
:101C900085F5C1F88C2012BF6D09002501261807B3
:101CA0000FD59148616BD0F88C2022F440020A4392
:101CB000B1F5800FC0F88C2000F00981002908BF21
:101CC0000125990633D500230193874B874F1A6C62
:101CD00042F080521A641B6C03F080530193019B05
:101CE0003B6843F480733B60FFF7ACF980463B6888
:101CF000DA0540F1EE807C4F3B6F13F4407340F007
:101D0000FB80236C03F44072B2F5407F764A40F0CA
:101D10001681916823F0704021F4F81120F440708E
:101D200001439160116FC3F30B030B4313672368E7
:101D3000D90642BF6E4B94F858201A6023681A06E1
:101D400008D56949E06CD1F8942022F4400202439E
:101D5000C1F894205F0608D56349A06CD1F894209F
:101D600022F080620243C1F89420D8050CD55E4869
:101D7000616DD0F8942022F000620A43B1F1006F47
:101D8000C0F8942008BF0125990508D55649606C14
:101D9000D1F8942022F080520243C1F894205A05D1
:101DA00000F1D180012E40F0DC80524E4E4F0023D6
:101DB0003360FFF747F980463B681B0100F125813E
:101DC0002268D00701D5A36B1BB1910715D5E36B32
:101DD0009BB94549D1F88430D1F8840003F44033ED
:101DE00000F07060034360680343A06843EA801317
:101DF000606943EA0073C1F88430530703D5236B4D
:101E0000B3F5801F05D0170720D5636BB3F5800F9E
:101E10001CD13549D1F88430D1F8840003F4403323
:101E200000F0E040034360680343A06843EA801386
:101E3000206943EA0063C1F88430D1F88C00A36ABA
:101E400020F01F00013B0343C1F88C3050051BD527
:101E5000236DB3F1005F17D123486768D0F8841071
:101E6000D0F8843003F0E0433B43A768C1F301415D
:101E7000013143EA871343EA4163E16849080139C4
:101E800043EA0143C0F88430110511D52369A268E3
:101E90001B0643EA821362681343626943EA0273D2
:101EA000E2685208013A43EA02430F4AC2F884301A
:101EB00001233360FFF7C6F80B4E074633681A015B
:101EC00053D4FFF7BFF8C01B0228F7D908E001265A
:101ED000F7E6FFF7B7F8A0EB080002287FF607AF98
:101EE000032003B0BDE8F0830038024000700040DA
:101EF000E011474268004742226C02F4407293426C
:101F00003FF4FFAE3B6F4B4A0121116023F4407355
:101F1000002111603B673B6FDB077FF5F2AEFFF7F7
:101F200091F841F2883980463B6F98073FF5E9AE5A
:101F3000FFF788F8A0EB08004845F5D9D0E791688D
:101F400021F4F811EDE63C48216DD0F8942022F000
:101F500000520A43B1F1005FC0F894207FF422AF31
:101F600023E7B3F5006F3FF420AF012D4BD1334D84
:101F7000314E00232B60FFF765F8074633689B005E
:101F80004BD421684E0701D5236B1BB108071AD526
:101F9000636BC3B9284AA069D2F8883003F4403390
:101FA0000343E06943EA8013606A43EA0063C2F8CE
:101FB0008830D2F88C30E06A23F4F853013843EAD1
:101FC0000023C2F88C30CA0514D5636DB3F1006FDD
:101FD00010D11949A269D1F8883003F07063134316
:101FE000E26943EA8213226A5208013A43EA024351
:101FF000C1F8883001232B60FFF724F80E4C05460A
:1020000023689B000FD500206BE7FFF71BF8A0EBC0
:10201000080002287FF6D0AE62E7FFF713F8C01B76
:102020000228ABD95CE7FFF70DF8401B0228E7D97F
:1020300056E700BF400E474200380240700047425A
:10204000204908B58B6803F00C03082B07D00C2B34
:1020500020D01D4A1D48042B18BF104608BD4A68F1
:102060004B68496813F4800314BF18481648C1F33D
:10207000881118BF002302F03F02A1FB0001FEF708
:102080000FFE104B5B68C3F3014301335B00B0FBF1
:10209000F3F008BD4A684B68496813F4800314BF25
:1020A0000A480948C1F3881118BF002302F03F0213
:1020B000A1FB0001FEF7F4FD024B5B68C3F3027362
:1020C000E5E700BF003802400024F40040787D01BD
:1020D00003682DE9F341DF07044610D423689E0707
:1020E00067D423681A0700F1B28023685B0700F108
:1020F000D080A269002A40F0398100201EE0974B71
:102100009A6802F00C02042A10D09A6802F00C02BD
:10211000082A02D15B685D0208D4904B9A6802F0ED
:102120000C020C2A0DD15A6850020AD58B4B1B6841
:102130009903D3D56368002BD0D1012002B0BDE84C
:10214000F0816268B2F5803F11D11A6842F48032A2
:102150001A60FEF777FF814D06462B689A03BDD4BF
:10216000FEF770FF801B6428F7D90320E6E77B4D5C
:10217000B2F5A02F2B6807D143F480232B602B6886
:1021800043F480332B60E4E723F480332B602B6827
:1021900023F480232B60002ADBD1FEF753FF064691
:1021A0002B689B039AD5FEF74DFF801B6428F7D957
:1021B000DBE76A4B9A6812F00C0F10D09A6802F0B5
:1021C0000C02082A02D15B685F0208D5634A936853
:1021D00003F00C030C2B11D153685E020ED45F4B3D
:1021E0001A68950702D5E268012AA6D11A68216902
:1021F00022F0F80242EAC1021A6072E7E268584B24
:10220000B2B101221A60FEF71DFF544D06462B683D
:10221000980707D52B68226923F0F80343EAC20325
:102220002B605EE7FEF70EFF801B0228EFD99CE7CC
:102230001A60FEF707FF494D06462B6899077FF5A0
:1022400050AFFEF7FFFE801B0228F6D98DE76269CA
:10225000444B7AB101221A60FEF7F4FE3F4D064668
:102260006B6F9F073FF541AFFEF7ECFE801B022826
:10227000F6D97AE71A60FEF7E5FE384D06466B6F31
:1022800098077FF532AFFEF7DDFE801B0228F6D9F6
:102290006BE7324B1A6C12F0805228D101921A6C03
:1022A00042F080521A641B6C03F080530193019B2F
:1022B00001262D4D2B68D9051BD5A368274D012B71
:1022C00027D12B6F43F001032B67FEF7BBFE234D95
:1022D000074641F288382B6F9B0739D5002E3FF413
:1022E00008AF1E4A136C23F08053136401E70026E5
:1022F000DFE72B6843F480732B60FEF7A3FE0746ED
:102300002B68DA05D9D4FEF79DFEC01B0228F7D949
:102310002BE7052B04D12B6F43F004032B67D0E789
:102320002A6F22F001022A672A6F22F004022A672C
:10233000002BCAD1FEF786FE41F2883807462B6F84
:102340009807CBD5FEF77EFEC01B4045F7D90CE7BA
:10235000FEF778FEC01B4045BDD906E700380240B5
:1023600000004742800E474200700040234DAB689A
:1023700003F00C03082B3FF4E0AE214E0023022AA9
:1023800033602DD1FEF75EFE07462B68990121D4FC
:10239000226AE3691343626A43EA8213E26A43EA08
:1023A0000263226B43EA0273A26A144C5208013A98
:1023B00043EA02436B6001233360FEF743FE0546A8
:1023C00023689A013FF599AEFEF73CFE401B0228B8
:1023D000F6D9CAE6FEF736FEC01B0228D5D9C4E6F8
:1023E000FEF730FE04462B689B017FF586AEFEF7B4
:1023F00029FE001B0228F6D9B7E600BF00380240CC
:1024000060004742026838B5D36823F0A003D36068
:102410000446FEF717FE05462368DB689B0601D5D8
:10242000002038BDFEF70EFE401BB0F57A7FF3D9D1
:10243000032038BD38B50368DA685206044601D572
:10244000002038BD4FF0FF32DA60FEF7FBFD054695
:102450002368DB685B06F3D4FEF7F4FD401BB0F5A0
:102460007A7FF5D9032038BD38B50446B8B1437F2B
:1024700003F0FF0213B9027702F096FB02236377A1
:102480002368CA225A6253225A622046FFF7D2FFBB
:102490002368054628B1FF225A6204236377012589
:1024A0002EE09A68206922F4E00222F040029A604D
:1024B000626899680243606902430A439A60E2686D
:1024C0001A611A69A16842EA01421A61DA6822F0C7
:1024D0008002DA609B689B0605D42046FFF792FFD6
:1024E00008B12368D7E72368A1691A6C22F4802217
:1024F0001A641A6C0A431A64FF225A620123637732
:10250000284638BD10B50446002836D00023836223
:1025100090F8513003F0FF021BB980F8502002F010
:102520004FFB2168A068A269022384F851300B6830
:1025300023F040030B6063680343E06803432069B2
:10254000034360690343E0690343206A0343A06ACD
:10255000034302F4007003430B60120C636A02F041
:1025600004021A434A60CB6923F40063CB61002064
:102570000123606584F8513010BD012010BD0000BA
:10258000036A23F001030362036A70B54468826939
:102590000D6822F073022A438D6823F002032B4357
:1025A0000E4DA84202D00E4EB04210D1CE6823F09C
:1025B00008033343A84223F0040302D0084DA84285
:1025C00005D14D698E6924F4407435432C43446031
:1025D00082614A684263036270BD00BF000001402F
:1025E00000040140036A23F480730362036A70B538
:1025F0004468C2690D6822F073022A438D6823F48F
:10260000007343EA0523114DA84203D005F5806508
:10261000A84214D1CD6823F4006343EA05230B4D8F
:10262000A84223F4806303D005F58065A84206D153
:102630004D698E6924F44054354344EA05144460DE
:10264000C2614A68C263036270BD00BF00000140FE
:10265000036A23F480530362036A30B54468C26995
:102660000D6822F4E64242EA05228D6823F4005305
:1026700043EA0533084DA84203D005F58065A8421A
:1026800004D14D6924F4804444EA85144460C26155
:102690004A680264036230BD000001400368DA68E2
:1026A00042F00102DA609A6802F00702062A1EBFB1
:1026B0001A6842F001021A600020704770477047A4
:1026C0007047704703681A69910710B504460ED524
:1026D000DA6892070BD56FF002021A619B6901223A
:1026E0009B07027777D0FFF7EAFF00232377236861
:1026F0001A69500710D5DA6851070DD56FF004023A
:102700001A619B69022213F4407F2277204668D029
:10271000FFF7D5FF0023237723681A6912070FD527
:10272000DA6810070CD56FF008021A61DB69042221
:102730009907227720465AD0FFF7C1FF002323775D
:1027400023681A69D20610D5DA68D0060DD56FF065
:1027500010021A61DB69082213F4407F22772046B9
:102760004BD0FFF7ACFF0023237723681A69D1070A
:1027700008D5DA68D20705D56FF001021A61204644
:1027800001F03EFB23681A69100608D5DA681106C5
:1027900005D56FF080021A61204600F0CEFA23685A
:1027A0001A69520608D5DA68500605D56FF040025E
:1027B0001A612046FFF785FF23681A69910622D522
:1027C000DA6892061FD56FF0200220461A61BDE834
:1027D000104000F0B1BAFFF771FF2046FFF770FF1D
:1027E00083E7FFF76BFF2046FFF76AFF92E7FFF7EB
:1027F00065FF2046FFF764FFA0E7FFF75FFF204675
:10280000FFF75EFFAFE710BD304A0368904212D079
:10281000B0F1804F0FD0A2F57C4290420BD002F570
:102820008062904207D002F58062904203D002F5A8
:102830007842904219D14A6823F070031343234A27
:10284000904229D0B0F1804F26D0A2F57C42904230
:1028500022D002F5806290421ED002F58062904242
:102860001AD002F57842904216D0194A904213D0FD
:1028700002F5806290420FD002F5806290420BD048
:10288000A2F59832904207D002F58062904203D0C0
:1028900002F58062904203D1CA6823F44073134367
:1028A0004A6923F08003134303608B68C3620B689B
:1028B0008362064B984203D003F58063984201D1AE
:1028C0000B69036301234361704700BF00000140AF
:1028D0000040014010B50446A0B190F83D3003F02F
:1028E000FF021BB980F83C2002F0E0F9022384F8D3
:1028F0003D302068211DFFF787FF012384F83D301C
:10290000002010BD012010BD10B50446A0B190F804
:102910003D3003F0FF021BB980F83C2002F074FA4E
:10292000022384F83D302068211DFFF76DFF01234D
:1029300084F83D30002010BD012010BD036A23F053
:1029400010030362036A70B5446882690D6822F45B
:10295000E64242EA05228D6823F0200343EA05138C
:10296000104DA84203D005F58065A84214D1CD686A
:1029700023F0800343EA05130A4DA84223F04003E5
:1029800003D005F58065A84206D14D698E6924F40F
:102990004064354344EA8504446082614A68826346
:1029A000036270BD0000014038B590F83C30012B47
:1029B00004464FF0020025D0012384F83C3084F80F
:1029C0003D000C2A18D8DFE802F0071717171E176A
:1029D00017172F17171740002068FFF7D1FD23683E
:1029E00009699A6942F008029A619A6922F0040220
:1029F0009A619A690A439A610123002084F83D3064
:102A000084F83C0038BD2068FFF798FF2368096907
:102A10009A6942F400629A619A6922F480629A612A
:102A20009A6942EA0122E6E72068FFF7DBFD2368A6
:102A30000969DA6942F00802DA61DA6922F004020F
:102A4000DA61DA690A43DA61D6E72068FFF700FE47
:102A500023680969DA6942F40062DA61DA6922F40A
:102A60008062DA61DA6942EA0122ECE710B5846833
:102A70000A4324F47F4442EA03232343836010BDC6
:102A800090F83C30012B70B504464FF0020019D08D
:102A900084F83D002068012384F83C30836823F4E7
:102AA0007F4323F0770383600B68402B65D015D8F4
:102AB000102B0CD007D853B10123002084F83D30EF
:102AC00084F83C0070BD202B01D0302BF4D18268FB
:102AD00043F0070322F0700213431AE0602B34D056
:102AE00019D8502BE8D14A68CE68016A056A25F0EA
:102AF00001050562836921F00A0123F0F00343EA2E
:102B000006130A4383610262836823F0700343F073
:102B100057038360D0E7702B0CD0B3F5005FCBD1A7
:102B2000CB684A688968FFF7A1FF2268936843F47D
:102B3000804308E0CB684A688968FFF797FF2268FE
:102B4000936843F077039360B6E74D68CE68016AF7
:102B500021F0100101628269036A22F4704223F0BD
:102B6000A00343EA051342EA0632826103628368E6
:102B700023F0700343F06703CBE74A68CE68016A2D
:102B8000056A25F001050562836921F00A0123F039
:102B9000F00343EA06130A4383610262836823F069
:102BA000700343F04703B4E7036A01F01F0110B557
:102BB00001248C4023EA04030362036A8A401A4317
:102BC000026210BD10B5044601220068FFF7ECFF59
:102BD00023680B4A93420ED002F5806293420AD0DA
:102BE0009A6802F00702062A03D01A6842F001022E
:102BF0001A60002010BD5A6C42F400425A64EFE79C
:102C00000000014010B5044600220068FFF7CCFF29
:102C10002368144A934203D002F5806293420DD197
:102C2000196A41F21112114208D1196A40F2444264
:102C3000114202BF5A6C22F400425A64196A41F2EE
:102C40001112114208D1196A40F24442114203D1D3
:102C50001A6822F001021A60012384F83D30002036
:102C600010BD00BF0000014090F83C30012B30B592
:102C70004FF0020335D080F83D3003680D685C6882
:102C800024F0700401222C4380F83C209A685C6098
:102C9000154CA3421AD0B3F1804F17D0A4F57C4451
:102CA000A34213D004F58064A3420FD004F58064DE
:102CB000A3420BD004F57844A34207D004F5705426
:102CC000A34203D0A4F59434A34204D1496822F06E
:102CD00080020A439A60012380F83D30002380F887
:102CE0003C30184630BD00BF0000014090F83C3039
:102CF000012B1FD0CB688A6823F4407313434A68C2
:102D000023F4806313430A6823F4006313430A69BE
:102D100023F4805313434A6923F400531343CA69CD
:102D200023F48043134302685364002380F83C304B
:102D30001846704702207047704770470368DA688A
:102D400022F49072DA605A6922F001025A6120235B
:102D500080F83A307047000038B50368C1681A69D6
:102D6000044622F440520A431A612569A268D968D0
:102D7000C0692A43656921F416412A4321F00C01F8
:102D800002430A43DA605A69A16922F440720A4395
:102D9000B0F5004F5A61254A29D1934203D002F57C
:102DA0008062934220D1FEF733FF62682568921853
:102DB0004FF000034FF019015B41A0FB0101FDF74B
:102DC0006FFF6421B0FBF1F401FB1403DB0032332D
:102DD000B3FBF1F303F007025B0002EB041203F410
:102DE000F8731344AB6038BDFEF702FFDDE7934292
:102DF00002D00F4A934216D1FEF70AFF6368256896
:102E000019219A00A0FB01019B0FFDF749FF6422E5
:102E1000B0FBF2F102FB11031B013233B3FBF2F3FF
:102E200003EB0113DEE7FEF7E3FEE7E700100140E6
:102E30000014014010B5044640B390F8393003F057
:102E4000FF021BB980F8382002F00CF92268242315
:102E500084F83930D36823F40053D3602046FFF759
:102E60007BFF23681A6922F490421A615A6922F0A2
:102E70002A025A61DA6842F40052DA600020202304
:102E8000E06384F8393084F83A3010BD012010BD79
:102E900038B50446134694F83920202A2AD139B38C
:102EA00033B394F83820012A24D0012284F8382042
:102EB000206BE38400252122E56384F839200E4A43
:102EC000A3842162C2630D4A02640D4AC26422686F
:102ED00005650432FEF716FB23686FF040021A60A6
:102EE0005A6984F8385042F080025A61284638BD49
:102EF000012038BD022038BD952F0008C32F0008DF
:102F00008F300008134690F83A20202A73B5054602
:102F100038D1002934D0002B32D090F83820012A43
:102F200030D00122002480F838202222C46381623C
:102F3000838580F83A20406B134AC2632E68134A97
:102F40000264134AC26404650A46311DFEF7DAFAC8
:102F50002B6801941A6801925A680192019ADA6802
:102F600085F8384042F48072DA605A6942F0010212
:102F70005A615A6942F040025A61204602B070BD5F
:102F80000120FBE70220F9E7CF2F00088530000879
:102F90008F30000808B50368826B1B6813F48073D8
:102FA0000AD1D38413685A6922F080025A61DA6820
:102FB00042F04002DA6008BD104601F06FFB08BD28
:102FC000704708B5806BFFF7FBFF08BD704708B579
:102FD0000368826B1B6813F4807310D1D385136868
:102FE000D96821F48071D960596921F001015961D2
:102FF000596921F040015961202382F83A30104686
:10300000FFF7E4FF08BD90F83A30222B10B536D117
:10301000836801690268B3F5805F836A23D15268CF
:10302000E9B9C2F3080223F8022B8362C48D013C84
:10303000A4B2C4858CB90368DA6822F02002DA6091
:10304000DA6822F48072DA605A6922F001025A6169
:10305000202380F83A30FFF7B9FF002010BDD2B22C
:1030600023F8012BE1E721B9591C526881621A70DB
:10307000DCE75268591C816202F07F02F7E7022008
:1030800010BD704708B5806BFFF7FBFF08BD816B73
:1030900008B50B685A6991F8390021280AD112063F
:1030A00008D50022CA84DA6822F0C002DA60202241
:1030B00081F839205B6991F83A20222A06D15B0613
:1030C00004D50023CB850846FFF738FECB6B43F0D1
:1030D0001003CB63084601F03BFA08BD03681A6889
:1030E000D96870B5160704465D6907D196065CD5A8
:1030F0008D065AD5BDE87040FFF785BF15F0010574
:1031000002D111F4907F50D0D00705D5CB0542BF36
:10311000E36B43F00103E363560704D51DB1E36B92
:1031200043F00203E363900704D51DB1E36B43F062
:103130000403E363130706D58E0600D41DB1E36BC9
:1031400043F00803E363E36B002B66D0950604D5D8
:10315000880602D52046FFF756FF23685D69E26BBB
:103160001107204602D415F040051AD0FFF7E6FDFE
:1031700023685A69520610D55A69606B22F04002E2
:103180005A6150B1254B0365FEF7F6F9002844D08B
:10319000606BBDE87040036D1847204601F0D8F918
:1031A00070BD01F0D5F9E56370BD160627D50D0693
:1031B00025D594F83920212A2FD1A268B2F5805F55
:1031C000226A17D11188C1F308015960216979B9C0
:1031D00002322262E28C013A92B2E284EAB9DA68FF
:1031E00022F08002DA60DA6842F04002DA6070BDF4
:1031F0000132EEE7511C216212785A60EAE750066C
:103200000BD54A0609D5DA6822F04002DA6020239D
:1032100084F83930204601F041FA70BD21320008AF
:1032200008B5806B0023C385C38401F091F908BD04
:1032300080E80E00009BC360064B4362064B83622E
:10324000064B0362C361064A0363064BC2624363D3
:10325000704700BFAC75B14227FFFA42417BB142D3
:10326000417BB1C2417B314310B50446006801F097
:103270008FFB606801F08CFBA068BDE8104001F096
:1032800087BB10B50446006801F085FB606801F05B
:1032900082FBA068BDE8104001F07DBB000000008B
:1032A00010B504462DED068B84ED040AB0EE409A6D
:1032B00020EEA00A82B0C4ED050A84ED061AA9EE3C
:1032C000090AB0EE608AF0EE418A03F027FCE36859
:1032D000F0EE409A89EE080A002B6BD003F052FA08
:1032E000B1EE40AA28EEA80AA9EEA90A03F016FC3E
:1032F00060EE007AB0EE409A17EE900AFDF754F9AE
:103300000022334BFCF7F0FF2DA3D3E90023FCF799
:10331000EBFFFDF775FC88EEA90A08EE100A03F032
:1033200031FA19EE100AF0EE408AFDF73DF9024637
:103330000B46FCF7DBFF0022264BFDF789F9FDF772
:103340005FFC07EE900A88EE270A03F08FFBDFEDA3
:10335000227AB1EE488A88EE277A78EEC08A17EE94
:10336000100AFDF721F941EC100B03F027FB53EC99
:10337000102B2068B0EE4A0ACDE9002301F020FBB3
:10338000B1EE680A606801F01BFBDDE900230EA1C5
:10339000D1E90001FCF7A8FFFDF732FC07EE900A27
:1033A000A068B1EE670A02B0BDEC068BBDE8104024
:1033B00001F006BB03F0E6F9B0EE40AA92E700BFC9
:1033C000000000000024B340182D4454FB210940A4
:1033D00000009940000044400000AF45D0ED066A6F
:1033E00090ED057AD0ED047A31EE261A70EE870A58
:1033F00030EE270AFFF754BF30B5ADB034220021BC
:1034000008A802F078F81422002103A802F073F84B
:1034100000215C2215A802F06EF80024214B0194D3
:103420001A6C42F080521A641B6C03F080530193B3
:10343000019B1D4B02941A6842F440421A601B68BB
:103440000A9403F440430293029B0F940A230893C7
:1034500001230B930D93082310220225109308A833
:10346000B4230C9211930E95129513951495FEF7B3
:103470002FFEFEF7E5FA0F23039305214FF4A05327
:1034800003A80693079304950594FEF715FB2023E4
:10349000159315A84FF400732593FEF7C9FB2DB0C3
:1034A00030BD00BF00380240007000402DE9F04FF1
:1034B000ADF5A44D85B00DF5265B0BF1100BABF10E
:1034C00014050024BF4EDFF84093DFF840A3BE4F41
:1034D000FDF792FDFFF790FF14220021284602F02D
:1034E0000AF80394336BB94843F004033363336B36
:1034F00003F004030393039B0494336B43F08003B2
:103500003363336B03F080030493049B0594336BA4
:1035100043F001033363336B03F001030593059B11
:103520000694336B43F002033363336B03F00203FF
:103530000693069B0794336B43F008033363336BA6
:1035400003F00803224607930121079BFEF7C0F909
:10355000224609219E48FEF7BBF9224641F210019E
:103560009C48FEF7B5F94FF40053294698484BF8AC
:10357000143C6C60AC60FEF7CBF8012329469348FD
:103580004BF8143C6B60AC60EC60FEF7C1F80223B2
:1035900029468E484BF8143C6C60AC60FEF7B8F8D6
:1035A00009234BF8143C2946012389486B604FF0EE
:1035B0001008AC60EC60FEF7ABF8032329468648A0
:1035C0004BF8148C6B60AC60FEF7A2F841F210036C
:1035D0004BF8143C294601237E486B60AC60EC60DC
:1035E000FEF796F80294336B43F400133363336BA6
:1035F0007A4E03F400132246214602930B20029BCD
:10360000FDF794FE0B20FDF7C5FE224621460D2056
:10361000FDF78CFE0D20FDF7BDFE224621460E2053
:10362000FDF784FE0E20FDF7B5FE224621460F2051
:10363000FDF77CFE0F20FDF7ADFE224621464046F9
:10364000FDF774FE4046FDF7A5FE224621461120F7
:10365000FDF76CFE1120FDF79DFE224621462F202E
:10366000FDF764FE2F20FDF795FE424621462846D1
:1036700001F041FF5A4BB46086E81800594BB36221
:10368000304601233461347686F82040F462F460D9
:10369000F36186F830407361FDF7EEFC04232946A0
:1036A0004BF8143C304601236B60AC60FDF78AFD9B
:1036B0004D484E4A4E4B846080E80C004FF48043E6
:1036C000C460036144618461C4610462FEF70CF963
:1036D0004848494B046180E818007F238360FF233A
:1036E000C36044618461FEF7BFFE4448444984607E
:1036F0004FF4827380E80A004FF4007383610A2359
:10370000C362C46004614461C4610462446284624F
:10371000FEF7F8FE4246214628A801F0ECFE2146BD
:103720001C223AA81894199401F0E5FE20222146A3
:10373000284601F0E0FE3348C9F80840592389E8DB
:10374000090044F620634846C9F80C30C9F8104017
:10375000C9F81440C9F81840FFF7BCF84FF480537B
:1037600028A948462893FFF78BF94846FFF7CCF87D
:1037700018A9484618941994FFF776FA6023224650
:103780003A933AA940F2DC5348463B933C943D942B
:103790003E943F944094FFF707F904223AA9484623
:1037A000FFF702F908223AA94846FFF7FDF80C2274
:1037B0003AA94846FFF7F8F84FF40053294648461F
:1037C0006B6125E000380240CC050020001C02405F
:1037D0000008024000040240000002404C060020A5
:1037E000002001400100000F980400200054004018
:1037F000A08601007407002000280040000400207B
:103800000038004000000140940700201408002008
:103810004BF8144C6C60AC60EC602C61EC61FFF711
:1038200065FA484601F008FB424621463AA801F0F5
:1038300062FE1C222146284628942994592601F02C
:103840005AFE4FF080438AE84800504644F6206311
:10385000CAF80840CAF80C30CAF81040CAF8184034
:10386000FFF738F84FF480533AA950463A93FFF7E0
:1038700007F95046FFF748F828A95046289429949C
:10388000FFF7F2F960234BF8143C224640F2DC5378
:10389000294650466B60AC602C61FFF785F82946DD
:1038A00004225046FFF780F8294608225046FFF7C9
:1038B0007BF829460C225046FFF776F8504601F077
:1038C000BBFA424621463AA801F015FE1C222146C9
:1038D00028462894299401F00EFEC44BBC604FF09A
:1038E000590E87E80840384644F62063FB603C6187
:1038F000BC61FEF7EFFF4FF480533AA938463A9384
:10390000FFF7BEF83846FEF7FFFF28A9384628948F
:103910002994FFF7A9F960234BF8143C224640F2A2
:10392000DC53294638466B60AC602C61FFF73CF8ED
:10393000294604223846FFF737F829460822384638
:10394000FFF732F829460C223846FFF72DF83846A3
:1039500001F072FA21461C2228463A943B9401F069
:10396000CAFDA34AA34B1360134659225A60184656
:1039700044F620629C60DA601C619C61FEF7C4FF23
:103980003AA99B483A943B94FFF76EF960234BF8B1
:10399000143C224640F2DC53294695486B60AC60EB
:1039A0002C61FFF701F8294604229148924EFEF758
:1039B000FBFF8F4801F040FA4246214628A801F05B
:1039C0009AFD21461C223AA81894199401F093FDFF
:1039D00020222146284601F08EFD884BB4604FF02E
:1039E000590C86E80810304644F62063F3603461D1
:1039F0007461B461FEF76EFF4FF4805328A930461E
:103A00002893FFF73DF83046FEF77EFF18A93046B1
:103A100018941994FFF728F9602322463A933AA99B
:103A200040F2DC5330463B933C943D943E943F94AB
:103A30004094FEF7B9FF04223AA93046FEF7B4FFDE
:103A400008223AA93046FEF7AFFF0C223AA93046C9
:103A5000FEF7AAFF4FF40053294630466B614BF83E
:103A6000144C6C60AC60EC602C61EC61FFF73EF9CB
:103A7000304601F0E1F921461C22284601F03BFDC9
:103A80005F4A604B1360134659225A60184644F649
:103A900020629C60DA601C619C61FEF71BFF584845
:103AA000FEF732FF6023224629464BF8143C544867
:103AB000AC6040F2DC536B602C61FEF775FF504840
:103AC00001F0BAF921461C22284601F014FD4E4AA5
:103AD0004E4B1360134659225A60184644F6206232
:103AE0009C60DA601C619C61FEF7F4FE4648FEF7BC
:103AF0000BFF6023224629464BF8143C4248AC6039
:103B000040F2DC536B602C61FEF74EFF3E4801F043
:103B100093F9424621463AA801F0EDFCDFF8008116
:103B20001C222146284601F0E6FC394BC8F8084023
:103B3000404688E81800C8F80C40C8F81040C8F89B
:103B40001840FEF7C7FE4FF480533AA940463A9317
:103B5000FEF796FF4046FEF7D7FE60232246294631
:103B600040464BF8143C6C60AC602C61FEF71CFFC7
:103B7000404601F061F921461C22284601F0BBFCB9
:103B8000DFF8A080234AC8F80840592388E80C00D1
:103B9000404644F62063C8F80C30C8F81040C8F816
:103BA0001840FEF797FE4046FEF7AEFE6023224621
:103BB00029464BF8143C404640F2DC536B60AC6045
:103BC0002C61FEF7F1FE404601F036F9124B134A24
:103BD0001A604FF416510C22184659609C60DC6044
:103BE0001C615A619C61DC6100911DE00004004091
:103BF0008C050020000C0040580400200004014007
:103C0000EC0400200044014034070020004801403B
:103C10000018004000200040D4070020004C004065
:103C200034090020F40800200193FFF703F96448E9
:103C3000DFF8C8B1634A009902600C2341608460D8
:103C4000C460046143618461C461FFF7F3F85E48B6
:103C50000099CBF800000C235846CBF80410CBF8A1
:103C60000840CBF80C40CBF81040CBF81430CBF820
:103C70001840CBF81C40FFF7DDF85449544A009235
:103C8000592382E80A00104644F62063D36094600A
:103C900014619461FEF71EFE009A1046FEF7FEFCCA
:103CA0004846FEF7FBFC5046FEF7F8FC3846FEF7A8
:103CB000F5FC4848FEF7F2FC3046FEF7EFFC4648BC
:103CC000464EFEF7EBFC4648FEF7E8FC4046FEF7A2
:103CD000E5FC019B3AA9184600F068FC29465846C5
:103CE00000F064FC3AA928A800F0F1FD01210220AF
:103CF00001F072FB0121032001F06EFB0121042081
:103D000001F06AFB3749384D3AA800F0BCFD00F0DD
:103D100083F836493AA800F0B6FD00F0DFF93449DF
:103D20003AA800F0B0FD42F21070FDF791F900F0F2
:103D30007FFB30493AA800F0A6FD04F1804404F569
:103D400002344FF400512046FDF7BCFD78B94FF422
:103D500000512046FDF7B6FD0028F8D000F050FBDA
:103D600000F02EFB294602463AA800F08CFD4022C6
:103D700008A928A800F0AFFD002815DD08AA3146E3
:103D800018A8289F01F0C0FB18A90246384600F089
:103D900052FC08A9289800F049FA00F011FB2946C6
:103DA00002463AA800F06FFD6420FDF751F90121A9
:103DB0001148FDF792FD6420FDF74AF9C1E700BF05
:103DC0000C0600200050004000440040001C004051
:103DD000F40600208C050020EC0400200575000886
:103DE00034070020AC7400083B750008CC74000850
:103DF000DD740008F0740008001C02405408002024
:103E0000034B02681B689A4201D100F085B97047E4
:103E1000F4060020704700002DE9F04F2DED028BD5
:103E20007E4BDFF878B2DFF878A27D49DFF8749234
:103E3000DFF874827B4D7C4E7C4F7D4C9FED7D8AFC
:103E400085B018460C22039300F075FD0C227A49C8
:103E5000584600F070FD50460822774900F06BFD8F
:103E600048460822754900F066FD40460C22734919
:103E700000F061FD04227249724800F05CFD0822E6
:103E80006749714800F057FD00227049704800F002
:103E900052FD00226F49704800F04DFD2846002277
:103EA0006E4900F048FD30460C22654900F043FDA4
:103EB00008223846624900F03EFD039B68491846D7
:103EC00000F042FD6749584600F03EFD5046664905
:103ED00000F03AFD4846654900F036FD4046644929
:103EE00000F032FD6349574800F02EFD6249564804
:103EF00000F02AFD6149564800F026FD6049564809
:103F000000F022FD28465F4900F01EFD30465E4964
:103F100000F01AFD38465D4900F016FD039BA362D0
:103F2000484B2364484BC4F83C806363DFF87C81D2
:103F3000474BC4F8389023634FF00009464BC4F850
:103F400020A032462946E36265613B464046DFF8E1
:103F500060A1CDF800900125A661E761C4F824B006
:103F6000FFF766F9009504F12C010EC95046484E42
:103F7000484FFFF75DF9CDF8009004F120010EC91C
:103F80003046FFF755F9009504F138010EC938465F
:103F9000FFF74EF9C4F804A0A760C4F80C802661AE
:103FA00054F825A0DAF81C00FCF7FEFA0646681E55
:103FB0000F46FCF7E7FA0022374BFCF773FC80460C
:103FC000DAF834008946FCF7EFFA02460B46404621
:103FD0004946FCF73DFB02460B4630463946FCF7A6
:103FE00083F9FCF70DFE013500EE100AB0EE481A19
:103FF000DAED080A5046FFF753F9052DD0D1A26833
:1040000063686260E268A260226923610023E26063
:10401000237005B0BDEC028BBDE8F08F900A002044
:10402000CC050020B40B0020B40A0020F40E0020C0
:10403000D80B00200000A0421408002058040020E3
:1040400094070020340B0020100B0020F4080020FF
:10405000900B002034070020880E0020EC04002084
:1040600014010020D80000208800002060000020FB
:10407000C400002000010020EC000020740000209B
:10408000380000204C0000209C000020B0000020E0
:10409000580A0020180E002000000840340A0020B2
:1040A000500E0020AC0E0020D00E0020D80A0020B8
:1040B000580B002070B5084E0546002456F8241011
:1040C0002846FCF7A5F820B101340C2CF6D14FF0AE
:1040D000FF34204670BD00BF0800002038B5054DF4
:1040E00001242C7055F824000134FFF7BDF8052C8D
:1040F000F8D138BDD80B002038B5064D00222A7003
:10410000012455F824000134FFF7BBF8052CF8D141
:1041100038BD00BFD80B002070B5414C2378022B6E
:104120002DED028B76D1E36D002B4ED1E568A268B0
:10413000D5ED047A95ED078AD5ED088A2369E2600A
:1041400038EE678AD5ED057A6268A26028EE080A23
:1041500078EEE78A30EE000A6360256102F0DEFC4B
:10416000266E3046FCF720FA2BA3D3E90023FCF798
:104170006FFAFCF745FD07EE100AF0EE087A95EDB0
:104180000D0A67EE277A80EE270A02F0D5FBBDEE16
:10419000C00A86F0004084ED160A84ED170AB8EED6
:1041A000C00AC8EE007AC4ED147AC8EE807AC4ED75
:1041B000157AFCF7F9F918A3D3E90023FCF748FABC
:1041C000FCF71EFD0023A064E3649FED168A012521
:1041D00054F82500D4ED130A94ED120AB0EE481AF3
:1041E0000135FFF7FBF8042DF2D19FED0E1AD4ED47
:1041F000150A94ED140A2069FFF7F0F8E36D013B0E
:10420000E3654FF48051BDEC028B0748BDE8704078
:10421000FDF763BB1021F6E77B14AE47E17A943FCC
:10422000D80B00200000000000040240F7B54C4EFF
:10423000337805460C46374683B94A492046FBF792
:10424000E7FF20B9FFF74AFF2246474901E0474907
:104250002246284600F017FB03B0F0BD012B1FD10A
:1042600043492046FBF7D4FF30B9022322463E499A
:104270003370284600F007FB3E492046FBF7C8FF95
:1042800010B903233B70DFE73B492046FBF7C0FF33
:1042900018B93870FFF730FFD6E722463749D8E71C
:1042A000022B1ED105223649204601F07DF9A8B91E
:1042B0006A463449204601F04BF9012802D02246D3
:1042C0003149C6E7DDED007A3049F8EEE77AC6ED10
:1042D000187AFDEEE77A17EE902ABAE722462C49C3
:1042E000B7E7032B38D106222A49204601F05CF9B2
:1042F000A8B96A462849204601F02AF90128DED1EA
:1043000026496A46284600F0BEFA6846FFF7D2FE04
:10431000021EA7BF7264224922496A4699E7052214
:104320002149204601F040F998B96A461F492046C4
:1043300001F00EF9012802D022461D4989E7736C6D
:10434000009906EB8306706900F028FB009A194972
:104350007FE7224618497CE7184900F094FA7BE78A
:10436000D80B002031750008387500083F7500082B
:10437000667500086A7500083375000871750008D5
:10438000997500089F750008A7750008DF7500087B
:10439000F37500081B760008227600082B760008CB
:1043A00041760008577600086E760008747600089B
:1043B0007C760008B3760008C6760008F47600081C
:1043C000094B1B784BB1012B09D0022B09D0074AAE
:1043D0000748032B18BF1046704706487047064829
:1043E00070470648704700BFD80B002029750008A9
:1043F000227500080B750008127500081A75000870
:1044000010B50A4C23781BB9BDE81040FFF766BE13
:10441000012B06D14FF4FA60FCF71AFE0223237039
:1044200010BD023B012BFBD80123F8E7D80B00207D
:10443000464B2DE9F04F5A68D2F800B0D2F804A0EC
:10444000D2F808909A68D2F8008057689668DA68BF
:104450001B6951681568926887B0002402921A6837
:1044600003925A689B68019104920593214658462D
:1044700000F0E6FA2146504600F0E2FA21464846AE
:1044800000F0DEFA2146404600F0DAFA21463846CE
:1044900000F0D6FA2146304600F0D2FA21462846EE
:1044A00000F0CEFA2146019800F0CAFA214602989F
:1044B00000F0C6FA2146039800F0C2FA214604989B
:1044C00000F0BEFA2146059800F0BAFA0134142033
:1044D000FCF7BEFD652CC9D164242146584600F086
:1044E000AFFA2146504600F0ABFA2146484600F0AC
:1044F000A7FA2146404600F0A3FA2146384600F0CC
:104500009FFA2146304600F09BFA2146284600F0EB
:1045100097FA2146019800F093FA2146029800F09C
:104520008FFA2146039800F08BFA2146049800F098
:1045300087FA2146059800F083FA1420FCF788FDDD
:1045400014F1FF34C9D207B0BDE8F08FD80B0020BA
:104550001349144AF0B50023DFF84CE00D681360EE
:10456000074619469D421E4602D101B11560F0BDB5
:104570005EF823402068B84203F101030DD101B178
:10458000166004F5025142F690031031E1504FF4E9
:104590000062BDE8F040FEF7B5BC0121E2E700BFD4
:1045A0002C030020240300201C0300200B460F498D
:1045B0000A6810B4541C0C600D495DF8044B41F8B6
:1045C000223042F28401002218605A5042F28801DF
:1045D0005A5042F28C015A5042F6900203F50251B1
:1045E000103199504FF40062FEF78CBC2C03002070
:1045F0001C0300200346006870B560B1406B006882
:1046000044681C1B04F5225403F522531034002087
:104610001033904200D170BD1D68AC42FBD06E1CBF
:104620001E602D780D541D689D4224BFA5F50065C0
:104630001D600130EDE7F8B503680446164653B334
:1046400042F284074FF48275C0596843231804303E
:10465000C3F80421204400F029FFE359013303F09B
:104660001F03E35142F28C03E25892B942F28807E9
:104670000122E159E2504D4363190435B3F8042196
:1046800020686119FEF704FCE359013303F01F03AE
:10469000E3513046F8BD1E46FBE70000F8B51F4A5F
:1046A0001F4D204F1168002306462B601A4642F228
:1046B0008C0E994202D102B12960F8BD57F823400F
:1046C0002068B04226D154F80EC0BCF1010F21D1B0
:1046D00002B12B6042F2880642F28402A359A2582A
:1046E0009A4212D04FF48271594363180431B3F8DF
:1046F00004212144FEF7CCFB2B6857F82320935963
:10470000013303F01F039351F8BD42F28C030022E2
:10471000E250F8BD01330122CBE700BF2C0300209B
:10472000280300201C03002070B50123B1FBF3F423
:10473000944201D213B970BD5343F7E70568B1FB4A
:10474000F3F4092C03FB141105F10106CCBF373437
:104750003034066093FBF2F32C70EBE72DE9F34164
:1047600002AD0C4645F8040D134606462D27227867
:1047700032B9019B1A700198801B02B0BDE8F0812C
:10478000252A46D16278642A21D00AD8582A13D023
:10479000632A15D0252A09D10199481C01900A7075
:1047A00004E0732A23D003D8692A10D00234DEE74C
:1047B000752A29D0782AF9D103F10408102226E0BD
:1047C000019A511C0191196811700433EEE71968C0
:1047D000002903F1040804DA019B5A1C01924942A2
:1047E0001F700A222846FFF79FFF4346DEE7191D88
:1047F0001B681A780AB90B46D8E7019A501C019039
:1048000013F8010B1070F4E703F104080A22196889
:10481000E8E70199481C019001340A70A7E730B518
:1048200002460020137803B930BD252B28D15378D8
:10483000692B02F1010413D008D8632B0ED0642B2E
:104840000ED0582B08D100F108030BE0752B07D0D0
:10485000782BF8D0732B07D0431C0EE00431FBE714
:1048600000F10B03043108E00A680D1D801A1318CB
:1048700012F8011B0029FAD12946621C1846D1E71B
:10488000431C1446F9E70EB4F0B582B000AF07F14F
:104890001C04064654F8045B7C6021462846FFF75A
:1048A000BEFF073020F00700ADEB000D2246294681
:1048B00068467C60FFF752FF694602463046FFF7C4
:1048C000BAFE0837BD46BDE8F04003B0704700238C
:1048D000016043647047F8B50F46416C061D0546FC
:1048E000C1F1400200683144FFF784FE6B6C18444C
:1048F000002868641DDD3346002413F8012B0A2AC2
:1049000004F1010413D1224631463846274400F011
:10491000CDFD002307F8013C6A6C3119121B3046AB
:1049200000F0CFFD6B6C1B1B6B642046F8BDA042F2
:10493000E3D10024F9E740F2DC5380E8060083600D
:1049400070470000000000000B6810B5C3604B68A2
:1049500003618B684361CB6883610B69C3614B68FA
:104960000446C868C01A07EE900AF8EEE77A17EE18
:10497000900AFBF719FE04A3D3E90023FBF792FF8B
:10498000FCF73EF9206210BD182D4454FB21F93F7D
:1049900003C8FEF717B903C8FEF734B903684268C5
:1049A00081601B680AB959637047042A01D1996371
:1049B0007047082A0CBFD9631964704700000000D3
:1049C000D0B5044610EE100AFBF7EEFD1AA3D3E9AA
:1049D0000023FBF78BFC0646206A0F46FBF7E4FD3D
:1049E00002460B4630463946FBF732FE0646206942
:1049F0000F46FBF7C7FD02460B4630463946FBF72C
:104A000075FC41EC100B01F077FE51EC100BFCF73C
:104A1000CFF823686268A0601B680AB95863D0BDEC
:104A2000042A01D19863D0BD082A0CBFD86318644A
:104A3000D0BD00BFAFF30080182D4454FB21E93FE7
:104A400007EE901AF8EEE77A10B5044617EE900AD2
:104A5000FBF7AAFD0FA3D3E90023FBF7F9FD002222
:104A60000B4BFBF71FFF08A3D3E90023FBF73CFC2C
:104A7000FCF7C6F800EE100A2046BDE81040FFF72C
:104A80009FBF00BFAFF30080182D4454FB21E93FC6
:104A900000005940182D4454FB21F93F82B00C4BC3
:104AA000002100915A6C42F480425A645A6C02F41C
:104AB00080420092009A01911A6C42F080521A646E
:104AC0001B6C03F080530193019B02B0704700BF41
:104AD0000038024010B5044688B01422002103A813
:104AE00000F009FD2268124B9A421ED103F58C3367
:104AF000002101915A6C0F4842F480725A645A6C3A
:104B000002F480720192019A02911A6B42F0010242
:104B10001A631B6B03F001030293029B10230393A0
:104B200003A903230493FCF7F3FD08B010BD00BFF5
:104B3000002001400000024030B5044689B0142234
:104B4000002103A800F0D7FC2268144B9A4223D11D
:104B5000134C144800250195236B43F00203236393
:104B6000236B03F002030193019BC02303931223E1
:104B70000493012305930323069303A904230793B6
:104B8000FCF7C6FD0295236C43F400132364236CE9
:104B900003F400130293029B09B030BD005400409F
:104BA00000380240000402400268034B9A4202BFF0
:104BB000024B01221A607047002800403C0E474219
:104BC0002DE9F041064688B01422002103A800F028
:104BD00092FC3268304B9A425AD1002503F50033DB
:104BE00000951A6C2D4842F480421A641A6C02F443
:104BF00080420092009A01951A6B42F004021A63F7
:104C00001A6B02F004020192019A02951A6B42F0AB
:104C100002021A631B6B03F00203029302240327B0
:104C2000029B0394072303A9049407934FF00508FC
:104C30000697FCF76DFD042303A918480393049419
:104C400005950697CDF81C80FCF762FD4FF40053E4
:104C50001348039303A904940595124C0697CDF8C5
:104C60001C80FCF755FD104BA56084E82800204609
:104C70004FF48063E56023616561A561E5612562AC
:104C80006562FCF7C1FB08B1FFF7C4F8F464A663E2
:104C900008B0BDE8F08100BF0038004000080240C5
:104CA000000402402C0500205860024000B5036853
:104CB0004C4A93428BB00ED1002301934A4B5A6C5D
:104CC00042F001025A645B6C03F001030193019B03
:104CD0000BB05DF804FBB3F1804F0CD100230293BD
:104CE000414B1A6C42F001021A641B6C03F0010381
:104CF0000293029BECE73D4A93420CD100230393BD
:104D0000394B1A6C42F002021A641B6C03F0020366
:104D10000393039BDCE7364A934213D1324B0022C4
:104D20000492596C41F0020159645B6C03F0020378
:104D30000493049B11462C20FCF7F8FA2C20FCF776
:104D400029FBC5E72B4A93420CD100230593264B40
:104D50005A6C42F400325A645B6C03F400330593DE
:104D6000059BB5E7244A93420CD1002306931E4BC2
:104D70005A6C42F480225A645B6C03F480230693DD
:104D8000069BA5E71D4A93420CD100230793164BBF
:104D90001A6C42F040021A641B6C03F04003079344
:104DA000079B95E7164A93420CD10F4B00220892BD
:104DB000196C41F0800119641B6C03F080030893A7
:104DC000089BB7E70F4A934282D100230993064B11
:104DD0001A6C42F480721A641B6C03F4807309939A
:104DE000099B75E7000001400038024000040040C4
:104DF0000004014000440140004801400018004008
:104E0000001C0040002000400268094B9A4282B01A
:104E10000BD100230193074B1A6C42F008021A646D
:104E20001B6C03F008030193019B02B0704700BFA5
:104E3000000C00400038024070B5044690B01422C7
:104E400000210BA800F057FB23687A4A934213D144
:104E500000230093784B1A6B42F001021A631B6B1C
:104E600003F001030093009B4FF470630B93022344
:104E70000C9301230F932BE0B3F1804F2BD103F55B
:104E80000E33002401941A6B6C4842F002021A633C
:104E90001A6B02F002020192019A02941A6B42F01C
:104EA00001021A631B6B03F001030293029B0226AB
:104EB00040F20C4301250BA90B930C960F95FCF7C0
:104EC00027FC4FF400430B930C960D940E940F9512
:104ED0000BA95B4856E05B4A934227D1564B584892
:104EE000002503951A6B42F001021A631A6B02F057
:104EF00001020392039A04951A6B42F002021A63AC
:104F00001B6B03F0020304930224049B0C944023C4
:104F10000BA90B930F94FCF7FBFB23230B930C942F
:104F20000D950E950F940BA944482BE0464A9342E9
:104F300010D100230593404B1A6B42F001021A6313
:104F40001B6B03F001030593059B03230B930223C3
:104F50000C938FE73D4A934218D100230693364BBA
:104F60003B481A6B42F004021A631B6B03F0040304
:104F70000693069B4FF470730B9302230C93032349
:104F80000F930BA9FCF7C4FB10B070BD314A9342DC
:104F900013D100230793284B1A6B42F002021A63C5
:104FA0001B6B03F002030793079B4FF480730B9373
:104FB00002230C9303230F93B5E7274A93420ED1A4
:104FC000002308931C4B1A6B42F002021A631B6BFE
:104FD00003F002030893089B4FF40073E7E71F4AAE
:104FE000934212D100230993134B1A6B42F0020231
:104FF0001A631B6B03F002030993099B4FF4804370
:105000000B9302230C930923D5E7154A9342BBD196
:1050100000230A93084B1A6B42F001021A631B6BC0
:1050200003F001030A930A9B80230B9302230C9342
:1050300009231FE70000014000380240000402403D
:105040000000024000040040000C00400004014049
:1050500000080240004401400048014000180040A0
:10506000002000402DE9F04305468DB014220021B8
:1050700007A800F040FA2B688C4A934261D10026C1
:105080008B4B00961A6C8B488B4C42F400221A64AE
:105090001A6C02F400220092009A01961A6B42F0F8
:1050A00004021A631B6B03F004030193019B4FF48A
:1050B00040630793022308930123099303230A9370
:1050C00007A908230B93FCF723FB7C4BA6604FF04A
:1050D000006884E8080120464FF48063E66023619D
:1050E0006661A661E66126626662FCF78DF908B129
:1050F000FEF790FE6C63724BA563724C4FF0006C30
:105100004FF0400E84E808504FF4806200232046A0
:10511000E36022616361A361E36123626362FCF780
:1051200073F908B1FEF776FE00222C633420114695
:10513000A563FCF7FBF83420FCF72CF90DB0BDE8B3
:10514000F083614A934271D10026594B02961A6C42
:10515000584842F480121A641A6C02F480120292C7
:10516000029A03961A6B42F004021A631A6B02F059
:1051700004020392039A04961A6B42F008021A631F
:105180001B6B03F0080304930824049B0B944FF457
:1051900080534FF002094FF00108032707A9079336
:1051A000CDF82090CDF824800A97FCF7B1FA0423BB
:1051B00007A9464807930B94CDF82090444CCDF8AE
:1051C00024800A97FCF7A4FA4249A6604FF00063D6
:1051D00084E80A0020464FF48063E660236166613C
:1051E000A661E66126626662FCF70EF908B1FEF779
:1051F00011FE6C63384BA563384C23604FF000639D
:1052000063604023A3604FF480620023E360226167
:105210006361A361E361236263622046FCF7F4F8F3
:1052200008B1FEF7F7FD2C63A56387E72C4A93428C
:1052300084D100261E4B05961A6C2A482A4C42F44B
:1052400000321A641A6C02F400320592059A06962E
:105250001A6B42F001021A631B6B03F00103069301
:10526000069B0C2307930223089303230A9307A9A1
:1052700007230B93FCF74CFA1C4AA6604FF000631F
:1052800084E80C0020464FF48063E6602361666189
:10529000A661E66126626662FCF7B6F808B1FEF721
:1052A000B9FD6C63124BA563124CA6E7004C00409D
:1052B00000380240000802404003002040600240E5
:1052C000706002407409002000500040000C024051
:1052D0009408002010600240B8600240D409002009
:1052E0000044004000000240A0030020886002400B
:1052F000A0600240940600207047FEE7FEE7FEE74C
:10530000FEE7704770477047FBF790BE0148FCF717
:1053100045B900BF940800200148FCF73FB900BF21
:10532000400300200148FCF739B900BF2C050020DC
:105330000148FCF733B900BF740900200148FCF7AD
:105340002DB900BFA00300200148FCF727B900BF1A
:105350009406002008B50448FDF7B4F90348BDE8F9
:105360000840FDF7AFB900BF58040020F406002044
:105370000148FCF713B900BFD40900200148FDF72C
:10538000ADBE00BFD407002008B50A4B196802461D
:1053900009B9094919601868694602448A4206D960
:1053A00000F05AF80C2303604FF0FF3008BD1A607C
:1053B00008BD00BF300300201C0F0020054BD3F8B0
:1053C000882042F47002C3F888204FF000629A608F
:1053D000704700BF00ED00E003280BD0074A042807
:1053E00018BF1023064804BF01231046CAB219464D
:1053F000FCF76EBA4FF480530148F7E7001C0240F7
:1054000000040240DFF834D0002103E00C4B5B586D
:10541000435004310B480C4B42189A42F6D30B4AC6
:1054200002E0002342F8043B094B9A42F9D3FFF70C
:10543000C5FF00F017F8FEF739F8704700000220AA
:105440004C79000800000020000300200003002029
:105450001C0F0020FEE70000014B1868704700BFDA
:105460002C01002070B50D4E0D4CA41BA41000257E
:10547000A54209D10B4E0C4C02F002F8A41BA4105B
:105480000025A54205D170BD56F825309847013555
:10549000EEE756F8253098470135F2E744790008E1
:1054A00044790008447900084879000810B5431E83
:1054B0000A44914200D110BD11F8014B03F8014F8D
:1054C000F7E7884210B501EB020303D8421E994268
:1054D0000CD110BD9842F9D28118D21AD34200D112
:1054E00010BD13F8014D01F8014DF7E711F8014B1C
:1054F00002F8014FEBE702440346934200D17047A4
:1055000003F8011BF9E700000EB400B59CB04FF49E
:1055100002711DABADF81410029006906FF00041BF
:105520000A48049107914FF6FF7153F8042BADF828
:1055300016100068019302A900F0A4F8029B002253
:105540001A701CB05DF804EB03B070472C0100200A
:105550000EB430B59CB01FAC4FF4017254F8045B2C
:10556000ADF8142002900690FAF75CFE0B4B039006
:1055700007900B930A48019400230F9314934FF65E
:10558000FF73ADF816302A46234602A9006800F0E2
:10559000C7F91CB0BDE8304003B07047A5550008FE
:1055A0002C0100200020704710B56AB10139841821
:1055B00010F8013B11F8012F934203D1A04201D012
:1055C000002BF5D1981A10BD104610BD2DE9F047FB
:1055D0008E689E4282460C469146984635D88A8906
:1055E00012F4906F31D0256809696F1A656902233A
:1055F00005EB450595FBF3F508F101033B449D429E
:1056000038BF1D46530531D5294600F0C9FF06466F
:1056100050B90C23CAF80030A38943F04003A3819A
:105620004FF0FF30BDE8F0873A462169FFF73EFFB3
:10563000A38923F4906343F08003A381266165610D
:105640003E44ED1B2660A5604646464528BF4646BB
:10565000324649462068FFF734FFA3689B1BA360CE
:1056600023681E4426600020BDE8F0872A4600F02B
:10567000F5FF06460028E1D12169504600F042FFBF
:10568000C7E700002DE9F04F9DB0804603938B895A
:105690001C060D4616460FD50B696BB9402100F06C
:1056A0007FFF2860286128B90C23C8F800304FF02C
:1056B000FF30C5E040236B610023099320238DF860
:1056C000293030238DF82A304FF0010B37463C4605
:1056D00014F8013B002B3CD1B7EB060A0BD0534624
:1056E000324629464046FFF771FF013000F0A380A3
:1056F000099B534409933B78002B00F09C800023C6
:105700004FF0FF3204930793059206938DF85330C0
:105710001A93052221785048FAF792FD671C049BE2
:10572000D8B9D90644BF20228DF853201A0744BFA8
:105730002B228DF8532022782A2A16D0079A00218E
:105740000A20274601343B78303B092B51D9C9B197
:1057500011E0252BC0D02746B9E73F4A801A0BFA43
:1057600000F0184304903C46D3E7039A111D1268D9
:105770000391002A01DB079204E0524243F0020346
:10578000079204933B782E2B0ED17B782A2B07F1BE
:10579000010132D1039B1A1D1B680392002BB8BF75
:1057A0004FF0FF33023705932C4C39780322204603
:1057B000FAF746FD38B14023001B03FA00F0049BC2
:1057C000034304930137397825488DF828100622C1
:1057D0007E1CFAF735FD002835D0224BFBB9039B20
:1057E000073323F0070308330393099B4B440993C2
:1057F0006CE700FB02320121A3E700230593184662
:105800000A240F4601313A78303A092A03D9002B8D
:10581000CAD00590C8E704FB00200123F1E703ABE1
:1058200000932A46104B04A94046AFF30080B0F124
:10583000FF3F8146D9D1AB895B063FF538AF099868
:105840001DB0BDE8F08F03AB00932A46064B04A9B8
:10585000404600F02FFAEAE74E7700085477000838
:105860005877000800000000CD55000838B54B1CE3
:10587000144603D14FF0FF35284638BD938923F0F5
:1058800020039381536B5268CDB28BB1A36B9A42C4
:1058900008DA23685A1E226003F8015C636801334A
:1058A0006360E9E7214600F0CFFD0028F1D0E1E791
:1058B0002169236851B1994208D213F8011C8D4225
:1058C00004D1013B013223606260D5E7E36304F158
:1058D000440363630323A3632346226403F8465F00
:1058E00023600123DCE710B50C46496B69B104F174
:1058F0004403994201D000F005FE236C6360002050
:10590000606313B1E36B236010BD23692360002340
:105910006360A38943F02003A3814FF0FF3010BDE3
:105920002DE9F04FADF5257D0DF10C080193002315
:1059300046934793A04BA293DFF884929F4BCDF8F8
:10594000208106460C46A39392460A279AF8003017
:10595000002B00F02F8100F0B5FD9AF800B05844FC
:10596000437813F0080343D1BBF1250F0AF1010579
:1059700040F09980459343939AF801302A2B03D144
:10598000102343930AF102052978A1F13002092A74
:10599000AA4605F1010541D903228948FAF750FCCE
:1059A00038B1A0EB090301209840439B1843439072
:1059B000AA469AF80030672B0AF101054AD8652BF0
:1059C00080F0B780472B2FD8452B80F0B280002B7A
:1059D00000F08280252B66D003234993449745E04D
:1059E0004799013147916168013301396160236052
:1059F0006368002B0BDD00F065FD2368197808440F
:105A000041780D07ECD40AF10105AA469EE7A39B55
:105A10002146304698470028EDD0F4E7459B07FB28
:105A20000313303B4593AFE75B2B61D00CD8582B69
:105A3000D2D1439A42F400724392102244926F2BC7
:105A4000B4BF0323042310E0632B5CD0642BC3D1C9
:105A50004497F4E7702B42D01DD86E2B59D043D811
:105A6000692BB9D100234493032349936368002B26
:105A700061DD439B59066FD5499B022B7CDC01AB52
:105A8000224643A9304600F035FA012800F0928002
:105A90000228BAD11DE0752BDAD0782BC9D0732B30
:105AA0009AD10223E1E76368002B0CDD23681A78A2
:105AB00093457FD1013362682360479B013A0133EC
:105AC00062604793A1E7A39B214630469847002890
:105AD000ECD04698002863D14FF0FF3066E0439A3F
